:100000000C94FA270C9427280C9427280C94272862
:100010000C9427280C9427280C9427280D942E67DD
:100020000C9427280C9427280C9427280C94272814
:100030000C9427280C9427280C9427280D94627B75
:100040000C9427280C9427280C9427280C942728F4
:100050000C9427280C9427280C9427280D9443737C
:100060000C9427280D9452680D9481680C942728CD
:100070000C9427280C9427280C9427280C942728C4
:100080000C9427280C9427280C9427280C942728B4
:100090000D94BC680D94EB680C9427280D941E6D8C
:1000A0000C9427280D948F7B0C9427280C942728D8
:1000B0000C9427280C9427280D94BC7B0C9427289B
:1000C0000C9427280C9427280C9427280C94272874
:1000D0000C9427280C9427280D9426690D945569B3
:1000E0000C942728D935E135E935F1352236F93533
:1000F00001362236223622360936113619361A557D
:1001000020551E551A551C551E551E551C551C555F
:100110001C552055205520551C551C552055225541
:100120001B5C125C0A5C235C125C055C235C235C38
:10013000235C1B5C1B5C1B5C235C235C1B5CB26153
:10014000CA61D161BA61C261D96124620762FF618B
:10015000F7610E6216621D62E861F0613D622B621A
:100160004D62536259625F6264626A62467FB97E21
:10017000467F467F3B7F467FA87E3B7F3B7F3B7F22
:10018000CA7E197F237F3B7F3B7F387F467F178066
:10019000218017801780218017801780218021807F
:1001A00021801A8021801A80218021801A80218359
:1001B00038833C8346834A8359914E8359915991A0
:1001C0005991528356835A83299912990199C49659
:1001D000A49956970098A499A499A499A499AB9628
:1001E000AB96A499A499AB9677CC6DCC80CC89CCF6
:1001F0009ECCC0CCF5CC0BCDE7CFDDCFEBCFF5CF90
:1002000005D016D038D05DD069D095D098D0A5D083
:10021000ADD0B8D0C5D0D2D0E6D0EFD054F967F980
:1002200070F98DF99BF9BAF9C7F9E6F9EBF90AFA11
:100230001BFA2EFA38FA5BFA6EFAA0FAB2FADFFA73
:10024000F8FA27FB35FB69FB7CFBB6FBC8FBE22415
:10025000E224F025E2249C259C259C259C259C25B8
:10026000E2249C259C259C259C25F025F025F02545
:10027000F025F02568276827C025EE2652266C2633
:10028000482524252A257626FE25B824FA24362555
:10029000FA24FA24BC27F625FA24FA245025BA2693
:1002A0003426FA24FA24FA24FA24FA24FA24FA2422
:1002B000FA24FA24FA24FA24C826FA24FA24FA247E
:1002C000FA24FA24FA24FA249E25F825FA24FC2597
:1002D0008027FA24C0269627FA24FA24FA24FA243E
:1002E000D826E827E8274E274E2792269226F8267A
:1002F000F826E8274E27F8268A27B4271E25D22578
:10030000D426162686263626CE278425D4248A2669
:10031000DE25A6269A252C269E274C25B227BC250D
:100320001A25AE261A26AE272825722760252427EF
:100330008825E025B62706260E27C6243425C024A6
:100340009026CC276E256A2576271026D224EE2704
:10035000036EDB363D9A9999993DABAAAA2A3E00D5
:100360000000803F084AD73B3BCE016E84BCBFFDF6
:10037000C12F3D6C74319ABD56833DDA3D00C77F75
:1003800011BED9E4BB4C3E916BAAAABE000000800E
:100390003F072C7AA5BA6CC590DA3B9365FC8BBC01
:1003A00053F810FD3C5692834DBD879D3AB63DCB28
:1003B000C9BF5BBE73DA0FC93F05A84CCDB2D44E9E
:1003C000B93836A9020C50B9918688083CA6AAAA69
:1003D0002ABE000000803F08000000BE922449129F
:1003E0003EABAAAA2ABECDCCCC4C3E00000080BEBB
:1003F000ABAAAAAA3E00000000BF000000803F0098
:1004000000000000084178D3BB4387D1133D190E8B
:100410003CC3BD4282AD2B3E68EC8276BED98FE1F3
:10042000A93E4C80EFFFBE01C4FF7F3F00000000EB
:100430000002005241575F53454E53000000000038
:100440000000000068000000803F02014558545F32
:10045000535441540000000000000000006A0000F6
:1004600000803F020252435F4348414E00000000BB
:100470000000000000006C000000803F02035241B9
:10048000575F4354524C0000000000000000006E13
:10049000000000803F0204504F534954494F4E0022
:1004A000000000000000000070000000803F020516
:1004B0004558545241310000000000000000000087
:1004C0000072000000803F0206455854524132003D
:1004D0000000000000000000000074000000803FE9
:1004E000020745585452413300000000000000004C
:1004F00000000076000000803F0208504152414D4C
:100500005300000000000000000000007800000020
:10051000484200FF00000000000000000000000052
:10052000000000000000000000000002464F524D95
:1005300041545F56455253494F4E00000000320966
:10054000000000000153595349445F53575F545909
:10055000504500000000013409000000000253591A
:100560005349445F544849534D41560000000070C0
:1005700035090000803F0253595349445F4D5947A4
:10058000435300000000000071370900007F430161
:1005900053455249414C305F4241554400000000F0
:1005A000007439090000E6420153455249414C3379
:1005B0005F424155440000000000723A09000064A7
:1005C000420154454C454D5F44454C4159000000A3
:1005D000000000733B0900000000044B46465F50DA
:1005E000544348434F4D500000000000C83C09CD23
:1005F000CC4C3E044B46465F524444524D49580051
:100600000000000000C940090000003F044B4646BE
:100610005F50544348325448520000000000CA441E
:100620000900000000044B46465F544852325054C3
:1006300043480000000000CB4809000000000153BF
:100640005449434B5F4D4958494E47000000000054
:1006500019CD090000803F04544B4F46465F544873
:10066000525F4D494E5350440022CE090000000015
:1006700004544B4F46465F5448525F4D494E4143E8
:10068000430023D20900000000014C4556454C5F51
:10069000524F4C4C5F4C494D49540025D60900003F
:1006A000A040024C414E445F50495443485F43448C
:1006B0000000000017A10900000000044C414E4456
:1006C0005F464C4152455F414C540000001BA3095A
:1006D00000004040044C414E445F464C4152455F4F
:1006E0005345430000001CA70900000040014E4193
:1006F000565F434F4E54524F4C4C45520000002819
:1007000050090000803F04414C545F4D495800009F
:1007100000000000000000008351090000803F013C
:10072000414C545F4354524C5F414C470000000021
:10073000007C55090000000002414C545F4F4646C2
:10074000534554000000000000002085090000000F
:100750000001434D445F544F54414C0000000000E1
:10076000000000DD57090000000001434D445F49CF
:100770004E4445580000000000000000DE5809000B
:100780000000000257505F52414449555300000099
:100790000000000000DF59090000F0410257505FDF
:1007A0004C4F495445525F52414400000000E05B09
:1007B00009000070420146454E43455F414354499C
:1007C0004F4E0000000000E15D09000000000146FE
:1007D000454E43455F544F54414C0000000000001B
:1007E000E25E09000000000146454E43455F434874
:1007F000414E4E454C00000000E35F090000000040
:100800000246454E43455F4D494E414C5400000061
:100810000000E46009000000000246454E43455FC9
:100820004D4158414C540000000000E562090000B1
:1008300000000241525350445F4642575F4D494EBB
:10084000000000007864090000C04002415253508B
:10085000445F4642575F4D415800000000796609E9
:100860000000B04101464257425F454C45565F5239
:100870004556000000007B68090000000001464268
:1008800057425F434C494D425F5241544500007D01
:10089000690900000040015448525F4D494E000074
:1008A0000000000000000000B56A0900000000011F
:1008B0005448525F4D415800000000000000000005
:1008C00000B66B0900009642015448525F534C45F4
:1008D00057524154450000000000BD6C0900000063
:1008E00000015448525F535550505F4D414E000037
:1008F000000000BE6D0900000000015448525F5026
:100900004153535F5354414200000000BF6E090041
:10091000000000015448525F4641494C534146454E
:100920000000000000B76F090000803F02544852E9
:100930005F46535F56414C55450000000000B870BB
:100940000900806D44015452494D5F5448524F5440
:10095000544C4500000000B97209000034420154B3
:1009600048524F54544C455F4E5544474500000093
:100970001F73090000803F0146535F53484F525494
:100980005F4143544E00000000BA740900000000AB
:100990000146535F4C4F4E475F4143544E000000A9
:1009A0000000BB7509000000000146535F47435338
:1009B0005F454E41424C0000000000BC760900003B
:1009C000000001464C544D4F44455F434800000031
:1009D00000000000D277090000004101464C544D50
:1009E0004F444531000000000000000000D37809AA
:1009F0000000304101464C544D4F44453200000048
:100A0000000000000000D479090000304101464C8C
:100A1000544D4F444533000000000000000000D555
:100A20007A090000004001464C544D4F44453400C3
:100A30000000000000000000D67B0900000040011B
:100A4000464C544D4F444535000000000000000066
:100A500000D77C090000000001464C544D4F44452E
:100A600036000000000000000000D87D09000000F2
:100A700000014348375F4F5054494F4E000000007B
:100A8000000000D97E0900000000024C494D5F5271
:100A90004F4C4C5F4344000000000000987F090069
:100AA000A08C45024C494D5F50495443485F4D412D
:100AB00058000000009981090080BB44024C494D58
:100AC0005F50495443485F4D494E000000009A83EF
:100AD0000900401CC5015452494D5F4155544F0017
:100AE000000000000000000A8C0900000000014521
:100AF0004C45564F4E5F4D4958494E470000000047
:100B00000D8D090000000001454C45564F4E5F52C7
:100B10004556455253450000000E90090000000064
:100B200001454C45564F4E5F4348315F5245560094
:100B300000000F91090000000001454C45564F4E42
:100B40005F4348325F524556000000109209000092
:100B5000000001565441494C5F4F555450555400C4
:100B600000000000278E090000000001454C45569A
:100B70004F4E5F4F555450555400000000298F09C7
:100B800000000000025359535F4E554D5F524553CC
:100B900045545300000002930900000000024C4F2E
:100BA000475F4249544D41534B0000000000000B89
:100BB000950900C0ED44015253545F5357495443C3
:100BC000485F43480000000015970900000000013D
:100BD0005253545F4D495353494F4E5F43480000B1
:100BE000001A980900000000035452494D5F415219
:100BF0005350445F434D000000009B99090000964C
:100C000044045343414C494E475F535045454400CB
:100C1000000000CC4C0900007041034D494E5F4775
:100C20004E445350445F434D000000009EAB09000A
:100C3000000000025452494D5F50495443485F43FD
:100C400044000000000CAF090000000003414C54B8
:100C50005F484F4C445F52544C00000000009C9D84
:100C60000900401C4602414C545F484F4C445F46CB
:100C70004257434D0000007AB10900000000014DC9
:100C800041475F454E41424C4500000000000000D6
:100C900084B3090000803F01464C41505F315F50F2
:100CA0004552434E540000000011B50900000000F9
:100CB00001464C41505F315F5350454544000000B0
:100CC000000012B6090000000001464C41505F329E
:100CD0005F504552434E540000000013B709000016
:100CE000000001464C41505F325F5350454544007F
:100CF0000000000014B809000000000142415454F3
:100D00005F4D4F4E49544F52000000000086B40919
:100D10000000000004564F4C545F44495649444576
:100D200052000000000087B9090AD7634004414D12
:100D3000505F5045525F564F4C54000000000088F1
:100D4000BD095C8FDA4104414D505F4F4646534523
:100D500054000000000000008FC1090000000003E3
:100D6000424154545F4341504143495459000000AB
:100D7000008AC5090000DC4401424154545F564FCB
:100D80004C545F50494E00000000A8CA0900000002
:100D90000001424154545F435552525F50494E0046
:100DA000000000A9CB090000803F01525353495F66
:100DB00050494E000000000000000000A7C90900D3
:100DC0000080BF01494E564552544544464C545F3D
:100DD00043480000009DCC09000000000154505F12
:100DE000434C5F4E41560000000000000000A28A04
:100DF000090000803F0154505F415750525F4E41FF
:100E000056000000000000A38B090000803F025440
:100E1000505F41474C5F5245460000000000000013
:100E2000A08809000000000154505F4D534C5F52F0
:100E3000454600000000000000A1870900000000F6
:100E400008474E445F000000000000000000000062
:100E500000008D0B0CD82D00000843414D5F0000B1
:100E60000000000000000000000000A4AB0C0237EE
:100E70000000085243315F00000000000000000045
:100E800000000000AAD70921360000085243325F53
:100E900000000000000000000000000000ABF409AA
:100EA00021360000085243335F00000000000000BC
:100EB000000000000000AC110A2136000008524377
:100EC000345F00000000000000000000000000ADE2
:100ED0002E0A21360000085243355F000000000052
:100EE0000000000000000000AE4B0AB7360000080A
:100EF0005243365F000000000000000000000000C8
:100F000000AF690AB7360000085243375F0000009F
:100F100000000000000000000000B0870AB73600A3
:100F200000085243385F000000000000000000008D
:100F3000000000B1A50AB7360000084152535032F4
:100F4000505443485F00000000000000F3930BA4DE
:100F500035000008454E524759325448525F000050
:100F60000000000000F5B10BA435000008414C540E
:100F700032505443485F0000000000000000F6CFEC
:100F80000BA435000008574845454C53544545527D
:100F90005F000000000000F7ED0BA43500000852D0
:100FA0004C4C325352565F0000000000000000001D
:100FB000F1C30AA435000008505443483253525636
:100FC0005F0000000000000000F2E10AA43500000C
:100FD000085957325352565F0000000000000000CD
:100FE0000000F4FF0AA435000008434F4D50415360
:100FF000535F00000000000000000085B50C2231A6
:101000000000085352305F000000000000000000A4
:10101000000000006E960D31040000085352335F4B
:10102000000000000000000000000000006F1E0E25
:101030003104000008494E535F000000000000002A
:1010400000000000000021E606EA320000084148E6
:1010500052535F0000000000000000000000008C00
:101060003407AA3400000841525350445F00000086
:1010700000000000000000008EB3087F3700000869
:101080004E41564C315F000000000000000000009F
:1010900000EBA60EC7450000084D4E545F0000004F
:1010A00000000000000000000000A5C708D73A00BB
:1010B0000000000000000000000000000000000030
:1010C000000000000000000000004C6F6700647525
:1010D0006D7000000000000000000000774B65729A
:1010E0006173650000000000000000006477656E19
:1010F00061626C650000000000000000614A6469E4
:101100007361626C6500000000000000614A736555
:101110007475700072657365740000000000000053
:1011200000000F4A726164696F0000000000000057
:10113000000096686D6F6465730000000000000099
:1011400000000B686C6576656C0000000000000014
:1011500000005277616363656C00000000000000CE
:1011600000009349636F6D706173730000000000AD
:10117000000016496465636C696E6174696F6E0086
:101180000000044962617474657279000000000017
:101190000000654773686F770000000000000000E2
:1011A0000000A34873657400000000000000000008
:1011B0000000974765726173650000000000000041
:1011C0000000A13341726475506C616E6520563227
:1011D0002E37332D7870312075706461746564200A
:1011E0006279204A4C4E006C6F677300000000006B
:1011F00000000000005F4773657475700000000018
:1012000000000000003C477465737400000000009B
:10121000000000000019477265626F6F74000000E3
:101220000000000000FE3468656C700000000000E3
:101230000000000000DF34746573740070776D0087
:10124000000000000000000000008A67726164690D
:101250006F000000000000000000A46F7061737355
:101260007468727500000000000098466661696C41
:101270007361666500000000000057666261747467
:1012800065727900000000000000EF6E72656C610D
:1012900079000000000000000000F24377617970DF
:1012A0006F696E74730000000000F9427862656532
:1012B00000000000000000000000F736656564755E
:1012C0006D700000000000000000FF3D6D6F646560
:1012D00073776974636800000000AE416164630065
:1012E000000000000000000000002441677073004F
:1012F000000000000000000000007D407261776780
:10130000707300000000000000005637696E730023
:1013100000000000000000000000353961697273B0
:1013200070656564000000000000C9756169727035
:1013300072657373757265000000FB74636F6D7086
:10134000617373000000000000007D3B6C6F6767F5
:10135000696E670000000000000054377361766911
:101360006E67206F66667365747300636F6D70617E
:101370007373206E6F74206865616C7468790048BF
:10138000656164696E673A20256C642C2058595A4F
:101390003A2025642C2025642C2025642C095859DA
:1013A0005A6F66663A2025362E32662C2025362E58
:1013B00032662C2025362E32660A00436F6D70612E
:1013C000737320696E697469616C69736174696FA4
:1013D0006E206661696C65642100436F6D70617396
:1013E000733A200061626C65640A00646973006589
:1013F0006E004D6167206F6666736574733A2025D1
:10140000342E34662C2025342E34662C2025342EA0
:1014100034660A004D6167204465636C696E6174CF
:10142000696F6E3A2025342E34660A003F3F00482B
:10143000494C00484D433538343300484D43353826
:1014400038334C00436F6D706173733A20002D0088
:1014500048697420456E74657220746F20657869E0
:10146000742E0A0A00416C743A2025302E32666DC3
:101470002C205261773A2025662054656D70657284
:1014800061747572653A20252E31660A006E6F749C
:10149000206865616C74687900556E63616C69627F
:1014A00072617465642072656C617469766520612F
:1014B000697270726573737572650A006261726F2A
:1014C0006D657465722063616C6962726174696FC5
:1014D0006E20636F6D706C6574650043616C69624A
:1014E000726174696E67206261726F6D6574657296
:1014F00000252E3166206D2F730A006169727370AA
:101500006565643A200061697273706565643A20AC
:101510000061697273706565645F63683A20252EA7
:1015200033660A007A65726F20616972737065654F
:10153000642063616C6962726174656400723A254B
:1015400034642020703A2534642020793A253364AD
:101550002020673D2825352E31662025352E316621
:101560002025352E3166292020613D2825352E3154
:10157000662025352E31662025352E3166290A0054
:101580002E004C61743A20256C642C204C6F6E2028
:10159000256C642C20416C743A20256C646D2C20E1
:1015A00023736174733A2025640A00252E3166097D
:1015B000004144430A00506F736974696F6E2025BF
:1015C000640A00436F6E74726F6C204348200020E1
:1015D0002530327800253034783A00426567696EEC
:1015E000205842656520582D4354552052616E673E
:1015F0006520616E64205253534920546573743AD8
:101600000A004C6F69746572207261646975733A7F
:101610002025640A0A004869742072616469757340
:101620003A2025640A00256420776179706F696E1D
:1016300074730A00486F6C6420616C74697475641B
:1016400065206F662025646D0A00486F6C64206316
:10165000757272656E7420616C7469747564650A64
:1016600000636F6D6D616E6420233A2025642069EC
:10167000643A2564206F7074696F6E733A25642034
:1016800070313A25642070323A256C642070333A08
:10169000256C642070343A256C64200A0052656C15
:1016A0006179206F66660A0052656C6179206F6E01
:1016B0000A004E6F7420656E61626C65640A0056A4
:1016C0003A2025342E34662C20413A2025342E34FD
:1016D000662C206D41683A2025342E34660A005667
:1016E0003A2025342E34660A004D534720465320B5
:1016F0004F4646202575004D5347204653204F4EF8
:1017000020257500547269676765726564204155CC
:10171000544F2078616363656C3D252E3166004C23
:101720004F5320636175736564206E6F2063686139
:101730006E676520696E2041504D2E0A0054485254
:101740004F54544C45204641494C53414645204155
:1017500043544956415445443A2025642C200043C3
:101760004F4E54524F4C204D4F4445204348414E1C
:101770004745443A20005448524F54544C45204366
:1017800048414E474544202564200A00556E706C40
:10179000756720626174746572792C207468726F49
:1017A00074746C6520696E206E65757472616C2C42
:1017B000207475726E206F666620726164696F2E88
:1017C0000A004D6F646528257529004C6F697465A2
:1017D000720052544C004155544F004642575F42EC
:1017E000004642575F4100547261696E696E67003E
:1017F00053746162696C697A6500436972636C65F0
:10180000004D616E75616C0043483A002C00494EF2
:1018100020313A20256409323A20256409333A20E0
:10182000256409343A20256409353A2025640936AF
:101830003A20256409373A20256409383A2025647E
:101840000A00494E3A09313A20256409323A2025E6
:101850006409333A20256409343A20256409353A6D
:1018600020256409363A20256409373A2025640981
:10187000383A2025640A00436F6D6D616E64733AD7
:101880000A20206C6F677320202020202020206CED
:101890006F6720726561646261636B2F7365747535
:1018A00070206D6F64650A20207365747570202048
:1018B00020202020207365747570206D6F64650A88
:1018C000202074657374202020202020202074653F
:1018D0007374206D6F64650A20207265626F6F7487
:1018E0002020202020207265626F6F7420746F208A
:1018F000666C69676874206D6F64650A0A005465D8
:101900007374204D6F64650A0A0053657475702006
:101910004D6F64650A0A494D504F5254414E543A36
:1019200020696620796F752068617665206E6F7416
:101930002070726576696F75736C79207365742099
:10194000746869732073797374656D2075702C20C9
:10195000757365207468650A27726573657427203E
:10196000636F6D6D616E6420746F20696E69746958
:10197000616C697A652074686520454550524F4D09
:1019800020746F2073656E7369626C652064656690
:1019900061756C742076616C7565730A616E642084
:1019A0007468656E207468652027726164696F27AA
:1019B00020636F6D6D616E6420746F20636F6E665F
:1019C000696775726520666F7220796F7572207213
:1019D0006164696F2E0A0A000A54797065202759DC
:1019E0002720616E642068697420456E74657220DA
:1019F000746F20657261736520616C6C207761790A
:101A0000706F696E7420616E6420706172616D65C3
:101A100074657220646174612C20616E79206F742A
:101A2000686572206B657920746F2061626F7274D3
:101A30003A2000646F6E650A000A45726173696E30
:101A40006720454550524F4D0A0043616E6E6F74DA
:101A50002073657420706172616D65746572206FAA
:101A60006620747970652025642E0A0056616C75B5
:101A700065206F7574206F662072616E67652066E1
:101A80006F72207479706520494E5431360A0056C1
:101A9000616C7565206F7574206F662072616E676A
:101AA0006520666F72207479706520494E54380A3B
:101AB00000506172616D206E6F7420666F756E6488
:101AC0003A2025730A00496E76616C696420636F61
:101AD0006D6D616E642E2055736167653A20736584
:101AE00074203C6E616D653E203C76616C75653E90
:101AF0000A00506172616D65746572206E6F7420AA
:101B0000666F756E643A20272573270A000A4F70A6
:101B100074696F6E733A20332D34004D6F6E6974A3
:101B20006F72696E6720766F6C747320616E6420CB
:101B300063757272656E74004D6F6E69746F726951
:101B40006E67206261747420766F6C7473004261FA
:101B50007474206D6F6E69746F72696E672064694A
:101B60007361626C65640042617474204D6F696ECC
:101B7000746F720A000A4F7074696F6E733A5B6F0C
:101B80006E2C6F66662C72657365745D0A007265F3
:101B9000736574006F666600436F6D7061737320C8
:101BA000696E697469616C69736174696F6E2066CE
:101BB00061696C656421006F6E00496E69746961CA
:101BC0006C6973696E67206779726F7300494E5351
:101BD0000A004779726F206F6666736574733A20E6
:101BE00025342E32662C2025342E32662C202534C6
:101BF0002E32660A00416363656C206F666673650A
:101C000074733A2025342E32662C2025342E326609
:101C10002C2025342E3266097363616C653A2025C9
:101C2000342E32662C2025342E32662C2025342E7C
:101C300032660A004E4F20616972737065656400F8
:101C4000426567696E6E696E6720494E5320636115
:101C50006C6962726174696F6E3B20646F206E6F95
:101C600074206D6F766520706C616E6500576172CF
:101C70006D696E67207570204144432E2E2E0044FE
:101C8000656D6F20536572766F7321000A4D6F7614
:101C90006520524320746F67676C652073776974A1
:101CA000636820746F206561636820706F73697466
:101CB000696F6E20746F20656469742C206D6F7677
:101CC000652061696C65726F6E20737469636B2047
:101CD000746F2073656C656374206D6F6465732E1B
:101CE00000506F732025643A2000466C6967687461
:101CF000206D6F6465730A000A5361766564205332
:101D0000657474696E67730A0A000A4D6F76652000
:101D1000616C6C20636F6E74726F6C7320746F20D3
:101D2000656163682065787472656D652E20486909
:101D30007420456E74657220746F20736176653A05
:101D4000200A000A4E6F20726164696F3B2043686D
:101D500065636B20636F6E6E6563746F72732E00C4
:101D60000A0A526164696F2053657475703A0A00FB
:101D7000526164696F0A004348383A202564207C28
:101D8000202564207C2025640A004348373A20251A
:101D900064207C202564207C2025640A004348368A
:101DA0003A202564207C202564207C2025640A00BC
:101DB0004348353A202564207C202564207C20255A
:101DC000640A004348343A202564207C202564209E
:101DD0007C2025640A004348333A202564207C2077
:101DE0002564207C2025640A004348323A2025647B
:101DF000207C202564207C2025640A004348313A59
:101E0000202564207C202564207C2025640A000A8B
:101E1000464143544F525920524553455420636F15
:101E20006D706C657465202D20706C656173652024
:101E300072657365742041504D20746F20636F6E1E
:101E400074696E7565000A547970652027592720DA
:101E5000616E642068697420456E74657220746FC9
:101E600020706572666F726D20666163746F72793F
:101E70002072657365742C20616E79206F746865BB
:101E800072206B657920746F2061626F72743A20E2
:101E900000656E61626C6500434F4D5041535300C5
:101EA00043555252454E5400434D4400494D550050
:101EB0004D4F4445004E54554E004354554E00502E
:101EC0004D004750530041545449545544455F4DCB
:101ED00045440041545449545544455F4641535488
:101EE00000616C6C006D697373696E67206C6F675D
:101EF00020747970650A004C6F67206572617365A4
:101F000020636F6D706C6574650045726173696EF6
:101F100067206C6F677300626164206C6F67206E6E
:101F2000756D6265720A0064756D70696E67206117
:101F30006C6C0A008059464D54000042426E4E5A65
:101F40000000000000000000000000547970652CC3
:101F50004C656E6774682C4E616D652C466F726DB2
:101F6000617400000000000000000000000000009C
:101F70000000000000000000000000000000000061
:101F800000000000000000000000008117504152D6
:101F90004D004E6600000000000000000000000040
:101FA00000004E616D652C56616C75650000000087
:101FB0000000000000000000000000000000000021
:101FC0000000000000000000000000000000000011
:101FD0000000000000000000000000000000000001
:101FE000000082234750530000424942634C4C6535
:101FF0006545650000000000005374617475732C22
:1020000054696D652C4E536174732C48446F702C69
:102010004C61742C4C6E672C52656C416C742C4175
:102020006C742C5370642C474372730000000000E2
:10203000000000000000000000831B494D55000017
:10204000666666666666000000000000000000002C
:10205000477972582C477972592C4779725A2C411A
:102060006363582C416363592C4163635A00000039
:102070000000000000000000000000000000000060
:102080000000000000000000000000000000000050
:1020900084434D534700005A000000000000000038
:1020A000000000000000004D65737361676500006B
:1020B0000000000000000000000000000000000020
:1020C0000000000000000000000000000000000010
:1020D0000000000000000000000000000000000000
:1020E000000000000000000A09415454000063632E
:1020F0004300000000000000000000000000526FDC
:102100006C6C2C50697463682C5961770000000076
:1021100000000000000000000000000000000000BF
:1021200000000000000000000000000000000000AF
:102130000000000000000000000000000000031785
:10214000504D000000494868424242686868684251
:1021500000000000004C54696D652C4D4C432C6709
:1021600044742C524E436E742C524E426C2C475089
:1021700053636E742C4744782C4744792C47447A37
:102180002C504D542C49324345727200000000001F
:1021900000000000000414434D440000424242424B
:1021A00042654C4C000000000000000043546F7476
:1021B0002C434E756D2C4349642C434F70742C5046
:1021C000726D312C416C742C4C61742C4C6E670018
:1021D00000000000000000000000000000000000FF
:1021E0000000000000000000000000000919434149
:1021F0004D0000494C4C6563634300000000000043
:1022000000000047505354696D652C4C61742C4C90
:102210006E672C416C742C526F6C6C2C506974631B
:10222000682C5961770000000000000000000000E9
:10223000000000000000000000000000000000009E
:1022400000000006055354525400424200000000B2
:102250000000000000000000000053547970652C5D
:1022600043546F74000000000000000000000000F4
:10227000000000000000000000000000000000005E
:10228000000000000000000000000000000000004E
:102290000000000000000000000001134354554EF0
:1022A000006363636368686600000000000000006C
:1022B000004E6176526F6C6C2C526F6C6C2C4E61C0
:1022C0007650697463682C50697463682C54687222
:1022D0004F75742C5264724F75742C4163635900AE
:1022E00000000000000000000000000000000000EE
:1022F0000002114E54554E004349434363630000AE
:1023000000000000000000005961772C57704469FC
:1023100073742C546172674272672C4E61764272FC
:10232000672C416C744572722C41727370640000AA
:10233000000000000000000000000000000000009D
:1023400000000000000000000B054D4F4445004D0B
:102350004200000000000000000000000000004DEE
:102360006F64650000000000000000000000000035
:10237000000000000000000000000000000000005D
:10238000000000000000000000000000000000004D
:102390000000000000000000000000000000000538
:1023A0000F435552520068686848660000000000FC
:1023B0000000000000005468722C566F6C742C43AF
:1023C0007572722C5663632C43757272546F74006D
:1023D00000000000000000000000000000000000FD
:1023E00000000000000000000000000000000000ED
:1023F0000000000000000C154D41470000686868AF
:10240000686868686868000000000000004D616747
:10241000582C4D6167592C4D61675A2C4F66735883
:102420002C4F6673592C4F66735A2C4D4F66735858
:102430002C4D4F6673592C4D4F66735A00000000A7
:102440000000000000000000000000000041504DAE
:102450002031000A41726475506C616E65205632FD
:102460002E37332D78703120757064617465642067
:102470006279204A4C4E0A467265652052414D3AB7
:102480002025750A00434F4D5041535300202553DA
:102490000043555252454E540020255300434D44AD
:1024A0000020255300494D5500202553004D4F4431
:1024B0004500202553004E54554E0020255300431F
:1024C00054554E0020255300504D00202553004701
:1024D0005053002025530041545449545544455FFE
:1024E0004D4544002025530041545449545544451A
:1024F0005F4641535400202553006E6F6E65006C9B
:102500006F677320656E61626C65643A2000526586
:102510006365697665642052657175657374202DF5
:10252000206A756D7020746F20636F6D6D616E64CD
:10253000202325690043616E6E6F74206368616EAD
:10254000676520746F206E6F6E2D4E617620636D0F
:10255000642025750052656365697665642052655F
:102560007175657374202D207265736574206D69B3
:102570007373696F6E00283229204E6F6E2D4E6185
:102580007620636F6D6D616E6420494420757064C0
:102590006174656420746F20232569206964783D27
:1025A0002575004E6F6E2D4E617620636F6D6D61E7
:1025B0006E64204944207570646174656420746F92
:1025C00020232569206964783D2575006F75742086
:1025D0006F6620636F6D6D616E647321004E61766E
:1025E00020636F6D6D616E6420696E64657820751F
:1025F00070646174656420746F20232569005265DE
:102600007475726E696E6720746F20486F6D650017
:10261000457865637574696E67206E617620636FB7
:102620006D6D616E642049442023256900526573F5
:10263000657474696E6720707265765F57500045E7
:102640007865637574696E6720636F6D6D616E6424
:102650002049442023256900444F5F5345545F526D
:102660004F49206E6F7420737570706F727465645B
:1026700000457865637574696E6720636F6D6D6181
:102680006E64204944202325690073657474696E63
:102690006720636F6D6D616E6420696E6465783A62
:1026A000202569004A756D7020746F2057502025D1
:1026B000752E204A756D7073206C6566743A2025FE
:1026C0006400536B697070696E6720696E76616C27
:1026D0006964206A756D7020746F202569004A75E1
:1026E0006D7073206C6566743A2030202D20736BFA
:1026F000697070696E6700536574207468726F74D6
:10270000746C65202575005365742067726F756E53
:102710006473706565642025750053657420616974
:10272000727370656564202575206D2F7300677066
:102730007320616C743A20256C7500696E69742091
:10274000686F6D65006261642066656E6365207008
:102750006F696E74006261642066656E63652070E7
:102760006F696E740066656E63696E67206D757360
:10277000742062652064697361626C656400666CD4
:102780006967687420706C616E2072656365697634
:10279000656400666C6967687420706C616E207592
:1027A00070646174652072656A6563746564005560
:1027B0006E6B6E6F776E20706172616D657465729D
:1027C00020252E31367300556E6B6E6F776E20703C
:1027D0006172616D6574657220696E64657820252B
:1027E0006400636F6D6D616E642072656365697608
:1027F00065643A2000666C69676874206D6F646573
:10280000203D202575004661696C73616665202D49
:102810002053686F7274206576656E74206F6E2C1D
:1028200020004661696C73616665202D2053686FD6
:102830007274206576656E74206F66660067656FDA
:102840002D66656E6365207472696767657265647D
:102850000067656F2D66656E6365204F4B00676589
:102860006F2D66656E636520736574757020657283
:10287000726F720067656F2D66656E6365206C6FA1
:1028800061646564007665726966795F6E61763A47
:1028900020496E76616C6964206F72206E6F2063D0
:1028A000757272656E74204E617620636D640048A7
:1028B0006F6C64696E6720636F7572736520256C39
:1028C00064004C616E6420436F6D706C65746520AC
:1028D0002D20486F6C6420636F7572736520256CC2
:1028E000640050617373656420576179706F696E1D
:1028F000742023256920646973742025756D005246
:1029000065616368656420576179706F696E7420D2
:1029100023256920646973742025756D00526561F3
:102920006368656420576179706F696E7420232530
:102930006920646973742025756D00766572696617
:10294000795F6E61763A204C4F49544552206F7240
:102950006269747320636F6D706C65746500766571
:10296000726966795F6E61763A204C4F49544552E0
:102970002074696D6520636F6D706C6574650052BD
:1029800065616368656420686F6D6500766572696E
:1029900066795F636F6E6469746F6E3A20496E7614
:1029A000616C6964206F72206E6F2063757272654E
:1029B0006E7420436F6E646974696F6E20636D641A
:1029C00000666C69676874206D6F6465203D202522
:1029D00075004661696C73616665202D204C6F6ED1
:1029E00067206576656E74206F6E2C20000A507229
:1029F00065737320454E54455220332074696D65CC
:102A00007320746F20737461727420696E746572C0
:102A10006163746976652073657475700A00436F2D
:102A20006D7061737320696E697469616C6973613B
:102A300074696F6E206661696C656421004552415E
:102A400053494E47204C4F4753004E6F20646174EA
:102A500061666C617368206361726420696E73657E
:102A600072746564000A0A496E6974204172647563
:102A7000506C616E652056322E37332D78703120C0
:102A800075706461746564206279204A4C4E0A0A4C
:102A9000467265652052414D3A2025750A006C6FDB
:102AA00061645F616C6C20746F6F6B20256C757551
:102AB000730A00646F6E652E004669726D776172ED
:102AC00065206368616E67653A2065726173696E3F
:102AD0006720454550524F4D2E2E2E0A00496E76E6
:102AE000616C69642053455249414C335F42415502
:102AF00044000A0A20526561647920746F20464CB4
:102B0000592E003C737461727475705F67726F75D3
:102B10006E643E2047524F554E4420535441525408
:102B200000496E697469616C6973696E6720415010
:102B30004D2E2E2E00202025530A00436F6D6D610F
:102B40006E64733A00496E76616C696420636F6DE0
:102B50006D616E642C2074797065202768656C70D7
:102B60002700657869740068656C700025535D20E6
:102B70000025733A2025660A0025733A20256C64E7
:102B80000A0025733A2025640A0025733A2025643B
:102B90000A00245047434D442C31362C302C302C25
:102BA000302C302C302A36410D0A00245053524626
:102BB0003130302C302C33383430302C382C312C10
:102BC000302A334300204E4D4541200020534952C6
:102BD000462000204D544B2000204D544B313920CD
:102BE000002075626C6F7820000096000000E10004
:102BF0000080250000C01200004F4B0024505352AB
:102C0000463130332C302C302C312C312A32350DDA
:102C10000A24505352463130332C312C302C302C76
:102C2000312A32350D0A24505352463130332C327A
:102C30002C302C302C312A32360D0A245053524677
:102C40003130332C332C302C302C312A32370D0AD2
:102C500024505352463130332C342C302C312C310B
:102C60002A32300D0A24505352463130332C352C41
:102C7000302C312C312A32300D0A24505352463137
:102C800030332C362C302C302C312A32320D0A24A1
:102C9000505352463130332C382C302C302C312AC2
:102CA00032430D0A24505352463135312C312A33E8
:102CB000460D0A24505352463130362C32312A30D8
:102CC000460D0A0024504D544B3331342C302C30F7
:102CD0002C312C312C302C302C302C302C302C3012
:102CE0002C302C302C302C302C302C302C302A3204
:102CF000380D0A24504D544B3333302C302A324592
:102D00000D0A24504D544B3331332C312A32450DAA
:102D10000A24504D544B3330312C322A32450D0A9F
:102D20000024505542582C34302C6767612C302CCD
:102D3000312C302C302C302C302A37420D0A2450C4
:102D40005542582C34302C7674672C302C312C3072
:102D50002C302C302C302A37460D0A24505542583E
:102D60002C34302C726D632C302C302C302C302CC9
:102D7000302C302A36370D0A004750524D43004759
:102D80005047474100475056544700A0A20008A6AC
:102D90000200000000000000A8B0B3A0A20008A636
:102DA0000029010000000000D0B0B3B562060103A5
:102DB00000010601124F24505542582C34312C3159
:102DC0002C303030332C303030312C3338343030FC
:102DD0002C302A32360D0A0004024142535F505211
:102DE00045535300000000000000000C00000000EC
:102DF00000040354454D5000000000000000000096
:102E00000000000008000000000000FF00000000BB
:102E100000000000000000000000000000000000B2
:102E200000000050414E49433A2041505F426172D8
:102E30006F3A3A7265616420756E7375636365738A
:102E40007366756C20666F72206D6F726520746892
:102E5000616E203530306D7320696E2041505F42C5
:102E600061726F3A3A63616C696272617465205B8A
:102E7000335D0D0A0050414E49433A2041505F42B4
:102E800061726F3A3A7265616420756E737563633F
:102E900065737366756C20666F72206D6F72652046
:102EA0007468616E203530306D7320696E2041503A
:102EB0005F4261726F3A3A63616C69627261746514
:102EC000205B325D0D0A0050414E49433A2041508B
:102ED0005F4261726F3A3A7265616420756E737514
:102EE000636365737366756C20666F72206D6F72B5
:102EF00065207468616E203530306D7320696E20F6
:102F000041505F4261726F3A3A63616C696272610B
:102F10007465205B315D0D0A0050414E49433A20F3
:102F200041505F4261726F5F4D53353631312074CD
:102F30006F6F6B206D6F7265207468616E20313029
:102F400030306D7320746F20696E697469616C69CB
:102F50007A650050414E49433A2041505F426172C8
:102F60006F5F4D53353631313A206661696C656467
:102F700020746F2074616B652073657269616C20C9
:102F800073656D6170686F726520666F7220696E1F
:102F900069740050414E49433A2041505F4261728A
:102FA0006F5F4D53353631313A204E554C4C2073BE
:102FB000657269616C206472697665720050414E79
:102FC00049433A206661696C656420746F207461BE
:102FD0006B65205F6932635F73656D20313030202F
:102FE00074696D657320696E206120726F772C2083
:102FF000696E2041505F4261726F5F4D53353631CB
:10300000313A3A5F7570646174650050414E4943CE
:103010003A2041505F4261726F5F4D533536313116
:1030200020646964206E6F74206765742076616C1B
:103030006964204932432073656D617068726F6501
:10304000210050414E49433A206661696C65642015
:10305000746F2074616B65205F7370695F73656D59
:10306000203130302074696D657320696E206120D5
:10307000726F772C20696E2041505F4261726F5FE2
:103080004D53353631313A3A5F757064617465007D
:1030900050414E49433A2041505F4261726F5F4D4B
:1030A000533536313120646964206E6F7420676552
:1030B000742076616C6964205350492073656D619A
:1030C0007068726F65210050414E49433A2041506B
:1030D0005F4261726F5F4D533536313120646964F0
:1030E000206E6F74206765742076616C696420536C
:1030F00050492064657669636520647269766572FB
:1031000021004661696C656420746F2067657420D6
:10311000484D43353834332073656D6170686F7284
:10312000650005014F46530000000000000000004C
:1031300000000000001100000000000402444543AC
:1031400000000000000000000000000000001D0062
:103150000000000001034C4541524E0000000000F9
:10316000000000000000000F000000803F01045537
:1031700053450000000000000000000000000000B7
:1031800021000000803F01054155544F4445430054
:1031900000000000000000000022000000803F014D
:1031A000064D4F5443540000000000000000000092
:1031B00000009D000000000005074D4F5400000076
:1031C00000000000000000000000009E0000000061
:1031D0000001084F5249454E540000000000000015
:1031E0000000000010000000000000FF00000000D0
:1031F00000000000000000000000000000000000CF
:10320000000000256C642E2530376C64002D0050C2
:10321000414E49433A206661696C656420746F20B1
:1032200074616B65205F7370695F73656D20696E93
:1032300041505F4144435F414453373834343A3A54
:10324000496E69740050414E49433A2041505F41F4
:1032500044435F41445337383434206D6973736994
:103260006E672053504920646576696365207365F5
:103270006D6170686F72650050414E49433A20415C
:10328000505F4144435F41445337383434206D69C3
:103290007373696E6720535049206465766963656E
:1032A000206472697665720A0050414E49433A20A3
:1032B0006661696C656420746F2074616B65205F62
:1032C0007370695F73656D203130302074696D658E
:1032D0007320696E2041505F4144435F414453373E
:1032E0003834343A3A7265616400020050524F44F7
:1032F0005543545F4944000000000000001A0000DC
:1033000000000005014143435343414C00000000CD
:103310000000000000001C00000000000502414306
:10332000434F464653000000000000000000002804
:10333000000000000005034759524F464653000065
:103340000000000000000000340000000000010444
:103350004D5055364B5F46494C54455200000000D5
:103360000040000000000000FF000000000000001E
:10337000000000000000000000000000000000004D
:1033800043616C6962726174696F6E204641494C99
:1033900045440A0043616C6962726174696F6E2012
:1033A0007375636365737366756C0A005363616C50
:1033B000696E673A20252E326620252E326620253A
:1033C0002E32660A004F6666736574733A20252EA6
:1033D000326620252E326620252E32660A00506C79
:1033E0006163652041504D20255320616E6420703B
:1033F0007265737320616E79206B65792E0A006F98
:103400006E20697473204241434B006E6F736520D8
:103410005550006E6F736520444F574E006F6E20FD
:103420006974732052494748542073696465006F7A
:103430006E20697473204C4546542073696465009E
:103440006C6576656C0020002A00496E6974204125
:103450006363656C000A6779726F20646964206E2B
:103460006F7420636F6E76657267653A2064696673
:10347000663D2566206470730A002A00496E6974EF
:10348000204779726F0054696D6564206F757420F0
:1034900077616974696E6720666F722075736572F3
:1034A00020726573706F6E73650004024750535F3E
:1034B0004741494E000000000000000000280000C5
:1034C00000803F01034750535F5553450000000003
:1034D0000000000000002C000000803F040459415F
:1034E000575F5000000000000000000000000020B6
:1034F000009A99993E040552505F50000000000068
:10350000000000000000000024009A99993E010686
:1035100057494E445F4D4158000000000000000034
:10352000002D000000000005085452494D00000025
:10353000000000000000000000003D00000000004E
:1035400001094F5249454E544154494F4E00000025
:103550000000002E0000000000040A434F4D505FA1
:103560004245544100000000000000001C00CDCC8A
:10357000CC3D010B4750535F4D494E5341545300CE
:1035800000000000002F000000C04000FF0000000D
:10359000000000000000000000000000000000002B
:1035A00000000000040050000000000000000000C7
:1035B00000000000000000000000000000040149BD
:1035C00000000000000000000000000000000000FB
:1035D000040000000000040244000000000000009D
:1035E00000000000000000000008000000000002D1
:1035F00003494D4158000000000000000000000099
:1036000000000C000000000000FF000000000000AF
:1036100000000000000000000000000000000000AA
:103620000002004D494E00000000000000000000B4
:10363000000000000A000080894402015452494DF4
:10364000000000000000000000000000000C00006E
:1036500080BB4402024D4158000000000000000001
:103660000000000000000E000080ED440103524500
:1036700056000000000000000000000000000010E4
:10368000000000803F0204445A00000000000000D7
:10369000000000000000000011000000000000FF1A
:1036A000000000000000000000000000000000001A
:1036B0000000000000000008000000000000000002
:1036C00000000000000000000000000021360000A3
:1036D000010146554E4354494F4E00000000000082
:1036E0000000001D000000000000FF0000000000BE
:1036F00000000000000000000000000000000000CA
:103700000000010054524947475F5459504500009A
:1037100000000000000000000000000101445552BC
:103720004154494F4E00000000000000000001001D
:10373000000020410202534552564F5F4F4E000099
:103740000000000000000002000080A244020353B9
:103750004552564F5F4F46460000000000000000F3
:1037600004000080894400FF000000000000000009
:103770000000000000000000000000000000000148
:1037800000454E41424C4500000000000000000092
:1037900000000B000000803F010155534500000070
:1037A00000000000000000000000000A000000000F
:1037B0000004024F4646534554000000000000003C
:1037C00000000000020000000000040352415449C0
:1037D0004F0000000000000000000000000600494B
:1037E0002EFF3F00FF00000000000000000000006E
:1037F00000000000000000000000000004004F4D29
:1038000045474100000000000000000000000000EB
:10381000000000803F04014B5F50000000000000EA
:1038200000000000000000000400CDCCCC3E0402EB
:103830004B5F44000000000000000000000000009A
:103840000008000000000004034B5F490000000076
:10385000000000000000000000000C00000000005C
:103860000204524D41585F55000000000000000066
:103870000000001000000000000205524D41585F9A
:1038800044000000000000000000000012000000E2
:10389000000004064B5F524C4C000000000000008A
:1038A000000000000014000000803F00FF00000046
:1038B0000000000000000000000000000000000008
:1038C0000000000004004F4D45474100000000008B
:1038D0000000000000000000000000803F04014BD9
:1038E0005F50000000000000000000000000000029
:1038F0000400CDCCCC3E04024B5F4400000000002D
:1039000000000000000000000008000000000004AB
:10391000034B5F49000000000000000000000000B1
:1039200000000C00000000000204524D415800004D
:103930000000000000000000000000100000007007
:103940004200FF0000000000000000000000000036
:103950000000000000000000000004004B5F410078
:103960000000000000000000000000000000000057
:1039700000000004014B5F4900000000000000004F
:1039800000000000000004000000000004024B5F83
:1039900044000000000000000000000000000008DB
:1039A000000000000004034B5F524C4C000000007C
:1039B00000000000000000000C000000803F00FF3D
:1039C00000000000000000000000000000000000F7
:1039D00000000000000000327C8900EDD96877000B
:1039E0000000590000000000000000D69FDCA8186D
:1039F00017AA90437327F6B968EDF4DED409FEE602
:103A00001C1C84DDE80B992927D6DF8D210F036468
:103A100018EFEE1EF0B7828200941500F37C0000D0
:103A2000001400988F00007F6A0000000000000072
:103A3000E7B73F3600000000000000AF669ED038B8
:103A40005D00000000EB5D7C000000000000000055
:103A50000000000000000000000000000000000066
:103A6000000000000000000000002AF10F86DBD0FB
:103A7000BC5416131586004E44BD7F6F151590017A
:103A8000EA49B516530000000000000000000000E5
:103A90000000000000000000000000000000000026
:103AA0000000000000000000000000000000000016
:103AB0000000000000000000000000000000000006
:103AC00000000000000000000000000000000000F6
:103AD000CC31AA2C532E0001004D4F44450000006C
:103AE00000000000000000000000360000000000A0
:103AF00005015245545241435400000000000000AB
:103B000000000047000000000005024E45555452D9
:103B1000414C0000000000000000000053000000C5
:103B200000000503434F4E54524F4C00000000006C
:103B300000000000005F0000000000010453544139
:103B4000425F524F4C4C0000000000000000330068
:103B5000000000000105535441425F54494C540099
:103B600000000000000000340000000000010653C7
:103B70005441425F50414E00000000000000000030
:103B8000350000000000010752435F494E5F524F6D
:103B90004C4C000000000000003700000000000254
:103BA00008414E474D494E5F524F4C000000000007
:103BB00000003A0000A08CC50209414E474D415813
:103BC0005F524F4C000000000000003C0000A08C41
:103BD00045010A52435F494E5F54494C540000006E
:103BE00000000000380000000000020B414E474D6D
:103BF000494E5F54494C000000000000003E0000A8
:103C0000A08CC5020C414E474D41585F54494C00B1
:103C1000000000000000400000A08C45010D524350
:103C20005F494E5F50414E00000000000000003927
:103C30000000000000020E414E474D494E5F5041CA
:103C40004E00000000000000420000A08CC5020FE2
:103C5000414E474D41585F50414E0000000000006A
:103C600000440000A08C4501104A535449434B5F67
:103C70005350440000000000000046000000000017
:103C800000FF000000000000000000000000000035
:103C900000000000000000000096918C87827D7873
:103CA000736E69645F5A55504B46413C37322D283C
:103CB000231E19140F0A050004090E13181D2227CC
:103CC0002C31363B40454A4F54595E63686D7277DC
:103CD0007C81868B90959A9FA4A9AEB3AFAAA5A02C
:103CE0009B968F89837E78736E69645F5A55504BBB
:103CF00047423E3935302C27231F1B16120E09056B
:103D00000103070B1014191D22262B2F34393D42B5
:103D1000474C51565B60656B70757B80868C9297C3
:103D20009DA3A9AFB2ACA6A09A948F827C76706B4B
:103D300065605C57524E4A46413D3936322E2A263E
:103D4000221F1B1713100C08040102060A0E12167C
:103D50001A1E22262B2F33383D41464B4F54595EB5
:103D600064696F747A80878D949BA2AAB1AEA69F76
:103D7000979089826F68635E5955514D4946423F1D
:103D80003C3835322E2B2824211E1A1714100D0A08
:103D90000603000306090D1014181C2024282C30DB
:103DA00034393D41464A4F54585D62676D7379809E
:103DB000878F98A2ACB0A59A90867D766F55514DAD
:103DC0004A4744413F3C3A383533312E2B2926238C
:103DD000201D1A1713100D0A070401010306090D0F
:103DE0001013171A1E22262A2E32363A3E42464A0F
:103DF0004E53575B5F64696E757C85909FB2A08D52
:103E00007D7067605A553E3C3A393736343332302C
:103E10002F2E2C2A292724221F1C191613100D0AB5
:103E2000070402000305080A0D1013161A1D2125A8
:103E3000292D3135383C4043464A4D505356595B45
:103E40005E6165696F826D544D4A474442403E2E23
:103E50002E2D2C2C2B2A2A292928272625242321DC
:103E60001F1C1A1714100D0A070401010305070986
:103E70000C0E1013161A1D2124282C3033373A3D0E
:103E800040424447484A4A4B4A48443D301902168A
:103E900021282B2D2E2F2E2E06090C0F1215171947
:103EA0001B1C1B1811040E2231383C3C3C3A38359F
:103EB000322F2B2824201C1915110D09050102068B
:103EC0000A0E1115181C1F222527292A2B2B2926FB
:103ED000211911080004080A0A0A0807040200034D
:103EE0000616181A1C1E20211F1712516063625FEC
:103EF0005D5956524E4A46423E3935312C282420CF
:103F00001B17130E0A060102060A0F13171B1F23A5
:103F1000262A2D313437393C3D3F3F3E3D39352F40
:103F200028211C17151313131416A8ADB2B0ABA695
:103F3000A19C97928D88837E79746F6A65605B56C9
:103F4000514C47423D38332E29241F1A15100B06B9
:103F50000103080D12171C21262B30353A3F444926
:103F60004E53585D62676C71767B80858A8F949919
:103F70009EA3A800000001FFFFE000000000000079
:103F800001FFFFF000000000000001FFFFF800004B
:103F90000000000001FFFFFE00000000000003FF22
:103FA000FFFF00000000000003FFFFFFF000000023
:103FB00000000FFFFFFFFE00000003FFFFFC0000FA
:103FC00007FC00007FFFFFFC000000000000001F56
:103FD000FFFE0000000000241E191512100E0C0B2D
:103FE0000A09090908080807060605040404030469
:103FF0000404000000000000000000002726212328
:10400000252325242722292A2A1C27282B33322737
:1040100025222C3331303700000000000000000062
:104020000080114011407132733433321312113257
:104030001112933413145352310021030406080B58
:104040002D0A090705040241C011C05112535473CF
:1040500012111251527314733231002102040506F9
:1040600007080908060706240302010200012001CF
:104070002011C00111003132137413143312F112E4
:10408000D312510001022325060746442342210092
:1040900001E0A0313213B4331112110011201100CC
:1040A0005233121332112001222485042304020307
:1040B00042410001E0A051121413151315341332BC
:1040C0005140012011521332310001222304050412
:1040D000050423010382612001E011801132135491
:1040E0001514333231402102010031723141022373
:1040F000442302012201220102614001A0118051EA
:104100001214133415143312314001020103020159
:104110002052111220212243042241022102A10037
:1041200001E0201140515374133211402102030267
:104130000302010011121132001141222322210039
:104140004102A18001601160110011323374131219
:1041500011400162030203213112111211400102C8
:104160000102030201000100E121E0A0112012116F
:1041700073343331200162036240121112110011B5
:104180000100010201220001200100E1C001001133
:1041900080110012111312141334522001E2022173
:1041A0002031121100110001002102010001402103
:1041B0000002410001E060114011121113121413AA
:1041C00014133211002122034201022100010011C7
:1041D000001211001120010041600100C1000140E6
:1041E00011200160114051121312131433123100C7
:1041F000014203220102210001401100310011009F
:104200000100010001A0E10001A001801120315254
:104210009312110021C22100214031001120110010
:10422000010001E0E16001E0110011727312310040
:1042300021420301020102202140110011201160DE
:104240000140116001000102210200012001400132
:10425000A051321312533211200102018221002198
:10426000000100110031E000110011602100010285
:10427000010201010021200100016011001152130F
:104280001214135211004182010200010021401159
:1042900000110011A0110031001120812201010044
:1042A0000201002100016011005213121314133295
:1042B000310100020122014201002100010001112F
:1042C0002011001120114071001140010221020152
:1042D000020100210221000100010011001211124F
:1042E0003312341332112001020142012201004134
:1042F00000016011201100110011005112312061E4
:104300000201220200020102812011001211733405
:10431000133211004102018201006100018011008D
:1043200011009132314021420102020062614011CC
:104330005214135433310041820122000102004122
:104340000001609112115251200122010301020269
:1043500000826100513354151433310021020122CF
:1043600003424102A1803192133231004122030203
:10437000010300220322010201401112339533315F
:1043800001002201034203222122010261000111E6
:104390000011521312531231004122032203002351
:1043A00002030201022120321314161517161533C9
:1043B0001120016203020302032201A241401112F3
:1043C00053141314133211010002010203020302F9
:1043D0000200022302032221203214163718171577
:1043E000131211002122030243024301030203823C
:1043F00021201112131415341514321100016223F7
:1044000002030043020342012012131518193A1740
:1044100015131100210203026304E30203020302E5
:1044200001024012131415171516341220212243CD
:10443000020300A3220100111215181C1E1D1916DB
:1044400013110002010302030423040324030443A1
:104450000423040302034220111214151718361501
:1044600013312102030223020350414E49433A20F3
:1044700044617461466C61736820535049446576A9
:104480006963654472697665722073656D617068F1
:104490006F7265206973206E756C6C0050414E49D7
:1044A000433A2044617461466C61736820535049FB
:1044B000446576696365447269766572206E6F74CF
:1044C00020666F756E64004C6F672025752C202068
:1044D000202073746172742025752C202020656E55
:1044E000642025750A000A2575206C6F67730A0021
:1044F0000A4E6F206C6F67730A0A004E756D50612B
:104500006765733A20257520205061676553697A85
:10451000653A2025750A004D616E75666163747594
:104520007265723A20307825303278202020446538
:10453000766963653A203078253034780A004E6F0A
:104540002064617461666C61736820696E73657262
:104550007465640025750A0025752C090044462001
:10456000706167652C206C6F672066696C6520231D
:104570002C206C6F6720706167653A2025752C09C7
:10458000002C2000257300257300257300252E3292
:104590006600252E326600252E326600252E3266F4
:1045A00000256600256C7500256C640025750025C6
:1045B000640025750025640025532C2000554E4BC2
:1045C0004E2C2025750A000400504552494F4400E6
:1045D000000000000000000000001D000000C841B5
:1045E000040144414D50494E4700000000000000C6
:1045F00000000021000000403F00FF00000000001C
:1046000000000000000000000000000000000000AA
:1046100000004572726F723A2041505F48414C5F12
:104620004156523A3A415652416E616C6F67496E3B
:10463000206F7574206F66206368616E6E656C73A1
:104640000D0A00474F494E4720444F574E20464FD2
:10465000522041205245424F4F540D0A0050414EC6
:1046600049433A207363686564756C65723A3A73BE
:10467000797374656D5F696E697469616C697A6577
:10468000642063616C6C65646D6F72652074686131
:104690006E206F6E63650050414E49433A2041568B
:1046A0005253656D6170686F72653A3A74616B65FB
:1046B00020757365642066726F6D20696E7369641E
:1046C000652074696D65722070726F636573730025
:1046D00050414E49433A2053504930207772697413
:1046E0006520636F6C6C6973696F6E0050414E4951
:1046F000433A2053504930207472616E736665727C
:1047000020636F6C6C6973696F6E0000407A10F300
:104710005A00A0724E18090010A5D4E80000E876EF
:1047200048170000E40B54020000CA9A3B00000046
:10473000E1F505000080969800000040420F00005F
:1047400000A08601000000102700000000E8030020
:104750000000006400000000000A000000000001EA
:1047600000000000002C76D888DC674F0823DFC1EA
:10477000DFAE59E1B1B796E5E3E453C63AE65199A5
:104780007696E8E6C28426EB898C9B62ED407C6FCE
:10479000FCEFBC9C9F40F2BAA56FA5F490055A2A85
:1047A000F75C936B6CF9676DC11BFCE0E40D47FE91
:1047B000F520E6B500D0ED902E0300943577050086
:1047C00080841E080000204E0A000000C80C33330D
:1047D00033330F986E12831141EF8D2114893BE61C
:1047E0005516CFFEE6DB18D1844B381BF77C1D90A5
:1047F0001DA4BBE424203284725E228100C9F1240E
:10480000ECA1E53D2700002100240027002A002D0F
:10481000003000330001010000040107010A01001B
:10482000002200250028002B002E00310034000259
:10483000010000050108010B0100002000230026F3
:104840000029002C002F00320000010000030106A7
:104850000109010505050507050808080802020207
:10486000020A0A080804040404010101010101010B
:10487000010303030303030303040707070C0C0CE2
:104880000C0C0C0C0C0202020206060606060606BA
:10489000060B0B0B0B0B0B0B0B050102102020085A
:1048A000081020401020408002010201080402018B
:1048B00001020408102040808040201008040201FA
:1048C0008004020180402010080402010804020153
:1048D00001020408102040800102040810204080DA
:1048E000400000090A02080B0C0D07060304010032
:1048F00000000000000000000000000000000000B8
:104900000000000000000000000000000011100F77
:104910000000000000000000000000000000000097
:1049200000000000000000006E616E00696E66000D
:10493000494E46494E4954594E414ECDCCCC3D0A84
:10494000D7233C17B7D13877CC2B329595E6241F67
:10495000B14F0A000020410000C84200401C462020
:10496000BCBE4CCA1B0E5AAEC59D74000D94E35BD1
:104970000D94BD580D942D710D94076C0D948C728F
:104980000D9443710D94105B0D94E71C0D943971D7
:104990000D94C3350D9469320D94CC1C0D949D7209
:1049A0000D9426700D9466710D9420700D94D57A37
:1049B0000D9423750D941D550D946E770D94156B04
:1049C0000D94CA690D9467350D9445780D940A418C
:1049D0000D9464030D9452760D94FD790D94C35F8C
:1049E0000D94F2650D94EA040D943D100D94B01AE7
:1049F0000D942E1C0D9499570D948F660D94B54C03
:104A00000D9432680D94C9130D948E660D94614B0C
:104A10000D943B170D9494700D944A6E0D94377B52
:104A20000D9445790D948D660D9417780D94CB7186
:104A30000D9451170D9482700D9406510D94F86FDA
:104A40000D94834F0D9455740D94963C0D942374DE
:104A50000D94D9700D94E43C0D94CB670D944B06E6
:104A60000D9450640D947B230D943E710D94285940
:104A70000D940A6E0D944D640D9494550D944B5BFA
:104A80000D94F46A0D948D6D0D9473710D94536EA5
:104A90000D94593C0D94F76A0D9472700D94B66B99
:104AA0000D946E590D9485770D94936E0D94DA5094
:104AB0000D94D04B0D94BD760D94A95A0D94D56AE2
:104AC0000D94E3700D94B2750D94853A0D9429748C
:104AD0000D9480030D9457710D945E220D945271C4
:104AE0000D9494540D9419670D94674B0D94645074
:104AF0000D94484C0D9417030D9476770D94D7764A
:104B00000D94C0530D9482350D941A700D94E65592
:104B10000D94ED700D94B16C0D94D7010D940E3180
:104B20000D9492740D9472750D9413670D948941D0
:104B30000D94F32E0D9464700D9472350D949B5763
:104B40000D947C740D9441520D94F3660D94C95FDD
:104B50000D94FB7A0D94356E0D94C7770D940D77F7
:104B60000D9423420D945D1E0D94E0660D94E76F45
:104B70000D94E3670D94DB030D947C700D94F85B4A
:104B80000D94723B0D94E1520D9492660D94165B58
:104B90000D946C2E0D94D26A0D94B6520D945A2138
:104BA0000D943F030D94FC6F0D94AA7A0D944E0A58
:104BB0000D94FF6A0D94516D0D94CA4F0D945C7065
:104BC0000D94F2700D94FF5A0D94BF6D0D9475669F
:104BD0000D940A770D94D4210D9460170D941A68E2
:104BE0000D946E350D94906D0D9480670D9436582C
:104BF0000D9492580D9419130D94FA580D94AA57C8
:104C00000D94A3720D94FD670D940A130D94FC701E
:104C10000D94555A0D94D1010D94D4710D94056BDA
:104C20000D9461710D9489660D94AE630D940470BA
:104C30000D94662E0D94CF700D94291C0D94C7759C
:104C40000D94821C0D94A0550D94D0720D94401BB0
:104C50000D94BE780D943A760D9468700D94B61A42
:104C60000D9480310D9437100D94B0590D940E7041
:104C70000D94CE6A0D942C700D9437030D94BB4C9B
:104C80000D94D2630D948E540D9435170D94D96AFA
:104C90000D9472130D94C9370D94CE4E0D94F25BA2
:104CA0000D94C4000D94C43B0D940C710D942B27EE
:104CB0000D942C140D944A430D9427790D94E478A7
:104CC0000D94ED660D94ED1C0D949E170D94B60C8D
:104CD0000D9495660D9489530D942D3C0D94D81325
:104CE0000D9441030D9426020D9440780D945F3D80
:104CF0000D945D6C0D94E9560D94405B0D947E7996
:104D00000D944C530D942E070D9444020D940A708B
:104D10000D94E2380D9458700D9467410D9406710E
:104D20000D9448710D94CF6F0D9498640D944016B6
:104D30000D94E0770D9450790D943A160D94793EC8
:104D40000D94CA710D9432350D9479710D94607083
:104D50000D94E7760D945E500D94E1510D9488709A
:104D60000D94B74A0D94117B0D94D64B0D942807E2
:104D70000D94D7710D94095A0D9464220D945D64BD
:104D80000D94D5570D94DD730D94DD5C0D94B366D1
:104D90000D94DB590D945A560D944F700D94C44FD9
:104DA0000D948D1D0D94574B0D9400700D94FF665E
:104DB0000D9485590D94B7700D94214D0D948E70FE
:104DC0000D94104A0D94BB770D94A9670D94B85CAF
:104DD0000D94D0710D946F770D94EF340D94FF3BCB
:104DE0000D94F57A0D94C61C0D944A790D944A766B
:104DF0000D94D46F0D941A720D9486030D94D47291
:104E00000D94424C0D9445060D949B130D94A138BE
:104E10000D943A1B0D948F780D94317B0D94017194
:104E20000D942D670D947F030D94CD750D94201472
:104E30000D94BE000D947D510D94A3710D94C65335
:104E40000D94480A0D9440030D94E8700D94435B53
:104E50000D94B00C0D947B5B0D94623A0D94162664
:104E60000D944F5A0D94E3160D94F5130D94C01B39
:104E70000D9426140D943F1C0D9423760D94BA1BAB
:104E80000D94D6720D94D2720D947D6F0D944C7664
:104E90000D94F0710D94BE6F0D94F9660D94CA6F68
:104EA0000D946C520D94E0500D94C2660D946056B2
:104EB0000D9428240D9464790D94E96C0D944F762B
:104EC0000D94296B0D9402480D94A5780D942D78BE
:104ED0000D94433B0D94B5170D94CF7A0D94F27851
:104EE0000D943D780D94DE700D9449030D945C7122
:104EF0000D94E1030D948B170D9492720D94D526A9
:104F00000D9465580D9440790D946A790D9448720A
:104F10000D94AC7A0D94F06F0D9465630D94D96582
:104F20000D94B9040D94AC750D94A0790D9412589C
:104F30000D94B7390D94A14D0D94AA770D946C7012
:104F40000D9458760D947D4A0D94A9710D94331CDF
:104F50000D94993E0D9487670D9440640D94D47020
:104F60000D94177B0D9476700D94F46F0D94F7707B
:104F70000D94F0040D94EF7B0D94ED570D94037A8E
:104F80000D945B670D94FE310D9453640D94DC71A8
:104F90000D94B5150D944C6A0D944D710D941470CB
:104FA0000D94D0730D943E020D947C350D946B7767
:104FB0000D94D1660D94D5350D94E35C0D94016C80
:104FC0000D94DB350D94BB150D94244E0D944A348D
:104FD0000D94D96F0D94D6480D94F4760D946B71A1
:104FE0000D94A466214C65DD48263427CA27462740
:104FF000E825D62711241FBECFEFD1E2DEBFCDBFFB
:1050000000E00CBF16E0A0E0B2E0E8EEF9E003E05B
:105010000BBF02C007900D92AE36B107D9F71BBE89
:1050200013E1AEE6B6E001C01D92A23DB107E1F783
:105030001FE4C4EFDFE404C02297FE010F94DB8479
:10504000C43ED107C9F70E94D1AE0D94F2840C94EE
:105050000000283008F027E03327DA01990F311DCE
:1050600087FD916000966105710539F432602E5F0D
:105070003D9330E32A95E1F708959F3F30F0803863
:105080007105610509F03C5F3C5F3D93913008F08C
:105090008068911DDF93CF931F930F93FF92EF9240
:1050A000192F987F9695E92F96959695E90FFF27EA
:1050B000EB59F84B99273327EE24FF24A701E7018A
:1050C00005900894079428F4360FE71EF81E491F30
:1050D000511D660F771F881F991F0694A1F7059031
:1050E000079428F4E70EF81E491F561FC11D770FBD
:1050F000881F991F661F0694A1F70590079428F44E
:10510000F80E491F561FC71FD11D880F991F661F14
:10511000771F0694A1F70590079420F4490F561FB6
:10512000C71FD81F990F661F771F881F0694A9F7FE
:1051300084911095177041F0D695C795579547956E
:10514000F794E7941A95C1F7EBE0F7E468941590AB
:10515000159135916591959105907FE27395E118D0
:10516000F10A430B560BC90BD009C0F7E10CF11E35
:10517000431F561FC91FD01D7EF4703311F48A954A
:10518000E6CFE894015030F0080F0AF40027021728
:1051900008F4202F2395022F7A3328F079E37D93AA
:1051A0002A95E9F710C07D932A9589F6069497957C
:1051B0006795379517951794E118F10A430B560B2D
:1051C000C90BD00998F023957E9173957A3308F036
:1051D00070E37C932013B8F77E9170617D9330F07B
:1051E000839571E37D9370E32A95E1F71124EF90A5
:1051F000FF900F911F91CF91DF91992787FD909597
:105200000895FA01AA27283051F1203181F1E8945C
:105210006F936E7F6E5F7F4F8F4F9F4FAF4FB1E0A9
:105220003ED0B4E03CD0670F781F891F9A1FA11DA4
:10523000680F791F8A1F911DA11D6A0F711D811DA5
:10524000911DA11D20D009F468943F912AE0269F6A
:1052500011243019305D3193DEF6CF010895462FC9
:105260004770405D4193B3E00FD0C9F7F6CF462FAA
:105270004F70405D4A3318F0495D31FD4052419313
:1052800002D0A9F7EACFB4E0A695979587957795D0
:105290006795BA95C9F700976105710508959B0157
:1052A000AC010A2E06945795479537952795BA95E0
:1052B000C9F7620F731F841F951FA01D0895A0E3F7
:1052C000B0E0E5E6F9E20D94A284A8E04E0108946E
:1052D000811C911CF401BA2F1192BA95E9F7298328
:1052E0003A834B835C836D837E838F839887CE0163
:1052F0000996FC011192AA95E9F7A986BA86CB8690
:10530000DC86ED86FE860F87188B29813A814B81DA
:105310005C812DA73EA74FA758AB79018A018FEF7B
:105320009FEFA0E0B0E0E822F9220A231B231A0134
:105330004424552429853A854B855C8529A73AA7BD
:105340004BA75CA759016A01A822B922CA22DB2215
:105350003A0188249924C601B501A80197010F9448
:1053600013846DA37EA38FA398A7C401B3010F94E8
:10537000138469A37AA38BA39CA3C601B501A201E0
:1053800091010F9413847B018C01C401B3010F942C
:1053900013845B016C0189A19AA1ABA1BCA18E0D04
:1053A0009F1DA01FB11F89A39AA3ABA3BCA32DA1CE
:1053B0003EA14FA158A5CA01AA27BB2729A13AA1FE
:1053C0004BA15CA1280F391F4A1F5B1F29A33AA3D9
:1053D0004BA35CA32E153F054007510740F480E026
:1053E00090E0A1E0B0E0A80EB91ECA1EDB1E89A1A4
:1053F0009AA1ABA1BCA19D01442755272A0D3B1DB5
:105400004C1D5D1D2D8F3E8F4F8F58A36C01BB240B
:10541000AA248DA19EA1AFA1B8A5A070B070A80EBE
:10542000B91ECA1EDB1EA98EBA8ECB8EDC8E9A8C5C
:105430008B8C7C8C9E8D6F8D78A1FE01719688E09F
:10544000DF011D928A95E9F72D8B9E8B6F8B788FEC
:105450002D853E854F8558896DA57EA58FA598A978
:105460000F9413847B018C012D813E814F815885DF
:1054700069A57AA58BA59CA50F941384E60EF71E4B
:10548000081F191F6D897E898F89988D6E0D7F1D6C
:10549000801F911F6D8B7E8B8F8B988FEE892A2DAD
:1054A000392D482D572D7E2F8F89988DE096E2E17A
:1054B0000D94BE84EF92FF920F93DF93CF93CDB7FD
:1054C000DEB760970FB6F894DEBF0FBECDBFA82F32
:1054D000002309F461C07E010894E11CF11C88E0FE
:1054E000F70111928A95E9F729833A834B835C830C
:1054F0006D837E83AF83988780E2801BE82FFF2730
:10550000E7FDF09549815A816B817C81181684F002
:1055100019861A861B861C86882799278E1B9F0B47
:1055200004C0440F551F661F771F8A95D2F728C005
:10553000202F332727FD3095DB01CA01022E04C03E
:10554000880F991FAA1FBB1F0A94D2F789879A87D1
:10555000AB87BC8704C07695679557954795EA95C4
:10556000D2F78D819E81AF81B88504C0880F991FC5
:10557000AA1FBB1F2A95D2F7482B592B6A2B7B2BCE
:105580004D875E876F87788B29853A854B855C854B
:105590006D857E85AF8598898A2F60960FB6F894C1
:1055A000DEBF0FBECDBFCF91DF910F91FF90EF9087
:1055B00008950F931F93CF93DF93689F8001699F96
:1055C000100D789F100D1124C8010DD0EC0100972B
:1055D00021F060E070E0A80187D1CE01DF91CF918A
:1055E0001F910F910895CF93DF93BC0182309105F5
:1055F00010F462E070E0A091CE13B091CF13ED01F2
:10560000E0E0F0E040E050E021C088819981861719
:10561000970769F48A819B81309719F0938382837D
:1056200004C09093CF138093CE13FE0134C068174B
:10563000790738F44115510519F08417950708F4D6
:10564000AC01FE018A819B819C01E9012097E9F66A
:1056500041155105A9F1CA01861B970B049708F45F
:10566000BA01E0E0F0E02AC08D919C911197841777
:105670009507F9F46417750781F412968D919C9142
:105680001397309719F09383828304C09093CF13BC
:105690008093CE13FD0132964CC0CA01861B970B36
:1056A000FD01E80FF91F6193719302978D939C930D
:1056B00040C0FD01828193819C01D9011097A1F620
:1056C0008091CC139091CD13892B41F48091F002FD
:1056D0009091F1029093CD138093CC134091F202FC
:1056E0005091F3024115510541F44DB75EB78091D9
:1056F000EE029091EF02481B590B2091CC13309190
:10570000CD13CA01821B930B8617970780F0AB015C
:105710004E5F5F4F8417950750F0420F531F509311
:10572000CD134093CC13F9016193719302C0E0E073
:10573000F0E0CF01DF91CF910895CF93DF930097F1
:1057400009F450C0EC0122971B821A82A091CE135B
:10575000B091CF13109709F140E050E0AC17BD07AE
:1057600008F1BB83AA83FE0121913191E20FF31F5F
:10577000AE17BF0779F48D919C911197280F391FAF
:105780002E5F3F4F3983288312968D919C911397FA
:105790009B838A834115510571F4D093CF13C09335
:1057A000CE1320C012968D919C911397AD01009756
:1057B00011F0DC01D3CFFA01D383C283219131915F
:1057C000E20FF31FCE17DF0769F488819981280F54
:1057D000391F2E5F3F4FFA01318320838A819B81DD
:1057E00093838283DF91CF91089566277727EDC059
:1057F0001F93FC0199278827BC01E894119110326E
:10580000E9F3193010F01E30C8F31B3249F01D3295
:1058100041F4689405C0C4D0610F711D811D911DB4
:10582000119110531A30B8F33EF49095809570950D
:1058300061957F4F8F4F9F4F1F910895FB01DC01B2
:1058400002C005900D9241505040D8F70895FB01D9
:10585000DC018D9181341CF08B350CF4805E6591F8
:1058600061341CF06B350CF4605E861B611189F3AA
:10587000990B0895FB01DC018D91059080190110B1
:10588000D9F3990B0895FB01DC014150504030F0F1
:105890008D910590801919F40020B9F7881B990B98
:1058A0000895FB01DC014150504048F005900D92F5
:1058B0000020C9F701C01D9241505040E0F7089503
:1058C000FC010590615070400110D8F780959095CB
:1058D0008E0F9F1F0895FB01DC0102C001900D9205
:1058E00041505040D8F70895DC0101C06D934150FC
:1058F0005040E0F70895FB01DC018D910190801983
:105900000110D9F3990B0895FB01DC01415050407F
:1059100048F001900D920020C9F701C01D9241503E
:105920005040E0F70895FC01615070400190011073
:10593000D8F7809590958E0F9F1F0895009731F4AA
:10594000DA018D919C91009709F40EC0DC01FB01F6
:105950003D912191222319F03217C9F3FACF332355
:1059600031F4DA011D921C92882799270895119726
:10597000AF93BF93FB013D912191321771F4332313
:1059800021F488279927119702C01E921196FA01D7
:10599000A193B0839F918F910895222369F7EACF55
:1059A000592F482F372F262F660F771F881F991FD3
:1059B000660F771F881F991F620F731F841F951F23
:1059C000660F771F881F991F0895A0E0B0E0EBEEE7
:1059D000FCE20D94A884EC015B016115710519F0DE
:1059E000FB0191838083F9908F2D90E00F94EA84DE
:1059F000892BC9F7FDE2FF1621F4F990EE24E39418
:105A000005C02BE2F21609F4F990EE248E01015044
:105A10001040C80160E379E443E050E033D1892BC2
:105A2000F9F48E010E5F1F4FC80163E379E445E08E
:105A300050E028D1892B19F48E01095F1F4FA11462
:105A4000B10419F0F50111830083E0FC04C070E09B
:105A500090E080E813C070E090E080E86FEF07C14D
:105A6000C80168E379E443E050E00CD1892B69F484
:105A7000A114B10429F470E090E080EC6FE7F7C066
:105A80002296F501D183C083F6CF8824992440E083
:105A900050E060E070E0EF2DE053EA30A0F5F2E076
:105AA000EF2A8E2D90E09C0128703070E2FE06C037
:105AB000232B79F50894811C911C2BC0232B19F002
:105AC000089481089108DB01CA0112E0880F991F30
:105AD000AA1FBB1F1A95D1F7480F591F6A1F7B1FBA
