:100000000C94BD200C94EA200C94EA200C94EA2075
:100010000C94EA200C94EA200C94EA200D94FE2C17
:100020000C94EA200C94EA200C94EA200C94EA2028
:100030000C94EA200C94EA200C94EA200D9446419A
:100040000C94EA200C94EA200C94EA200C94EA2008
:100050000C94EA200C94EA200C94EA200D940939BF
:100060000C94EA200D94222E0D94512E0C94EA202B
:100070000C94EA200C94EA200C94EA200C94EA20D8
:100080000C94EA200C94EA200C94EA200C94EA20C8
:100090000D948C2E0D94BB2E0C94EA200D94F1320D
:1000A0000C94EA200D9473410C94EA200C94EA20FD
:1000B0000C94EA200C94EA200D94A0410C94EA20C0
:1000C0000C94EA200C94EA200C94EA200D94F62E6D
:1000D0000D94252F0C94EA200C94EA200C94EA202D
:1000E0000C94EA2062356A3572357A35AB35823543
:1000F0008A35AB35AB35AB3592359A35A235E44C04
:10010000EA4CE84CE44CE64CE84CE84CE64CE64C57
:10011000E64CEA4CEA4CEA4CE64CE64CEA4CEC4C39
:10012000B753AE53A653BF53AE53A153BF53BF53A0
:10013000BF53B753B753B753BF53BF53B7535A5AAD
:10014000715A785A625A6A5A805ACB5AAE5AA65A8B
:100150009E5AB55ABD5AC45A8F5A975AE55AD35A1D
:10016000F55AFB5A025B085B0D5B145BDB79BE79C9
:10017000DB79DB798F79DB79FB788F798F798F79F0
:100180000C795C7977798F798F798C79DB79997AA9
:10019000B07AB47ABE7AC27AC68AC67AC68AC68A63
:1001A000C68ACA7ACE7AD27AEA8AF58AEA8AEA8A4C
:1001B000F58AEA8AEA8AF58AF58AF58AED8AF58A65
:1001C000ED8AF58AF58AED8A71925A9249920C90DD
:1001D000EC929E904891EC92EC92EC92EC92F28F21
:1001E000F28FEC92EC92F28F2DD540D549D566D5A1
:1001F00074D593D5A0D5BFD5C4D5E3D5F4D507D64E
:1002000011D634D647D679D68BD6B8D6D1D600D724
:100210000ED742D755D78FD7A1D71E1F1E1FB01F8D
:100220001E1FFC1EFC1EFC1EFC1EFC1E1E1FFC1EB8
:10023000FC1EFC1EFC1EB01FB01FB01FB01FB01F65
:1002400000200020841FE61ED81F4C20F21F6820CB
:100250003820921F322032209E1E9E1E9E1EBC1EE3
:10026000BC1EBC1E721F0E1F0E1F441FF41F121F48
:10027000FA1E5820E21F12208820A01E541F341F8F
:100280003C203020EC1F381F041F5420A01F281FC3
:10029000BA1EDC1FFE1E52202C204A20CA1E821FBE
:1002A000B81ED41F8A1FA2202E20B41FDC1EBE1F22
:1002B000A81E80209A1F221FE41E1420401F8A209F
:1002C000321F036EDB363D9A9999993DABAAAA2A53
:1002D0003E000000803F084AD73B3BCE016E84BC05
:1002E000BFFDC12F3D6C74319ABD56833DDA3D0090
:1002F000C77F11BED9E4BB4C3E916BAAAABE0000D9
:1003000000803F07634236B79BD8A71A3968561852
:10031000AEBAAB558C1D3CB7CC5763BD6DEDFD75CA
:100320003EF6177231BF000000803F072C7AA5BA55
:100330006CC590DA3B9365FC8BBC53F810FD3C56C2
:1003400092834DBD879D3AB63DCBC9BF5BBE73DA84
:100350000FC93F05A84CCDB2D44EB93836A9020C0E
:1003600050B9918688083CA6AAAA2ABE000000803F
:100370003F08000000BE922449123EABAAAA2ABE42
:10038000CDCCCC4C3E00000080BEABAAAAAA3E0059
:10039000000000BF000000803F0000000000084196
:1003A00078D3BB4387D1133D190E3CC3BD4282AD08
:1003B0002B3E68EC8276BED98FE1A93E4C80EFFFE0
:1003C000BE01C4FF7F3F0000000000020052415701
:1003D0005F53454E5300000000000000000068001D
:1003E0000000803F02014558545F535441540000BF
:1003F000000000000000006A000000803F0202527E
:10040000435F4348414E0000000000000000000030
:100410006C000000803F02035241575F4354524C2E
:100420000000000000000000006E000000803F029D
:1004300004504F534954494F4E0000000000000043
:10044000000070000000803F0205455854524131C1
:1004500000000000000000000000007200000080AA
:100460003F0206455854524132000000000000008F
:100470000000000074000000803F020745585452FD
:100480004133000000000000000000000076000082
:1004900000803F0208504152414D530000000000CF
:1004A00000000000000078000000484200FF00004B
:1004B000000000000000000000000000000000003C
:1004C000000000000002464F524D41545F56455215
:1004D00053494F4E00000000730800000000015314
:1004E000595349445F53575F545950450000000029
:1004F000017508000000000253595349445F5448F5
:1005000049534D4156000000007076080000803FBE
:100510000253595349445F4D59474353000000006B
:10052000000071780800007F430153455249414C57
:10053000305F424155440000000000747A0800001A
:10054000E6420153455249414C335F424155440014
:1005500000000000727B08000064420154454C45D5
:100560004D5F44454C4159000000000000737C0879
:1005700000000000044B46465F50544348434F4D33
:10058000500000000000C87D08EC51383E044B4686
:10059000465F524444524D4958000000000000C9D3
:1005A000810800000040044B46465F5054434832E7
:1005B0005448520000000000CA85080000000004F2
:1005C0004B46465F544852325054434800000000A6
:1005D00000CB89080000000001535449434B5F4D94
:1005E0004958494E470000000000190F09000080DB
:1005F0003F04544B4F46465F5448525F4D494E535B
:100600005044002210090000000004544B4F46469D
:100610005F5448525F4D494E414343002314090043
:10062000000000014C4556454C5F524F4C4C5F4C0E
:10063000494D4954002518090000A040024C414E84
:10064000445F50495443485F43440000000017E2B0
:100650000800000000044C414E445F464C415245A6
:100660005F414C540000001BE40800004040044C73
:10067000414E445F464C4152455F534543000000A4
:100680001CE80800000040014E41565F434F4E54A5
:10069000524F4C4C45520000002891080000803F0A
:1006A00004414C545F4D4958000000000000000018
:1006B00000008392080000803F01414C545F435486
:1006C000524C5F414C4700000000007C960800003F
:1006D000000002414C545F4F464653455400000011
:1006E0000000000020C6080000000001434D445FE8
:1006F000544F54414C0000000000000000DD9808F9
:100700000000000001434D445F494E44455800003D
:10071000000000000000DE990800000000025750B1
:100720005F5241444955530000000000000000DFC3
:100730009A080000A0410257505F4C4F495445525F
:100740005F52414400000000E09C0800002042018C
:1007500046454E43455F414354494F4E000000001B
:1007600000E19E08000000000146454E43455F54ED
:100770004F54414C000000000000E29F08000000C0
:10078000000146454E43455F4348414E4E454C00AF
:10079000000000E3A008000000000246454E43456B
:1007A0005F4D494E414C540000000000E4A1080098
:1007B0000000000246454E43455F4D4158414C54B0
:1007C0000000000000E5A3080000000002415253B1
:1007D00050445F4642575F4D494E0000000078A5E7
:1007E000080000C0400241525350445F4642575FE8
:1007F0004D41580000000079A70800000C42014656
:100800004257425F454C45565F5245560000000036
:100810007BA9080000000001464257425F434C4953
:100820004D425F5241544500007DAA08000000403F
:10083000015448525F4D494E000000000000000086
:100840000000B5AB0800000000015448525F4D4164
:100850005800000000000000000000B6AC080000D6
:100860007042015448525F534C4557524154450021
:1008700000000000BDAD0800000000015448525FB8
:10088000535550505F4D414E0000000000BEAE0871
:1008900000000000015448525F504153535F5354CD
:1008A000414200000000BFAF0800000000015448B2
:1008B000525F4641494C534146450000000000B795
:1008C000B00800000000025448525F46535F564192
:1008D0004C55450000000000B8B10800806D44018F
:1008E0005452494D5F5448524F54544C45000000F7
:1008F00000B9B30800000C42015448524F54544C04
:10090000455F4E554447450000001FB40800008075
:100910003F0146535F53484F52545F4143544E008A
:10092000000000BAB508000000000146535F4C4FBC
:100930004E475F4143544E0000000000BBB6080024
:100940000000000146535F4743535F454E41424C10
:100950000000000000BCB7080000000001464C5435
:100960004D4F44455F434800000000000000D2B8EE
:10097000080000004101464C544D4F4445310000F1
:1009800000000000000000D3B9080000304101461B
:100990004C544D4F44453200000000000000000060
:1009A000D4BA080000304101464C544D4F44453301
:1009B000000000000000000000D5BB08000000405F
:1009C00001464C544D4F44453400000000000000E7
:1009D0000000D6BC080000004001464C544D4F4476
:1009E0004535000000000000000000D7BD080000F1
:1009F000000001464C544D4F4445360000000000B5
:100A000000000000D8BE0800000000014348375F26
:100A10004F5054494F4E00000000000000D9BF085D
:100A20000000803F024C494D5F524F4C4C5F4344A5
:100A300000000000000098C00800C05A45024C4960
:100A40004D5F50495443485F4D41580000000099A4
:100A5000C2080080BB44024C494D5F504954434892
:100A60005F4D494E000000009AC4080000FAC4011E
:100A70005452494D5F4155544F00000000000000A2
:100A8000000ACD080000803F01454C45564F4E5F9F
:100A90004D4958494E47000000000DCE08000000A7
:100AA0000001454C45564F4E5F5245564552534501
:100AB0000000000ED1080000000001454C45564FD3
:100AC0004E5F4348315F5245560000000FD2080088
:100AD00000000001454C45564F4E5F4348325F527F
:100AE000455600000010D308000000000156544194
:100AF000494C5F4F5554505554000000000027CF1B
:100B0000080000000001454C45564F4E5F4F5554BC
:100B10005055540000000029D00800000000025386
:100B200059535F4E554D5F52455345545300000095
:100B300002D40800000000024C4F475F4249544D68
:100B400041534B0000000000000BD60800C0ED44EC
:100B5000015253545F5357495443485F4348000080
:100B6000000015D80800000000015253545F4D49A1
:100B70005353494F4E5F43480000001AD908000004
:100B80000000035452494D5F41525350445F434D5E
:100B9000000000009BDA0800009644045343414CD7
:100BA000494E475F535045454400000000CC8D0836
:100BB00000007041034D494E5F474E445350445F1F
:100BC000434D000000009EEC0800007A440254529D
:100BD000494D5F50495443485F4344000000000CB6
:100BE000F0080000000003414C545F484F4C445F44
:100BF00052544C00000000009CDE0800401C4602DD
:100C0000414C545F484F4C445F464257434D0000AF
:100C1000007AF20800000000014D41475F454E4157
:100C2000424C450000000000000084F508000080F0
:100C30003F01464C41505F315F504552434E540096
:100C400000000011F7080000000001464C41505F11
:100C5000315F5350454544000000000012F8080081
:100C600000000001464C41505F325F504552434EF8
:100C7000540000000013F9080000000001464C4138
:100C8000505F325F5350454544000000000014FAA5
:100C9000080000000001424154545F4D4F4E49543A
:100CA0004F52000000000086F608000000000456C5
:100CB0004F4C545F444956494445520000000000DF
:100CC00087FB080AD7634004414D505F5045525F8F
:100CD000564F4C54000000000088FF085C8FDA413A
:100CE00004414D505F4F46465345540000000000FC
:100CF00000008F03090000000003424154545F4389
:100D000041504143495459000000008A070900003E
:100D1000DC4401424154545F564F4C545F50494E9D
:100D200000000000A80C090000803F01424154541B
:100D30005F435552525F50494E00000000A90D0913
:100D40000000004001525353495F50494E000000DB
:100D5000000000000000A70B09000080BF01494E01
:100D6000564552544544464C545F43480000009D4C
:100D70000E09000000000148494C5F534552564F90
:100D8000530000000000000026F4080000000001ED
:100D900054505F434C5F4E4156000000000000007D
:100DA00000A2CB080000803F0154505F41575052D1
:100DB0005F4E4156000000000000A3CC08000080F8
:100DC0003F0254505F41474C5F52454600000000CF
:100DD000000000A0C908000000000154505F4D53FE
:100DE0004C5F52454600000000000000A1C808000A
:100DF00000000008474E445F0000000000000000B3
:100E000000000000008DA70BF62300000843414DB1
:100E10005F00000000000000000000000000A411BE
:100E20000C192C0000085243315F00000000000044
:100E300000000000000000AA1909382B0000085229
:100E400043325F00000000000000000000000000CE
:100E5000AB3609382B0000085243335F0000000016
:100E6000000000000000000000AC5309382B000017
:100E7000085243345F000000000000000000000042
:100E80000000AD7009382B0000085243355F0000A8
:100E90000000000000000000000000AE8D09CE2B15
:100EA0000000085243365F00000000000000000010
:100EB00000000000AFAB09CE2B0000085243375FA3
:100EC00000000000000000000000000000B0C909A0
:100ED000CE2B0000085243385F00000000000000E5
:100EE000000000000000B1E709CE2B0000085243CB
:100EF000395F00000000000000000000000000B2A8
:100F0000050ACE2B000008524331305F000000007C
:100F10000000000000000000B3230ACE2B000008F0
:100F2000524331315F00000000000000000000006B
:100F300000B4410ACE2B00000841525350325054A5
:100F400043485F00000000000000F32F0BBB2A00A5
:100F50000008454E524759325448525F0000000085
:100F6000000000F54D0BBB2A000008414C543250E4
:100F70005443485F0000000000000000F66B0BBB0C
:100F80002A000008574845454C53544545525F00D8
:100F90000000000000F7890BBB2A000008524C4CEF
:100FA000325352565F000000000000000000F15F65
:100FB0000ABB2A00000850544348325352565F007F
:100FC00000000000000000F27D0ABB2A0000085962
:100FD00057325352565F000000000000000000002E
:100FE000F49B0ABB2A000008434F4D504153535F06
:100FF000000000000000000000851B0C20270000FE
:10100000085352305F0000000000000000000000A4
:1010100000006EF30CCB030000085352335F000056
:1010200000000000000000000000006F7B0DCB03FB
:10103000000008494E535F0000000000000000005F
:1010400000000000212606012800000841485253F4
:101050005F0000000000000000000000008C75062A
:10106000C12900000841525350445F0000000000B5
:101070000000000000008EF407962C0000084E418E
:10108000564C315F0000000000000000000000EB43
:10109000030E80390000084D4E545F000000000030
:1010A0000000000000000000A50808EE2F0000006E
:1010B0000000000000000000000000000000000030
:1010C0000000000000000000736574757000726518
:1010D0007365740000000000000000009E4672610D
:1010E00064696F0000000000000000003A616D6F4D
:1010F000646573000000000000000000AF606C65D4
:1011000076656C0000000000000000009B6E6163CB
:1011100063656C0000000000000000002246636F61
:101120006D7061737300000000000000A5456465E8
:10113000636C696E6174696F6E0000009345626153
:10114000747465727900000000000000F443736855
:101150006F7700000000000000000000324573655A
:1011600074000000000000000000000026446572CA
:10117000617365000000000000000000EB32417266
:101180006475506C616E652056322E37332D787041
:10119000312075706461746564206279204A4C4E18
:1011A000006C6F6773000000000000000000003555
:1011B0002E7365747570000000000000000000D1FF
:1011C000437465737400000000000000000000AE6E
:1011D000437265626F6F74000000000000000048F9
:1011E0003468656C700000000000000000000029F9
:1011F00034746573740070776D00000000000000A7
:10120000000000002E60726164696F000000000041
:10121000000000005D68706173737468727500008F
:10122000000000002D436661696C73616665000013
:1012300000000000FB5E626174746572790000005A
:1012400000000000A86772656C6179000000000072
:10125000000000008740776179706F696E747300D9
:10126000000000008E3F786265650000000000000D
:10127000000000009B36656564756D70000000001D
:1012800000000000A83C6D6F646573776974636843
:1012900000000000433E6770730000000000000083
:1012A000000000009D3D696E73000000000000001A
:1012B00000000000DE37636F6D7061737300000023
:1012C00000000000263A6C6F6767696E67000000D7
:1012D00000000000F836736176696E67206F6666FD
:1012E0007365747300636F6D70617373206E6F74D8
:1012F000206865616C7468790048656164696E672F
:101300003A20256C642C2058595A3A2025642C2008
:1013100025642C2025642C0958595A6F66663A209A
:1013200025362E32662C2025362E32662C20253688
:101330002E32660A00436F6D7061737320696E69A7
:101340007469616C69736174696F6E206661696C40
:1013500065642100436F6D706173733A20006162B0
:101360006C65640A0064697300656E004D616720F6
:101370006F6666736574733A2025342E34662C20AC
:1013800025342E34662C2025342E34660A004D6117
:1013900067204465636C696E6174696F6E3A2025DD
:1013A000342E34660A003F3F0048494C00484D4304
:1013B0003538343300484D43353838334C00436FAB
:1013C0006D706173733A20002D0048697420456E7A
:1013D00074657220746F20657869742E0A0A007231
:1013E0003A2534642020703A2534642020793A2547
:1013F00033642020673D2825352E31662025352E83
:1014000031662025352E3166292020613D2825357D
:101410002E31662025352E31662025352E31662960
:101420000A002E004C61743A20256C642C204C6F0D
:101430006E20256C642C20416C743A20256C646D00
:101440002C2023736174733A2025640A00506F7353
:101450006974696F6E2025640A00436F6E74726F41
:101460006C20434820002025303278002530347825
:101470003A00426567696E205842656520582D43E1
:1014800054552052616E676520616E64205253533B
:101490004920546573743A0A004C6F697465722070
:1014A0007261646975733A2025640A0A0048697498
:1014B000207261646975733A2025640A00256420EE
:1014C000776179706F696E74730A00486F6C64207D
:1014D000616C746974756465206F662025646D0A9B
:1014E00000486F6C642063757272656E7420616C65
:1014F0007469747564650A00636F6D6D616E642054
:10150000233A2025642069643A2564206F70746949
:101510006F6E733A25642070313A25642070323A38
:10152000256C642070333A256C642070343A256C45
:1015300064200A0052656C6179206F66660A005269
:10154000656C6179206F6E0A004E6F7420656E6164
:10155000626C65640A00563A2025342E34662C20CD
:10156000413A2025342E34662C206D41683A2025DE
:10157000342E34660A00563A2025342E34660A008A
:101580004D5347204653204F4646202575004D5366
:1015900047204653204F4E202575005472696767D7
:1015A00065726564204155544F2078616363656CB2
:1015B0003D252E3166004C4F532063617573656481
:1015C000206E6F206368616E676520696E204150F0
:1015D0004D2E0A005448524F54544C452046414920
:1015E0004C53414645204143544956415445443AA1
:1015F0002025642C2000434F4E54524F4C204D4F19
:101600004445204348414E4745443A2000544852FF
:101610004F54544C45204348414E4745442025648F
:10162000200A00556E706C75672062617474657273
:10163000792C207468726F74746C6520696E206EEA
:1016400065757472616C2C207475726E206F66669D
:1016500020726164696F2E0A004D6F6465282575DC
:1016600029004C6F697465720052544C0041555406
:101670004F004642575F42004642575F4100547256
:1016800061696E696E670053746162696C697A653D
:1016900000436972636C65004D616E75616C004357
:1016A000483A002C00494E20313A20256409323A4C
:1016B00020256409333A20256409343A2025640939
:1016C000353A20256409363A20256409373A202521
:1016D0006409383A2025640A00494E3A09313A2013
:1016E000256409323A20256409333A2025640934F7
:1016F0003A20256409353A20256409363A202564C4
:1017000009373A20256409383A2025640A00436FD6
:101710006D6D616E64733A0A20206C6F67732020D0
:101720002020202020206C6F672072656164626138
:10173000636B2F7365747570206D6F64650A20206C
:1017400073657475702020202020202073657475C7
:1017500070206D6F64650A202074657374202020EA
:10176000202020202074657374206D6F64650A202A
:10177000207265626F6F74202020202020726562C5
:101780006F6F7420746F20666C69676874206D6F6A
:1017900064650A0A0054657374204D6F64650A0A13
:1017A000005365747570204D6F64650A0A494D5089
:1017B0004F5254414E543A20696620796F75206823
:1017C000617665206E6F742070726576696F7573CF
:1017D0006C792073657420746869732073797374ED
:1017E000656D2075702C20757365207468650A27F7
:1017F00072657365742720636F6D6D616E6420740C
:101800006F20696E697469616C697A6520746865B6
:1018100020454550524F4D20746F2073656E73699B
:10182000626C652064656661756C742076616C75A8
:1018300065730A616E64207468656E207468652043
:1018400027726164696F2720636F6D6D616E64201C
:10185000746F20636F6E66696775726520666F725C
:1018600020796F757220726164696F2E0A0A000A0E
:10187000547970652027592720616E642068697447
:1018800020456E74657220746F20657261736520E7
:10189000616C6C20776179706F696E7420616E6421
:1018A00020706172616D6574657220646174612C71
:1018B00020616E79206F74686572206B6579207481
:1018C0006F2061626F72743A2000646F6E650A0067
:1018D0000A45726173696E6720454550524F4D0A43
:1018E0000043616E6E6F7420736574207061726165
:1018F0006D65746572206F6620747970652025644B
:101900002E0A0056616C7565206F7574206F662015
:1019100072616E676520666F722074797065204908
:101920004E5431360A0056616C7565206F7574200F
:101930006F662072616E676520666F7220747970C1
:101940006520494E54380A00506172616D206E6FF7
:101950007420666F756E643A2025730A00496E76AE
:10196000616C696420636F6D6D616E642E205573C8
:101970006167653A20736574203C6E616D653E2039
:101980003C76616C75653E0A00506172616D6574EC
:101990006572206E6F7420666F756E643A2027251D
:1019A00073270A000A4F7074696F6E733A20332DE3
:1019B00034004D6F6E69746F72696E6720766F6C5C
:1019C000747320616E642063757272656E74004D6D
:1019D0006F6E69746F72696E6720626174742076CD
:1019E0006F6C74730042617474206D6F6E69746FF4
:1019F00072696E672064697361626C65640042613C
:101A00007474204D6F696E746F720A000A4F70749F
:101A1000696F6E733A5B6F6E2C6F66662C726573BE
:101A200065745D0A007265736574006F66660043D5
:101A30006F6D7061737320696E697469616C69732D
:101A40006174696F6E206661696C656421006F6EF8
:101A500000496E697469616C6973696E67206779A2
:101A6000726F7300494E530A004779726F206F6698
:101A700066736574733A2025342E32662C20253423
:101A80002E32662C2025342E32660A0041636365AF
:101A90006C206F6666736574733A2025342E326647
:101AA0002C2025342E32662C2025342E32660973E4
:101AB00063616C653A2025342E32662C2025342E45
:101AC00032662C2025342E32660A004E4F20616982
:101AD00072737065656400426567696E6E696E67F2
:101AE00020494E532063616C6962726174696F6E44
:101AF0003B20646F206E6F74206D6F766520706C74
:101B0000616E65005761726D696E67207570204166
:101B100044432E2E2E0057616974696E6720666FEC
:101B2000722066697273742048494C5F5354415463
:101B300045206D6573736167650044656D6F205363
:101B40006572766F7321006261726F6D6574657284
:101B50002063616C6962726174696F6E20636F6D7E
:101B6000706C6574650043616C6962726174696E62
:101B700067206261726F6D65746572007A65726F5D
:101B80002061697273706565642063616C6962725B
:101B900061746564000A4D6F766520524320746F4E
:101BA00067676C652073776974636820746F20655C
:101BB00061636820706F736974696F6E20746F2041
:101BC000656469742C206D6F76652061696C65723F
:101BD0006F6E20737469636B20746F2073656C651E
:101BE0006374206D6F6465732E00506F73202564DD
:101BF0003A2000466C69676874206D6F6465730AEB
:101C0000000A53617665642053657474696E677366
:101C10000A0A000A4D6F766520616C6C20636F6E56
:101C200074726F6C7320746F2065616368206578CF
:101C30007472656D652E2048697420456E746572F6
:101C400020746F20736176653A200A000A4E6F2077
:101C5000726164696F3B20436865636B20636F6EDC
:101C60006E6563746F72732E000A0A526164696F45
:101C70002053657475703A0A00526164696F0A00F6
:101C80004348383A202564207C202564207C202588
:101C9000640A004348373A202564207C20256420CC
:101CA0007C2025640A004348363A202564207C20A5
:101CB0002564207C2025640A004348353A202564A9
:101CC000207C202564207C2025640A004348343A87
:101CD000202564207C202564207C2025640A004384
:101CE00048333A202564207C202564207C2025640C
:101CF0000A004348323A202564207C202564207C59
:101D00002025640A004348313A202564207C2025A0
:101D100064207C2025640A000A464143544F5259EE
:101D200020524553455420636F6D706C6574652077
:101D30002D20706C65617365207265736574204138
:101D4000504D20746F20636F6E74696E7565000A64
:101D5000547970652027592720616E642068697462
:101D600020456E74657220746F20706572666F72A4
:101D70006D20666163746F72792072657365742C6F
:101D800020616E79206F74686572206B65792074AC
:101D90006F2061626F72743A2000526563656976E4
:101DA00065642052657175657374202D206A756DA8
:101DB0007020746F20636F6D6D616E6420232569E0
:101DC0000043616E6E6F74206368616E6765207496
:101DD0006F206E6F6E2D4E617620636D64202575C9
:101DE0000052656365697665642052657175657337
:101DF00074202D207265736574206D697373696F2B
:101E00006E00283229204E6F6E2D4E617620636F52
:101E10006D6D616E64204944207570646174656401
:101E200020746F20232569206964783D2575004E54
:101E30006F6E2D4E617620636F6D6D616E6420490B
:101E400044207570646174656420746F2023256973
:101E5000206964783D2575006F7574206F66206376
:101E60006F6D6D616E647321004E617620636F6DDE
:101E70006D616E6420696E6465782075706461744C
:101E8000656420746F202325690052657475726E35
:101E9000696E6720746F20486F6D650045786563D3
:101EA0007574696E67206E617620636F6D6D616E0B
:101EB0006420494420232569005265736574746960
:101EC0006E6720707265765F575000457865637560
:101ED00074696E6720636F6D6D616E642049442084
:101EE00023256900444F5F5345545F524F49206E8C
:101EF0006F7420737570706F7274656400457865D7
:101F0000637574696E6720636F6D6D616E642049DF
:101F100044202325690073657474696E6720636FBC
:101F20006D6D616E6420696E6465783A2025690084
:101F30004A756D7020746F2057502025752E204AE9
:101F4000756D7073206C6566743A20256400536B60
:101F5000697070696E6720696E76616C6964206A69
:101F6000756D7020746F202569004A756D7073203F
:101F70006C6566743A2030202D20736B697070692F
:101F80006E6700536574207468726F74746C65209A
:101F90002575005365742067726F756E6473706584
:101FA00065642025750053657420616972737065DE
:101FB0006564202575206D2F730067707320616C38
:101FC000743A20256C7500696E697420686F6D65C0
:101FD000006261642066656E636520706F696E746F
:101FE000006261642066656E636520706F696E745F
:101FF0000066656E63696E67206D75737420626537
:102000002064697361626C656400666C69676874FA
:1020100020706C616E207265636569766564006628
:102020006C6967687420706C616E2075706461748F
:10203000652072656A656374656400556E6B6E6FCA
:10204000776E20706172616D6574657220252E3126
:10205000367300556E6B6E6F776E20706172616DB6
:102060006574657220696E64657820256400636F0D
:102070006D6D616E642072656365697665643A2092
:1020800000666C69676874206D6F6465203D20256B
:1020900075004661696C73616665202D2053686F19
:1020A0007274206576656E74206F6E2C2000466118
:1020B000696C73616665202D2053686F72742065AA
:1020C00076656E74206F66660067656F2D66656E57
:1020D0006365207472696767657265640067656F20
:1020E0002D66656E6365204F4B0067656F2D6665D5
:1020F0006E6365207365747570206572726F72000F
:1021000067656F2D66656E6365206C6F61646564DD
:10211000007665726966795F6E61763A20496E76FF
:10212000616C6964206F72206E6F206375727265D6
:102130006E74204E617620636D6400486F6C646934
:102140006E6720636F7572736520256C64004C6147
:102150006E6420436F6D706C657465202D20486F30
:102160006C6420636F7572736520256C6400506128
:102170007373656420576179706F696E74202325CD
:102180006920646973742025756D00526561636808
:10219000656420576179706F696E7420232569200A
:1021A000646973742025756D0052656163686564A8
:1021B00020576179706F696E7420232569206469E6
:1021C00073742025756D007665726966795F6E613E
:1021D000763A204C4F49544552206F7262697473AD
:1021E00020636F6D706C65746500766572696679E1
:1021F0005F6E61763A204C4F495445522074696DA8
:102200006520636F6D706C6574650052656163680D
:10221000656420686F6D65007665726966795F63D5
:102220006F6E6469746F6E3A20496E76616C696492
:10223000206F72206E6F2063757272656E7420431A
:102240006F6E646974696F6E20636D6400666C699B
:10225000676874206D6F6465203D202575004661B8
:10226000696C73616665202D204C6F6E6720657602
:10227000656E74206F6E2C2000496E76616C696407
:102280002053455249414C335F42415544000A5066
:102290007265737320454E54455220332074696D26
:1022A000657320746F20737461727420696E746535
:1022B000726163746976652073657475700A004392
:1022C0006F6D7061737320696E697469616C697395
:1022D0006174696F6E206661696C656421000A0A29
:1022E000496E69742041726475506C616E65205648
:1022F000322E37332D7870312075706461746564C7
:10230000206279204A4C4E0A0A4672656520524185
:102310004D3A2025750A006C6F61645F616C6C201A
:10232000746F6F6B20256C7575730A00646F6E6532
:102330002E004669726D77617265206368616E6711
:10234000653A2065726173696E6720454550524F4A
:102350004D2E2E2E0A000A0A2052656164792074DF
:102360006F20464C592E003C737461727475705F17
:1023700067726F756E643E2047524F554E4420532E
:102380005441525400496E697469616C6973696E95
:10239000672041504D2E2E2E00202025530A004349
:1023A0006F6D6D616E64733A00496E76616C69643D
:1023B00020636F6D6D616E642C20747970652027C9
:1023C00068656C702700657869740068656C7000DA
:1023D00025535D200025733A2025660A0025733AAF
:1023E00020256C640A0025733A2025640A002573B1
:1023F0003A2025640A0004024142535F505245537B
:102400005300000000000000000C00000000000469
:102410000354454D50000000000000000000000083
:10242000000008000000000000FF000000000000A5
:10243000000000000000000000000000000000009C
:102440000050414E49433A2041505F4261726F3A19
:102450003A7265616420756E737563636573736644
:10246000756C20666F72206D6F7265207468616E86
:10247000203530306D7320696E2041505F426172AB
:102480006F3A3A63616C696272617465205B335DB7
:102490000D0A0050414E49433A2041505F4261725B
:1024A0006F3A3A7265616420756E73756363657324
:1024B0007366756C20666F72206D6F72652074682C
:1024C000616E203530306D7320696E2041505F425F
:1024D00061726F3A3A63616C696272617465205B24
:1024E000325D0D0A0050414E49433A2041505F424F
:1024F00061726F3A3A7265616420756E73756363D9
:1025000065737366756C20666F72206D6F726520DF
:102510007468616E203530306D7320696E204150D3
:102520005F4261726F3A3A63616C696272617465AD
:10253000205B315D0D0A0050414E49433A20415025
:102540005F4261726F5F4D533536313120746F6F6A
:102550006B206D6F7265207468616E203130303091
:102560006D7320746F20696E697469616C697A6536
:102570000050414E49433A2041505F4261726F5FC3
:102580004D53353631313A206661696C656420748B
:102590006F2074616B652073657269616C2073656F
:1025A0006D6170686F726520666F7220696E697404
:1025B0000050414E49433A2041505F4261726F5F83
:1025C0004D53353631313A204E554C4C207365729F
:1025D00069616C206472697665720050414E4943AE
:1025E0003A206661696C656420746F2074616B6564
:1025F000205F6932635F73656D203130302074690C
:102600006D657320696E206120726F772C20696E72
:102610002041505F4261726F5F4D53353631313A20
:102620003A5F7570646174650050414E49433A20C9
:1026300041505F4261726F5F4D53353631312064D6
:102640006964206E6F74206765742076616C6964BC
:10265000204932432073656D617068726F65210097
:1026600050414E49433A206661696C656420746F3D
:102670002074616B65205F7370695F73656D2031D5
:1026800030302074696D657320696E206120726F2F
:10269000772C20696E2041505F4261726F5F4D530D
:1026A000353631313A3A5F75706461746500504176
:1026B0004E49433A2041505F4261726F5F4D53353E
:1026C00036313120646964206E6F74206765742030
:1026D00076616C6964205350492073656D61706840
:1026E000726F65210050414E49433A2041505F428C
:1026F00061726F5F4D533536313120646964206EED
:102700006F74206765742076616C6964205350494A
:10271000206465766963652064726976657221005C
:1027200005014F46530000000000000000000000BB
:1027300000000011000000000004024445430000B6
:102740000000000000000000000000001D0000006C
:10275000000001034C4541524E0000000000000003
:1027600000000000000F000000803F0104555345A9
:102770000000000000000000000000000000210038
:102780000000803F01054155544F4445430000007F
:102790000000000000000022000000803F01064D04
:1027A0004F544354000000000000000000000000EF
:1027B0009D000000000005074D4F54000000000080
:1027C0000000000000000000009E0000000000016A
:1027D000084F5249454E5400000000000000000020
:1027E000000010000000000000FF000000000000DA
:1027F00000000000000000000000000000000000D9
:1028000000020050524F445543545F4944000000B9
:10281000000000001A00000000000501414343537E
:1028200043414C000000000000000000001C0000BC
:1028300000000005024143434F464653000000009C
:1028400000000000000028000000000005034759B8
:10285000524F4646530000000000000000000034C4
:10286000000000000001044D5055364B5F46494CB6
:10287000544552000000000040000000000000FF2E
:102880000000000000000000000000000000000048
:102890000000000000000043616C696272617469AD
:1028A0006F6E204641494C45440A0043616C6962A1
:1028B000726174696F6E2073756363657373667597
:1028C0006C0A005363616C696E673A20252E32668C
:1028D00020252E326620252E32660A004F6666734A
:1028E0006574733A20252E326620252E3266202507
:1028F0002E32660A00506C6163652041504D2025E0
:102900005320616E6420707265737320616E79204C
:102910006B65792E0A006F6E206974732042414303
:102920004B006E6F7365205550006E6F73652044C9
:102930004F574E006F6E20697473205249474854B8
:102940002073696465006F6E20697473204C45467E
:10295000542073696465006C6576656C0020002AFC
:1029600000496E697420416363656C000A6779727F
:102970006F20646964206E6F7420636F6E76657279
:1029800067653A20646966663D2566206470730A4F
:10299000002A00496E6974204779726F0054696D8E
:1029A0006564206F75742077616974696E6720664D
:1029B0006F72207573657220726573706F6E7365C8
:1029C0000004024750535F4741494E000000000099
:1029D0000000000028000000803F01034750535FC3
:1029E000555345000000000000000000002C0000CE
:1029F00000803F04045941575F5000000000000070
:102A000000000000000020009A99993E04055250F1
:102A10005F500000000000000000000000000024E3
:102A2000009A99993E010657494E445F4D4158001E
:102A300000000000000000002D000000000005085C
:102A40005452494D0000000000000000000000004A
:102A5000003D000000000001094F5249454E54411D
:102A600054494F4E0000000000002E0000000000FE
:102A7000040A434F4D505F4245544100000000009E
:102A80000000001C00CDCCCC3D010B4750535F4DE6
:102A9000494E534154530000000000002F00000035
:102AA000C04000FF00000000000000000000000027
:102AB00000000000000000000000000400500000C2
:102AC0000000000000000000000000000000000006
:102AD00000000000040149000000000000000000A8
:102AE0000000000000000004000000000004024498
:102AF00000000000000000000000000000000000D6
:102B00000800000000000203494D41580000000089
:102B10000000000000000000000C000000000000A9
:102B2000FF000000000000000000000000000000A6
:102B3000000000000000000002004D494E000000AF
:102B400000000000000000000000000A0000808972
:102B50004402015452494D000000000000000000F2
:102B6000000000000C000080BB4402024D415800F0
:102B7000000000000000000000000000000E000047
:102B800080ED4401035245560000000000000000A3
:102B900000000000000010000000803F0204445AC2
:102BA0000000000000000000000000000000001114
:102BB000000000000000FF00000000000000000016
:102BC00000000000000000000000000000000800FD
:102BD00000000000000000000000000000000000F5
:102BE000000000382B0000010146554E4354494F68
:102BF0004E0000000000000000001D00000000006A
:102C000000FF0000000000000000000000000000C5
:102C10000000000000000000000100545249474736
:102C20005F54595045000000000000000000000003
:102C3000000001014455524154494F4E000000002C
:102C40000000000000010000002041020253455234
:102C5000564F5F4F4E0000000000000000000200D1
:102C60000080A2440203534552564F5F4F46460030
:102C70000000000000000004000080894400FF0004
:102C80000000000000000000000000000000000044
:102C90000000000000000100454E41424C4500008C
:102CA0000000000000000000000B000000803F0159
:102CB0000155534500000000000000000000000026
:102CC00000000A000000000004024F46465345542D
:102CD00000000000000000000000000200000000F2
:102CE000000403524154494F00000000000000005E
:102CF000000000000600492EFF3F00FF000000001A
:102D000000000000000000000000000000000000C3
:102D100000000004004F4D45474100000000000046
:102D200000000000000000000000803F04014B5F35
:102D3000500000000000000000000000000000043F
:102D400000CDCCCC3E04024B5F44000000000000EC
:102D50000000000000000000080000000000040364
:102D60004B5F490000000000000000000000000070
:102D7000000C00000000000204524D41585F550055
:102D80000000000000000000000010000000000033
:102D90000205524D41585F44000000000000000051
:102DA00000000012000000000004064B5F524C4C73
:102DB00000000000000000000000000014000000FF
:102DC000803F00FF00000000000000000000000045
:102DD000000000000000000000000004004F4D450E
:102DE000474100000000000000000000000000005B
:102DF0000000803F04014B5F500000000000000015
:102E0000000000000000000400CDCCCC3E04024BCA
:102E10005F4400000000000000000000000000000F
:102E200008000000000004034B5F490000000000A0
:102E30000000000000000000000C00000000000284
:102E400004524D4158000000000000000000000046
:102E5000000010000000704200FF000000000000B1
:102E60000000000000000000000000000000000062
:102E70000004004B5F410000000000000000000063
:102E80000000000000000000000004014B5F49004A
:102E9000000000000000000000000000000400002E
:102EA00000000004024B5F4400000000000000002E
:102EB00000000000000008000000000004034B5F59
:102EC000524C4C0000000000000000000000000C0C
:102ED000000000803F00FF00000000000000000034
:102EE0000000000000000000000000000000327C34
:102EF0008900EDD96877000000590000000000004B
:102F00000000D69FDCA81817AA90437327F6B9686B
:102F1000EDF4DED409FEE61C1C84DDE80B992927BC
:102F2000D6DF8D210F036418EFEE1EF0B78282000A
:102F3000941500F37C0000001400988F00007F6A55
:102F400000000000000000E7B73F3600000000006E
:102F50000000AF669ED0385D00000000EB5D7C0095
:102F60000000000000000000000000000000000061
:102F70000000000000000000000000000000000051
:102F8000002AF10F86DBD0BC5416131586004E4480
:102F9000BD7F6F15159001EA49B51653000000007A
:102FA0000000000000000000000000000000000021
:102FB0000000000000000000000000000000000011
:102FC0000000000000000000000000000000000001
:102FD00000000000000000000000000000000000F1
:102FE00000000000000000CC31AA2C532E0001008C
:102FF0004D4F4445000000000000000000000000AC
:10300000003600000000000501524554524143546F
:103010000000000000000000000047000000000069
:1030200005024E45555452414C000000000000007E
:103030000000005300000000000503434F4E5452AF
:103040004F4C000000000000000000005F00000086
:1030500000000104535441425F524F4C4C000000A9
:10306000000000000033000000000001055354413F
:10307000425F54494C54000000000000000034003E
:10308000000000000106535441425F50414E0000D1
:1030900000000000000000350000000000010752A1
:1030A000435F494E5F524F4C4C000000000000004F
:1030B0003700000000000208414E474D494E5F5264
:1030C0004F4C000000000000003A0000A08CC50238
:1030D00009414E474D41585F524F4C0000000000DF
:1030E00000003C0000A08C45010A52435F494E5F3E
:1030F00054494C540000000000000038000000005B
:1031000000020B414E474D494E5F54494C000000B0
:10311000000000003E0000A08CC5020C414E474D4F
:1031200041585F54494C000000000000004000007E
:10313000A08C45010D52435F494E5F50414E000047
:10314000000000000000390000000000020E414EA7
:10315000474D494E5F50414E0000000000000042C4
:103160000000A08CC5020F414E474D41585F5041B1
:103170004E00000000000000440000A08C4501103B
:103180004A535449434B5F53504400000000000031
:103190000046000000000000FF00000000000000EA
:1031A000000000000000000000000000000000001F
:1031B00096918C87827D78736E69645F5A55504B07
:1031C00046413C37322D28231E19140F0A050004EE
:1031D000090E13181D22272C31363B40454A4F5407
:1031E000595E63686D72777C81868B90959A9FA4F7
:1031F000A9AEB3AFAAA5A09B968F89837E78736E84
:1032000069645F5A55504B47423E3935302C27236D
:103210001F1B16120E09050103070B1014191D229E
:10322000262B2F34393D42474C51565B60656B70FD
:10323000757B80868C92979DA3A9AFB2ACA6A09A0D
:10324000948F827C76706B65605C57524E4A464123
:103250003D3936322E2A26221F1B1713100C080464
:103260000102060A0E12161A1E22262B2F33383D93
:1032700041464B4F54595E64696F747A80878D94D0
:103280009BA2AAB1AEA69F979089826F68635E5990
:1032900055514D4946423F3C3835322E2B2824218A
:1032A0001E1A1714100D0A0603000306090D101448
:1032B000181C2024282C3034393D41464A4F54589C
:1032C0005D62676D737980878F98A2ACB0A59A9084
:1032D000867D766F55514D4A4744413F3C3A3835DB
:1032E00033312E2B292623201D1A1713100D0A0700
:1032F0000401010306090D1013171A1E22262A2E97
:1033000032363A3E42464A4E53575B5F64696E75A9
:103310007C85909FB2A08D7D7067605A553E3C3A87
:10332000393736343332302F2E2C2A292724221FC6
:103330001C191613100D0A070402000305080A0DD4
:103340001013161A1D2125292D3135383C404346CE
:103350004A4D505356595B5E6165696F826D544D9D
:103360004A474442403E2E2E2D2C2C2B2A2A292916
:10337000282726252423211F1C1A1714100D0A079D
:10338000040101030507090C0E1013161A1D212450
:10339000282C3033373A3D40424447484A4A4B4A4A
:1033A00048443D3019021621282B2D2E2F2E2E0693
:1033B000090C0F121517191B1C1B1811040E2231B2
:1033C000383C3C3C3A3835322F2B2824201C191528
:1033D000110D09050102060A0E1115181C1F2225E0
:1033E00027292A2B2B2926211911080004080A0A4B
:1033F0000A0807040200030616181A1C1E20211FC3
:103400001712516063625F5D5956524E4A46423E02
:103410003935312C2824201B17130E0A0601020609
:103420000A0F13171B1F23262A2D313437393C3D31
:103430003F3F3E3D39352F28211C17151313131418
:1034400016A8ADB2B0ABA6A19C97928D88837E7969
:10345000746F6A65605B56514C47423D38332E2984
:10346000241F1A15100B060103080D12171C212624
:103470002B30353A3F44494E53585D62676C717644
:103480007B80858A8F94999EA3A800000001FFFF8E
:10349000E000000000000001FFFFF000000000005D
:1034A0000001FFFFF800000000000001FFFFFE0028
:1034B000000000000003FFFFFF0000000000000309
:1034C000FFFFFFF000000000000FFFFFFFFE000005
:1034D0000003FFFFFC000007FC00007FFFFFFC0073
:1034E0000000000000001FFFFE0000000000241E7E
:1034F000191512100E0C0B0A09090908080807060D
:103500000605040404030404040000000000000095
:1035100000000027262123252325242722292A2AC3
:103520001C27282B33322725222C3331303700003B
:103530000000000000000000801140114071327353
:103540003433321312113211129334131453523193
:103550000021030406080B2D0A090705040241C0D7
:1035600011C0511253547312111251527314733209
:10357000310021020405060708090806070624038E
:10358000020102000120012011C00111003132139B
:103590007413143312F112D31251000102232506C1
:1035A0000746442342210001E0A0313213B4331115
:1035B0001211001120110052331213321120012276
:1035C0002485042304020342410001E0A0511214A7
:1035D0001315131534133251400120115213323197
:1035E0000001222304050405042301038261200154
:1035F000E01180113213541514333231402102018D
:1036000000317231410223442302012201220102CE
:10361000614001A01180511214133415143312317A
:103620004001020103020120521112202122430411
:103630002241022102A10001E020114051537413E4
:103640003211402102030203020100111211320063
:10365000114122232221004102A180016011601149
:10366000001132337413121140016203020321313D
:10367000121112114001020102030201000100E1D6
:1036800021E0A01120121173343331200162036252
:10369000401211121100110100010201220001204B
:1036A0000100E1C001001180110012111312141366
:1036B00034522001E20221203112110011000100D8
:1036C000210201000140210002410001E06011409F
:1036D0001112111312141314133211002122034278
:1036E000010221000100110012110011200100410E
:1036F000600100C10001401120016011405112130E
:10370000121314331231000142032201022100017D
:10371000401100310011000100010001A0E1000191
:10372000A00180112031529312110021C2210021E9
:1037300040310011201100010001E0E16001E011C1
:103740000011727312310021420301020102202193
:10375000401100112011600140116001000102219F
:1037600002000120014001A05132131253321120F6
:1037700001020182210021000100110031E000114D
:10378000001160210001020102010100212001005D
:1037900001601100115213121413521100418201E1
:1037A0000200010021401100110011A011003100A0
:1037B000112081220101000201002100016011009D
:1037C000521312131413323101000201220142017B
:1037D0000021000100011120110011201140710091
:1037E0001140010221020102010021022100010019
:1037F0000100110012111233123413321120010290
:10380000014201220100410001601120110011005C
:1038100011005112312061020122020002010281D5
:103820002011001211733413321100410201820180
:1038300000610001801100110091323140214201EC
:10384000020200626140115214135433310041826C
:103850000122000102004100016091121152512029
:103860000122010301020200826100513354151448
:103870003331002102012203424102A1803192131F
:10388000323100412203020103002203220102011E
:1038900040111233953331010022010342032221EA
:1038A0002201026100011100115213125312310062
:1038B00041220322030023020302010221203213CA
:1038C00014161517161533112001620302030203A3
:1038D0002201A2414011125314131413321101009A
:1038E000020102030203020200022302032221203A
:1038F0003214163718171513121100212203024330
:1039000002430103020382212011121314153415FE
:10391000143211000162230203004302034201201A
:1039200012131518193A1715131100210203026317
:1039300004E30203020302010240121314151715D7
:1039400016341220212243020300A3220100111287
:1039500015181C1E1D191613110002010302030481
:103960002304032403044304230403020342201119
:1039700012141517183615133121020302230203FE
:103980000400504552494F44000000000000000070
:103990000000001D000000C841040144414D504991
:1039A0004E47000000000000000000002100000061
:1039B000403F00FF00000000000000000000000089
:1039C00000000000000000000000004572726F72ED
:1039D0003A2041505F48414C5F4156523A3A415675
:1039E00052416E616C6F67496E206F7574206F660F
:1039F000206368616E6E656C730D0A00474F494E17
:103A00004720444F574E20464F52204120524542B6
:103A10004F4F540D0A0050414E49433A207363689A
:103A20006564756C65723A3A73797374656D5F6934
:103A30006E697469616C697A65642063616C6C6538
:103A4000646D6F7265207468616E206F6E636500CF
:103A500050414E49433A2041565253656D6170685A
:103A60006F72653A3A74616B6520757365642066A0
:103A7000726F6D20696E736964652074696D65721B
:103A80002070726F636573730050414E49433A2052
:103A90005350493020777269746520636F6C6C698C
:103AA00073696F6E0050414E49433A20535049307C
:103AB000207472616E7366657220636F6C6C6973DB
:103AC000696F6E0000407A10F35A00A0724E180918
:103AD0000010A5D4E80000E87648170000E40B5475
:103AE000020000CA9A3B000000E1F5050000809644
:103AF0009800000040420F000000A0860100000076
:103B0000102700000000E80300000000640000002F
:103B100000000A00000000000100000000002C76F8
:103B2000D888DC674F0823DFC1DFAE59E1B1B79613
:103B3000E5E3E453C63AE651997696E8E6C2842670
:103B4000EB898C9B62ED407C6FFCEFBC9C9F40F24C
:103B5000BAA56FA5F490055A2AF75C936B6CF967C8
:103B60006DC11BFCE0E40D47FEF520E6B500D0ED8D
:103B7000902E0300943577050080841E08000020F5
:103B80004E0A000000C80C333333330F986E128393
:103B90001141EF8D2114893BE65516CFFEE6DB1867
:103BA000D1844B381BF77C1D901DA4BBE42420322C
:103BB00084725E228100C9F124ECA1E53D2700005A
:103BC0002100240027002A002D00300033000101CD
:103BD0000000040107010A0100002200250028005E
:103BE0002B002E0031003400020100000501080105
:103BF0000B01000020002300260029002C002F00CC
:103C00003200000100000301060109010505050558
:103C1000070508080808020202020A0A0808040444
:103C20000404010101010101010103030303030372
:103C30000303040707070C0C0C0C0C0C0C0C020201
:103C4000020206060606060606060B0B0B0B0B0BFE
:103C50000B0B050102102020080810204010204006
:103C60008002010201080402010102040810204040
:103C7000808040201008040201800402018040205E
:103C80001008040201080402010102040810204087
:103C9000800102040810204080400000090A020848
:103CA0000B0C0D07060304010000000000000000DB
:103CB0000000000000000000000000000000000004
:103CC00000000000000011100F00000000000000C4
:103CD00000000000000000000000000000000000E4
:103CE000006E616E00696E6600494E46494E495449
:103CF000594E414ECDCCCC3D0AD7233C17B7D138D5
:103D000077CC2B329595E6241FB14F0A0000204155
:103D10000000C84200401C4620BCBE4CCA1B0E5AC4
:103D2000AEC59D740D94EF390D94CF200D94AE3730
:103D30000D9493250D9457350D94D8370D949F35D8
:103D40000D94F1350D94A12C0D94C23B0D94523875
:103D50000D9406370D94F5400D9437370D94523D70
:103D60000D9484320D94D83C0D9463330D94BC3281
:103D70000D94B0360D9455360D94A4350D94720CF7
:103D80000D94742C0D94C61F0D94343F0D945C3625
:103D90000D9498380D94A6360D94B02C0D94D940FE
:103DA0000D94220C0D94DF400D9467370D94823BE7
:103DB0000D94EE080D94C8210D94FC360D943A1A1A
:103DC0000D94C43D0D9456360D941A370D94EF1290
:103DD0000D9499250D9435290D94F8350D94693875
:103DE0000D94FC300D94C9360D94452C0D94E13F93
:103DF0000D9458380D94CE350D94620C0D945036B8
:103E00000D94C83E0D94E92C0D9436360D94C32CB8
:103E10000D9430320D9459090D942B2D0D94A93524
:103E20000D94B90E0D94CA350D94BC3B0D94213EF2
:103E30000D94733E0D94D2300D94953C0D94570C17
:103E40000D944A3C0D9415370D94FB3C0D94792D3F
:103E50000D9444360D94EA2D0D94243F0D94293E83
:103E60000D94E73F0D9429370D94EC350D943E34B5
:103E70000D9432360D94BD2C0D9496390D94922CE0
:103E80000D94F9360D947F360D94C0350D948F3C0A
:103E90000D9431370D942E3F0D94B32D0D94F036C3
:103EA0000D949A380D944B210D94E6350D945211D2
:103EB0000D9490400D949B2D0D9489370D94623F85
:103EC0000D9489310D945A3C0D94C92C0D947511A3
:103ED0000D94D63E0D947E290D945C3C0D9469158D
:103EE0000D94FE070D9497350D9433340D94843F53
:103EF0000D949C380D94DF0B0D94E32C0D94682ADF
:103F00000D94E53C0D94AB360D9462120D94603324
:103F10000D94C2210D94BA360D94533D0D948E40EC
:103F20000D94693D0D944F140D949A2F0D94C73044
:103F30000D9410210D9410370D94B7350D94832CEA
:103F40000D9440360D945F3C0D945D2C0D948E3D88
:103F50000D9489150D947E340D946C0C0D94953749
:103F60000D945E0C0D945C050D94C4360D94613770
:103F70000D94592C0D94B3400D9479180D9401377C
:103F80000D9413190D94B3220D948E370D94B30C28
:103F90000D94D8300D94FB400D949F3D0D94423A02
:103FA0000D94D3410D94D43C0D94B5360D94102A44
:103FB0000D94B4120D944E3F0D944A360D94C50CD9
:103FC0000D94893E0D94D8350D94E6200D94571824
:103FD0000D945A3D0D94AD220D942E360D948837D4
:103FE0000D9415410D9449130D94C4350D94D63C90
:103FF0000D94DD3B0D9463380D941B210D94AB3D66
:104000000D9433120D94A1300D94D20F0D94333CC6
:104010000D94A02F0D94CF360D94F21E0D94483FB1
:104020000D941B3A0D94DC350D941F370D948E358D
:104030000D9470080D94AC300D94333B0D94B32166
:104040000D94232A0D9456050D94CF2C0D9496387B
:104050000D94A8300D94043D0D949C360D94BF36FC
:104060000D9428360D949A350D941D2A0D94DA314D
:104070000D94D4130D94E3050D9424360D94502D16
:104080000D94243E0D94A92B0D9413210D945E2CB8
:104090000D94FE3C0D94A1360D941D130D94622CCD
:1040A0000D94CB0C0D9497360D943C360D94F2354F
:1040B0000D94D2350D94E8300D941B360D943A0BC7
:1040C0000D94FA170D942D2A0D9488220D94D73B48
:1040D0000D9486130D940E380D94FB3D0D94693AA2
:1040E0000D941E340D94CA300D941B410D94113E55
:1040F0000D94CD2D0D94A3390D94E6330D942433F6
:104100000D940B370D945F2C0D94623C0D94A23EE0
:104110000D94E0350D9424370D94B9400D940B3F68
:104120000D94572D0D94FD2C0D9492370D94D43190
:104130000D94A5300D94C22B0D94E0200D94923374
:104140000D94202A0D94C8360D94022E0D94E93951
:104150000D94910F0D9420300D94A2290D949A374F
:104160000D94A7100D94293F0D94652C19472EBE70
:10417000B6EBAA206C1FA21F241F11241FBECFEF75
:10418000D1E2DEBFCDBF00E00CBF15E0A0E0B2E0A1
:10419000E4EEF6E902E00BBF02C007900D92AA3CE4
:1041A000B107D9F71BBE12E1AAECB5E001C01D9220
:1041B000A33BB107E1F711E4CAE7D1E404C02297B9
:1041C000FE010F94594BCC36D107C9F70E9478A64F
:1041D0000D94704B0C940000283008F027E0332732
:1041E000DA01990F311D87FD916000966105710517
:1041F00039F432602E5F3D9330E32A95E1F708955C
:104200009F3F30F080387105610509F03C5F3C5FED
:104210003D93913008F08068911DDF93CF931F93F9
:104220000F93FF92EF92192F987F9695E92F96950D
:104230009695E90FFF27E25EF44C99273327EE2489
:10424000FF24A701E70105900894079428F4360F8E
:10425000E71EF81E491F511D660F771F881F991F03
:104260000694A1F70590079428F4E70EF81E491F5D
:10427000561FC11D770F881F991F661F0694A1F74F
:104280000590079428F4F80E491F561FC71FD11D2B
:10429000880F991F661F771F0694A1F70590079452
:1042A00020F4490F561FC71FD81F990F661F771F8D
:1042B000881F0694A9F784911095177041F0D69540
:1042C000C79557954795F794E7941A95C1F7E4EC8D
:1042D000FAE3689415901591359165919591059043
:1042E0007FE27395E118F10A430B560BC90BD00915
:1042F000C0F7E10CF11E431F561FC91FD01D7EF4ED
:10430000703311F48A95E6CFE894015030F0080F2D
:104310000AF40027021708F4202F2395022F7A337E
:1043200028F079E37D932A95E9F710C07D932A95CB
:1043300089F6069497956795379517951794E11820
:10434000F10A430B560BC90BD00998F023957E91C7
:1043500073957A3308F070E37C932013B8F77E915D
:1043600070617D9330F0839571E37D9370E32A95BE
:10437000E1F71124EF90FF900F911F91CF91DF9102
:10438000992787FD90950895FA01AA27283051F1C1
:10439000203181F1E8946F936E7F6E5F7F4F8F4F76
:1043A0009F4FAF4FB1E03ED0B4E03CD0670F781FD5
:1043B000891F9A1FA11D680F791F8A1F911DA11DBA
:1043C0006A0F711D811D911DA11D20D009F46894F3
:1043D0003F912AE0269F11243019305D3193DEF69B
:1043E000CF010895462F4770405D4193B3E00FD051
:1043F000C9F7F6CF462F4F70405D4A3318F0495D3C
:1044000031FD4052419302D0A9F7EACFB4E0A6951E
:104410009795879577956795BA95C9F70097610540
:10442000710508959B01AC010A2E06945795479596
:1044300037952795BA95C9F7620F731F841F951F8B
:10444000A01D0895A0E3B0E0E8E2F2E20D94204B55
:10445000A8E04E010894811C911CF401BA2F11921E
:10446000BA95E9F729833A834B835C836D837E8316
:104470008F839887CE010996FC011192AA95E9F7DE
:10448000A986BA86CB86DC86ED86FE860F87188BDA
:1044900029813A814B815C812DA73EA74FA758AB5C
:1044A00079018A018FEF9FEFA0E0B0E0E822F922C6
:1044B0000A231B231A014424552429853A854B8558
:1044C0005C8529A73AA74BA75CA759016A01A822D6
:1044D000B922CA22DB223A0188249924C601B501F7
:1044E000A80197010F94914A6DA37EA38FA398A76B
:1044F000C401B3010F94914A69A37AA38BA39CA32F
:10450000C601B501A20191010F94914A7B018C0172
:10451000C401B3010F94914A5B016C0189A19AA176
:10452000ABA1BCA18E0D9F1DA01FB11F89A39AA393
:10453000ABA3BCA32DA13EA14FA158A5CA01AA2798
:10454000BB2729A13AA14BA15CA1280F391F4A1F03
:104550005B1F29A33AA34BA35CA32E153F0540077D
:10456000510740F480E090E0A1E0B0E0A80EB91E51
:10457000CA1EDB1E89A19AA1ABA1BCA19D01442743
:1045800055272A0D3B1D4C1D5D1D2D8F3E8F4F8FD6
:1045900058A36C01BB24AA248DA19EA1AFA1B8A5EC
:1045A000A070B070A80EB91ECA1EDB1EA98EBA8EEE
:1045B000CB8EDC8E9A8C8B8C7C8C9E8D6F8D78A1B3
:1045C000FE01719688E0DF011D928A95E9F72D8B37
:1045D0009E8B6F8B788F2D853E854F8558896DA575
:1045E0007EA58FA598A90F94914A7B018C012D81FE
:1045F0003E814F81588569A57AA58BA59CA50F940E
:10460000914AE60EF71E081F191F6D897E898F8952
:10461000988D6E0D7F1D801F911F6D8B7E8B8F8BF4
:10462000988FEE892A2D392D482D572D7E2F8F8971
:10463000988DE096E2E10D943C4BEF92FF920F9340
:10464000DF93CF93CDB7DEB760970FB6F894DEBF98
:104650000FBECDBFA82F002309F461C07E010894CE
:10466000E11CF11C88E0F70111928A95E9F7298392
:104670003A834B835C836D837E83AF83988780E22C
:10468000801BE82FFF27E7FDF09549815A816B8158
:104690007C81181684F019861A861B861C8688274A
:1046A00099278E1B9F0B04C0440F551F661F771F51
:1046B0008A95D2F728C0202F332727FD3095DB01BC
:1046C000CA01022E04C0880F991FAA1FBB1F0A949B
:1046D000D2F789879A87AB87BC8704C076956795A0
:1046E00057954795EA95D2F78D819E81AF81B88520
:1046F00004C0880F991FAA1FBB1F2A95D2F7482B09
:10470000592B6A2B7B2B4D875E876F87788B29858A
:104710003A854B855C856D857E85AF8598898A2F26
:1047200060960FB6F894DEBF0FBECDBFCF91DF917C
:104730000F91FF90EF900895AEE5B0E0E2EAF3E26A
:104740000D94204BA8E04E010894811C911CF401AB
:104750006A2E11926A94E9F729833A834B835C832A
:104760006D837E838F839887CE010996FC01119219
:10477000AA95E9F7A986BA86CB86DC86ED86FE8601
:104780000F87188B29843A844B845C84ED84FE84E3
:104790000F85188969807A808B809C806DA67EA6A3
:1047A0008FA698AA6D807E808F809884E114F10492
:1047B0000105110509F0B3C3621473048404950460
:1047C00008F03DC100E0201600E0300601E04006A0
:1047D00000E0500688F41FEF211631044104510413
:1047E00039F030F048E0E42EF12C012D112D18C0E5
:1047F000EE24FF24870114C020E0221620E03206B8
:1048000020E0420621E0520630F038E1E32EF12CA0
:10481000012D112D05C020E1E22EF12C012D112DCD
:10482000D201C1010E2C04C0B695A7959795879526
:104830000A94D2F78B5F9D4FDC012C9180E290E0CF
:10484000A0E0B0E08E199F09A00BB10B7C018D0197
:10485000E21AF10801091109E114F1040105110539
:10486000A1F10E2C04C0220C331C441C551C0A94CC
:10487000D2F7A40193010E2C04C0220F331F441F52
:10488000551F0A94D2F780E290E08E199F096DA41B
:104890007EA48FA498A804C0969487947794679474
:1048A0008A95D2F7622A732A842A952AADA4BEA4D7
:1048B000CFA4D8A804C0AA0CBB1CCC1CDD1CEA9455
:1048C000D2F7ADA6BEA6CFA6D8AA6201EE24FF24D9
:1048D000CDAADEAAEFAAF8AE920181012070307055
:1048E00009AF1AAF2BAF3CAFC401B301A7019601CA
:1048F0000F94E34A7B018C01C401B3012DA93EA9A9
:104900004FA958AD0F94E34AC901DA013C014D01AA
:10491000C401B30129AD3AAD4BAD5CAD0F94914AE2
:104920009B01AC018701FF24EE24ADA4BEA4CFA45B
:10493000D8A8C601AA27BB2757016801A82AB92A07
:10494000CA2ADB2AA216B306C406D506E0F40894E8
:104950006108710881089108A20CB31CC41CD51C05
:10496000A214B304C404D50470F0A216B306C4069E
:10497000D50648F408946108710881089108A20CD2
:10498000B31CC41CD51CA21AB30AC40AD50AC6019A
:10499000B5012DA93EA94FA958AD0F94E34A7B015B
:1049A0008C01C601B5012DA93EA94FA958AD0F94A0
:1049B000E34AC901DA015C016D01C601B50129AD07
:1049C0003AAD4BAD5CAD0F94914A9B01AC018701B0
:1049D000FF24EE248DA59EA5AFA5B8A9A070B07048
:1049E000E82AF92A0A2B1B2BE216F30604071507FF
:1049F000C0F40894A108B108C108D108E20CF31C66
:104A0000041D151DE214F3040405150550F0E2160B
:104A1000F3060407150728F40894A108B108C10893
:104A2000D108D3019927882786017501E82AF92A38
:104A30000A2B1B2BE9AAFAAA0BAB1CABCFC421147F
:104A400031044104510471F461E070E080E090E0D1
:104A500020E030E040E050E00F94E34AC901DA0181
:104A60001C012D0100E0201600E0300601E04006A8
:104A700000E0500688F41FEF211631044104510470
:104A800031F028F048E050E060E070E017C040E00E
:104A900050E060E070E012C020E0221620E0320614
:104AA00020E0420621E0520628F048E150E060E0B4
:104AB00070E004C040E150E060E070E0D201C1016C
:104AC000042E04C0B695A795979587950A94D2F7BA
:104AD0008B5F9D4FDC012C91E0E2EE2EF12C012D3D
:104AE000112DD801C701841B950BA60BB70B821B98
:104AF0009109A109B1090097A105B10561F464010B
:104B00005301A218B308C408D50831E0632E712CF4
:104B1000812C912C1EC16F968FAF6F97082E04C009
:104B2000220C331C441C551C0A94D2F7EE2DE81BB2
:104B3000640153010E2E04C0D694C794B794A79471
:104B40000A94D2F7A40193016F960FAC6F9704C03B
:104B5000220F331F441F551F0A94D2F76DA47EA461
:104B60008FA498A80E2E04C0969487947794679487
:104B70000A94D2F784017301E22AF32A042B152B3D
:104B8000E9A6FAA60BA71CA7320188249924920152
:104B900081012070307021960CAF1DAF2EAF3FAF5A
:104BA0002197C601B501A40193010F94E34A7B014B
:104BB0008C01C601B501A40193010F94E34AC90118
:104BC000DA0125968CAF9DAFAEAFBFAF2597BC0184
:104BD000CD0121962CAD3DAD4EAD5FAD21970F942B
:104BE000914A9B01AC018701FF24EE24A9A4BAA439
:104BF000CBA4DCA4C601AA27BB275C016D01AE28AB
:104C0000BF28C02AD12AA216B306C406D50660F56D
:104C100025966CAD7DAD8EAD9FAD259761507040F2
:104C20008040904025966CAF7DAF8EAF9FAF2597AB
:104C3000A20CB31CC41CD51CA214B304C404D50418
:104C400098F0A216B306C406D50670F46150704001
:104C50008040904025966CAF7DAF8EAF9FAF25977B
:104C6000A20CB31CC41CD51CA21AB30AC40AD50AD0
:104C7000C601B501A40193010F94E34A7B018C01A5
:104C8000C601B501A40193010F94E34AC901DA01F9
:104C90003C014D01C401B30121962CAD3DAD4EAD9B
:104CA0005FAD21970F94914A9B01AC018701FF24CE
:104CB000EE2489A59AA5ABA5BCA5A070B07057013C
:104CC0006801A82AB92ACA2ADB2AA216B306C40692
:104CD000D506E0F408946108710881089108A20CD7
:104CE000B31CC41CD51CA214B304C404D50470F0B6
:104CF000A216B306C406D50648F4089461087108E4
:104D000081089108A20CB31CC41CD51C8DA59EA5BE
:104D1000AFA5B8A96F960FAC6F9704C0880F991F05
:104D2000AA1FBB1F0A94D2F78DA79EA7AFA7B8AB47
:104D3000A21AB30AC40AD50A2596ECACFDAC0EAD96
:104D40001FAD2597D70199278827682A792A8A2AAB
:104D50009B2A82012227332729960CAF1DAF2EAF45
:104D60003FAF2997A2019101407050702D962CAF52
:104D70003DAF4EAF5FAF2D97C601B50129962CAD63
:104D80003DAD4EAD5FAD29970F94E34A7B018C0199
:104D9000C601B50129962CAD3DAD4EAD5FAD29974D
:104DA0000F94E34AC901DA0161968CAF9DAFAEAFB3
:104DB000BFAF6197BC01CD012D962CAD3DAD4EAD81
:104DC0005FAD2D970F94914A9B01AC018701FF24A1
:104DD000EE24ADA4BEA4CFA4D8A8C601AA27BB27A1
:104DE00057016801A82AB92ACA2ADB2AA216B306E3
:104DF000C406D50660F561966CAD7DAD8EAD9FADF8
:104E00006197615070408040904061966CAF7DAF7B
:104E10008EAF9FAF6197A20CB31CC41CD51CA2140B
:104E2000B304C404D50498F0A216B306C406D5068C
:104E300070F4615070408040904061966CAF7DAFDF
:104E40008EAF9FAF6197A20CB31CC41CD51CA21AD5
:104E5000B30AC40AD50AC601B50129962CAD3DADE9
:104E60004EAD5FAD29970F94E34A7B018C01C601DB
:104E7000B50129962CAD3DAD4EAD5FAD29970F9490
:104E8000E34AC901DA015C016D01C601B5012D9645
:104E90002CAD3DAD4EAD5FAD2D970F94914A9B016A
:104EA000AC018701FF24EE248DA59EA5AFA5B8A96E
:104EB000A070B070E82AF92A0A2B1B2BE216F30621
:104EC00004071507C0F40894A108B108C108D10867
:104ED000E20CF31C041D151DE214F3040405150572
:104EE00050F0E216F3060407150728F40894A10809
:104EF000B108C108D1086196ECACFDAC0EAD1FAD98
:104F00006197D7019927882796018501082B192BCE
:104F10002A2B3B2B09AB1AAB2BAB3CAB62C26E14FA
:104F20007F048006910608F451C220E0E21620E0DA
:104F3000F20621E0020720E0120788F43FEFE316B3
:104F4000F1040105110531F028F048E050E060E07F
:104F500070E017C040E050E060E070E012C040E058
:104F6000E41640E0F40640E0040741E0140728F0AE
:104F700048E150E060E070E004C040E150E060E0F3
:104F800070E0D801C701042E04C0B695A795979587
:104F900087950A94D2F78B5F9D4FDC012C9130E20C
:104FA000A32EB12CC12CD12CD601C501841B950B8D
:104FB000A60BB70B821B9109A109B1090097A105A6
:104FC000B10589F4E614F7040805190508F4F2C1DF
:104FD0006DA47EA48FA498A862147304840495041D
:104FE00008F0E8C1F3C16E968FAF6E97082E04C02B
:104FF000EE0CFF1C001F111F0A94D2F76A2D681BCC
:10500000D201C101062E04C0B695A7959795879544
:105010000A94D2F75C016D01AE28BF28C02AD12ABC
:10502000ADA2BEA2CFA2D8A6720161016E960FAC4E
:105030006E9704C0CC0CDD1CEE1CFF1C0A94D2F74A
:10504000C9A2DAA2EBA2FCA264015301062E04C09D
:10505000D694C794B794A7940A94D2F7D401C30105
:105060006E960FAC6E9704C0880F991FAA1FBB1FC6
:105070000A94D2F7EDA4FEA40FA518A904C01695B2
:105080000795F794E7946A95D2F737014801682AA3
:10509000792A8A2A9B2A6D8E7E8E8F8E98A2EDA009
:1050A000FEA00FA118A53801882499249801870132
:1050B0002070307065960CAF1DAF2EAF3FAF659777
:1050C000C601B501A40193010F94E34A7B018C0151
:1050D000C601B501A40193010F94E34AC901DA01A5
:1050E0001C012D01C201B10165962CAD3DAD4EAD47
:1050F0005FAD65970F94914A9B01AC018701FF2436
:10510000EE24AD8CBE8CCF8CD8A0C601AA27BB27BD
:1051100057016801A82AB92ACA2ADB2AA216B306AF
:10512000C406D50600F50894210831084108510845
:10513000EDA0FEA00FA118A5AE0CBF1CC01ED11E75
:10514000AE14BF04C006D10670F0A216B306C406A2
:10515000D50648F408942108310841085108AE0CDE
:10516000BF1CC01ED11EA21AB30AC40AD50AC601AA
:10517000B501A40193010F94E34A7B018C01C601A0
:10518000B501A40193010F94E34AC901DA013C017E
:105190004D01C401B30165962CAD3DAD4EAD5FAD83
:1051A00065970F94914A9B01AC018701FF24EE247F
:1051B0008D8D9E8DAF8DB8A1A070B0705701680124
:1051C000A82AB92ACA2ADB2AA216B306C406D5061B
:1051D00000F5089461087108810891086DA17EA10D
:1051E0008FA198A5A60EB71EC81ED91EA616B70673
:1051F000C806D90670F0A216B306C406D50648F450
:1052000008946108710881089108A60EB71EC81E8F
:10521000D91ED601C501821B930BA40BB50B898F38
:105220009A8FAB8FBC8FD1019927882764015301D6
:10523000A82AB92ACA2ADB2AA9AABAAACBAADCAA0E
:10524000860175012FEF3FEF40E050E0E222F322AC
:1052500004231523A601662777276D964CAF5DAF13
:105260006EAF7FAF6D97A9A0BAA0CBA0DCA06FEF07
:105270007FEF80E090E0A622B722C822D92289A140
:105280009AA1ABA1BCA11D0144245524C801B701BA
:10529000A60195010F94914A69966CAF7DAF8EAFD0
:1052A0009FAF6997C801B701A20191010F94914A7C
:1052B0003B014C016D966CAD7DAD8EAD9FAD6D9794
:1052C000A60195010F94914A7B018C016D966CADFE
:1052D0007DAD8EAD9FAD6D97A20191010F94914A66
:1052E0005B016C01A8019701260D371D481D591D52
:1052F00069966CAC7DAC8EAC9FAC6997C401AA2753
:10530000BB27280F391F4A1F5B1F2E153F0540077B
:10531000510748F4E12CF12C61E0062F112DAE0C61
:10532000BF1CC01ED11ECA01AA27BB27BC01CD01CC
:105330006A0D7B1D8C1D9D1D698C7A8C8B8C9C8CC1
:10534000661677068806990640F166157705880582
:10535000990509F043C0D9019927882769962CAD92
:105360003DAD4EAD5FAD699740705070820F931F99
:10537000A41FB51F2DA53EA54FA558A96E960FAC2D
:105380006E9704C0220F331F441F551F0A94D2F793
:10539000281739074A075B0708F509A91AA92BA995
:1053A0003CA9015010402040304009AB1AAB2BAB58
:1053B0003CAB14C066247724430121E030E040E098
:1053C00050E029AB3AAB4BAB5CAB0BC06624772407
:1053D000430119AA1AAA1BAA1CAA03C0662477248F
:1053E0004301FE01719688E0DF011D928A95E9F77D
:1053F000A9A8BAA8CBA8DCA8A98ABA8ACB8ADC8AD1
:105400006D8A7E8A8F8A988E29A93A894B895C8910
:10541000662D7E898F89988DC25ADF4FE2E10D9407
:105420003C4B0F931F93CF93DF93689F8001699F3D
:10543000100D789F100D1124C8010DD0EC010097BC
:1054400021F060E070E0A80187D1CE01DF91CF911B
:105450001F910F910895CF93DF93BC018230910586
:1054600010F462E070E0A091AF12B091B012ED01C3
:10547000E0E0F0E040E050E021C0888199818617AB
:10548000970769F48A819B81309719F0938382830F
:1054900004C09093B0128093AF12FE0134C068171D
:1054A000790738F44115510519F08417950708F468
:1054B000AC01FE018A819B819C01E9012097E9F6FC
:1054C00041155105A9F1CA01861B970B049708F4F1
:1054D000BA01E0E0F0E02AC08D919C911197841709
:1054E0009507F9F46417750781F412968D919C91D4
:1054F0001397309719F09383828304C09093B0126E
:105500008093AF12FD0132964CC0CA01861B970BE7
:10551000FD01E80FF91F6193719302978D939C939E
:1055200040C0FD01828193819C01D9011097A1F6B1
:105530008091AD129091AE12892B41F480910703B6
:10554000909108039093AE128093AD12409109039D
:1055500050910A034115510541F44DB75EB7809152
:10556000050390910603481B590B2091AD12309111
:10557000AE12CA01821B930B8617970780F0AB010E
:105580004E5F5F4F8417950750F0420F531F5093A3
:10559000AE124093AD12F9016193719302C0E0E045
:1055A000F0E0CF01DF91CF910895CF93DF93009783
:1055B00009F450C0EC0122971B821A82A091AF120D
:1055C000B091B012109709F140E050E0AC17BD0760
:1055D00008F1BB83AA83FE0121913191E20FF31FF1
:1055E000AE17BF0779F48D919C911197280F391F41
:1055F0002E5F3F4F3983288312968D919C9113978C
:105600009B838A834115510571F4D093B012C093E6
:10561000AF1220C012968D919C911397AD01009707
:1056200011F0DC01D3CFFA01D383C28321913191F0
:10563000E20FF31FCE17DF0769F488819981280FE5
:10564000391F2E5F3F4FFA01318320838A819B816E
:1056500093838283DF91CF91089566277727EDC0EA
:105660001F93FC0199278827BC01E89411911032FF
:10567000E9F3193010F01E30C8F31B3249F01D3227
:1056800041F4689405C0C4D0610F711D811D911D46
:10569000119110531A30B8F33EF49095809570959F
:1056A00061957F4F8F4F9F4F1F910895FB01DC0144
:1056B00002C005900D9241505040D8F70895FB016B
:1056C000DC018D9181341CF08B350CF4805E65918A
:1056D00061341CF06B350CF4605E861B611189F33C
:1056E000990B0895FB01DC018D9105908019011043
:1056F000D9F3990B0895FB01DC014150504030F083
:105700008D910590801919F40020B9F7881B990B29
:105710000895FB01DC014150504048F005900D9286
:105720000020C9F701C01D9241505040E0F7089594
:10573000FC010590615070400110D8F7809590955C
:105740008E0F9F1F0895FB01DC0102C001900D9296
:1057500041505040D8F70895DC0101C06D9341508D
:105760005040E0F70895FB01DC018D910190801914
:105770000110D9F3990B0895FB01DC014150504011
:1057800048F001900D920020C9F701C01D924150D0
:105790005040E0F70895FC01615070400190011005
:1057A000D8F7809590958E0F9F1F0895009731F43C
:1057B000DA018D919C91009709F40EC0DC01FB0188
:1057C0003D912191222319F03217C9F3FACF3323E7
:1057D00031F4DA011D921C928827992708951197B8
:1057E000AF93BF93FB013D912191321771F43323A5
:1057F00021F488279927119702C01E921196FA0169
:10580000A193B0839F918F910895222369F7EACFE6
:10581000592F482F372F262F660F771F881F991F64
:10582000660F771F881F991F620F731F841F951FB4
:10583000660F771F881F991F0895A0E0B0E0E3E28C
:10584000FCE20D94264BEC015B016115710519F02A
:10585000FB0191838083F9908F2D90E00F94684B2A
:10586000892BC9F7FDE2FF1621F4F990EE24E394A9
:1058700005C02BE2F21609F4F990EE248E010150D6
:105880001040C80169EE7CE343E050E033D1892B3E
:10589000F9F48E010E5F1F4FC8016CEE7CE345E00A
:1058A00050E028D1892B19F48E01095F1F4FA114F4
:1058B000B10419F0F50111830083E0FC04C070E02D
:1058C00090E080E813C070E090E080E86FEF07C1DF
:1058D000C80161EF7CE343E050E00CD1892B69F40F
:1058E000A114B10429F470E090E080EC6FE7F7C0F8
:1058F0002296F501D183C083F6CF8824992440E015
:1059000050E060E070E0EF2DE053EA30A0F5F2E007
:10591000EF2A8E2D90E09C0128703070E2FE06C0C8
:10592000232B79F50894811C911C2BC0232B19F093
:10593000089481089108DB01CA0112E0880F991FC1
:10594000AA1FBB1F1A95D1F7480F591F6A1F7B1F4B
:10595000440F551F661F771F4E0F511D611D711D8E
:10596000483929E9520729E9620729E1720748F015
:1059700084E0E82A06C0EE3F31F4E3FC39C098E049
:10598000E92AF990C0CFE53311F0E53189F5299185
:105990002D3219F4E0E1EE2A05C02B3219F081E036
:1059A00090E003C0299182E090E0E22FE053EA30DA
:1059B00018F0C81BD90B1CC020E030E0FCE02038F8
:1059C0003F075CF4C901880F991F880F991F280FA2
:1059D000391F220F331F2E0F311DE991E053EA309A
:1059E00068F3E4FE03C0309521953F4F820E931E6D
:1059F000CE2CDD24E1FE07C0A114B10421F02197D3
:105A0000F501D183C083CB01BA010F9479477B01A3
:105A10008C01F3E0CF22DD2423E0C216D10421F46F
:105A200017FB109517F9109557016801C801B701C8
:105A300020E030E040E050E00F94A846882309F4CD
:105A40004AC097FE0DC028E0E22E2DE3F22E90947E
:105A5000819491089394C0E2D0E000E010E012C07D
:105A600090E2E92E9DE3F92EF6CFF70125913591CD
:105A700045915491C601B5010F94CC495B016C016D
:105A80008C1A9D0A8C169D0684F7D595C7950F5FD5
:105A90001F4F0630110529F08CEF9FEFE80EF91E1D
:105AA000F1CFC501D6017C018D018C2D880F8D2D84
:105AB000881F8F3F51F0C601B50120E030E040E083
:105AC00050E00F94A846882331F482E290E090934E
:105AD000B2128093B1127E2D9F2D802F612F272F20
