:100000000C94912C0C94BE2C0C94BE2C0C94BE2CF5
:100010000C94BE2C0C94BE2C0C94BE2C0D94CD6B69
:100020000C94BE2C0C94BE2C0C94BE2C0C94BE2CA8
:100030000C94BE2C0C94BE2C0C94BE2C0D941580EC
:100040000C94BE2C0C94BE2C0C94BE2C0C94BE2C88
:100050000C94BE2C0C94BE2C0C94BE2C0D94D87712
:100060000C94BE2C0D94F16C0D94206D0C94BE2C50
:100070000C94BE2C0C94BE2C0C94BE2C0C94BE2C58
:100080000C94BE2C0C94BE2C0C94BE2C0C94BE2C48
:100090000D945B6D0D948A6D0C94BE2C0D94C07103
:1000A0000C94BE2C0D9442800C94BE2C0C94BE2C4F
:1000B0000C94BE2C0C94BE2C0D946F800C94BE2C12
:1000C0000C94BE2C0C94BE2C0C94BE2C0D94C56DBF
:1000D0000D94F46D0C94BE2C0C94BE2C0C94BE2C80
:1000E0000C94BE2CBF3AC73ACF3AD73A083BDF3A16
:1000F000E73A083B083B083BEF3AF73AFF3AD85853
:10010000DE58DC58D858DA58DC58DC58DA58DA5857
:10011000DA58DE58DE58DE58DA58DA58DE58E05839
:10012000D95FD05FC85FE15FD05FC35FE15FE15F30
:10013000E15FD95FD95FD95FE15FE15FD95F756545
:100140008D6594657D6585659C65E765CA65C26555
:10015000BA65D165D965E065AB65B3650066EE65E6
:10016000106616661C66226627662D661C838F82C3
:100170001C831C8311831C837E8211831183118352
:10018000A082EF82F982118311830E831C83ED8399
:10019000F783ED83ED83F783ED83ED83F783F783B7
:1001A000F783F083F783F083F783F783F083F78691
:1001B0000E8712871C8720872F9524872F952F95D0
:1001C0002F9528872C873087019DEA9CD99C9C9A83
:1001D0007C9D2E9BD89B7C9D7C9D7C9D7C9D839A49
:1001E000839A7C9D7C9D839A8ED084D097D0A0D01A
:1001F000B5D0D7D00CD122D1FED3F4D302D40CD4B5
:100200001CD42DD44FD474D480D4ACD4AFD4BCD4AB
:10021000C4D4CFD4DCD4E9D4FDD406D57FFC92FC81
:100220009BFCB8FCC6FCE5FCF2FC11FD16FD35FD9F
:1002300046FD59FD63FD86FD99FDCBFDDDFD0AFE02
:1002400023FE52FE60FE94FEA7FEE1FEF3FE562A58
:10025000562A6429562AEC2AEC2AEC2AEC2AEC2AA3
:10026000562AEC2AEC2AEC2AEC2A6429642964290F
:1002700064296429842B842B642A0E2BBC2B7029BF
:100280006029042B6E2C8A2B6E2AE4296829B42A53
:1002900068296829122B342A682968296E2BEA2AD2
:1002A000362A6829682968296829682968296829F7
:1002B0006829682968296829D82968296829682946
:1002C0006829682968296829062AEC2968292E2BBB
:1002D000A02A6829702B8229682968296829682939
:1002E0007229782B782B602B602B602B7E2A7E2A3C
:1002F0007E2AA629222B222B162B502B422A662C33
:100300006C2C8A2A8E29882B1E2B1C2AA22B822C2D
:10031000C22A122A5E29C829EA2BDE2ABE2A4E2AC0
:10032000662B7C29482CC82AC029E22BDE2B8C297D
:10033000002C4C2B7429342C6229B4294A2B802997
:100340003C2AD82B0A2C7E2BAE29582C702C222C20
:10035000036EDB363D9A9999993DABAAAA2A3E00D5
:100360000000803F084AD73B3BCE016E84BCBFFDF6
:10037000C12F3D6C74319ABD56833DDA3D00C77F75
:1003800011BED9E4BB4C3E916BAAAABE000000800E
:100390003F072C7AA5BA6CC590DA3B9365FC8BBC01
:1003A00053F810FD3C5692834DBD879D3AB63DCB28
:1003B000C9BF5BBE73DA0FC93F05A84CCDB2D44E9E
:1003C000B93836A9020C50B9918688083CA6AAAA69
:1003D0002ABE000000803F08000000BE922449129F
:1003E0003EABAAAA2ABECDCCCC4C3E00000080BEBB
:1003F000ABAAAAAA3E00000000BF000000803F0098
:1004000000000000084178D3BB4387D1133D190E8B
:100410003CC3BD4282AD2B3E68EC8276BED98FE1F3
:10042000A93E4C80EFFFBE01C4FF7F3F00000000EB
:100430000002005241575F53454E53000000000038
:100440000000000068000000803F02014558545F32
:10045000535441540000000000000000006A0000F6
:1004600000803F020252435F4348414E00000000BB
:100470000000000000006C000000803F02035241B9
:10048000575F4354524C0000000000000000006E13
:10049000000000803F0204504F534954494F4E0022
:1004A000000000000000000070000000803F020516
:1004B0004558545241310000000000000000000087
:1004C0000072000000803F0206455854524132003D
:1004D0000000000000000000000074000000803FE9
:1004E000020745585452413300000000000000004C
:1004F00000000076000000803F0208504152414D4C
:100500005300000000000000000000007800000020
:10051000484200FF00000000000000000000000052
:10052000000000000000000000000002464F524D95
:1005300041545F56455253494F4E00000000F008A9
:10054000000000000153595349445F53575F545909
:1005500050450000000001F208000000000253595D
:100560005349445F544849534D41560000000070C0
:10057000F3080000803F0253595349445F4D5947E7
:10058000435300000000000071F50800007F4301A4
:1005900053455249414C305F4241554400000000F0
:1005A0000074F7080000E6420153455249414C33BC
:1005B0005F42415544000000000072F808000064EA
:1005C000420154454C454D5F44454C4159000000A3
:1005D00000000073F90800000000044B46465F501D
:1005E000544348434F4D500000000000C8FA08CD66
:1005F000CC4C3E044B46465F524444524D49580051
:100600000000000000C9FE080000003F044B464601
:100610005F50544348325448520000000000CA0260
:100620000900000000044B46465F544852325054C3
:1006300043480000000000CB060900000000015301
:100640005449434B5F4D4958494E47000000000054
:10065000198B090000803F04544B4F46465F5448B5
:10066000525F4D494E53504400228C090000000057
:1006700004544B4F46465F5448525F4D494E4143E8
:10068000430023900900000000014C4556454C5F93
:10069000524F4C4C5F4C494D495400259409000081
:1006A000A040024C414E445F50495443485F43448C
:1006B00000000000175F0900000000044C414E4498
:1006C0005F464C4152455F414C540000001B61099C
:1006D00000004040044C414E445F464C4152455F4F
:1006E0005345430000001C650900000040014E41D5
:1006F000565F434F4E54524F4C4C45520000002819
:100700000E090000803F04414C545F4D49580000E1
:100710000000000000000000830F090000803F017E
:10072000414C545F4354524C5F414C470000000021
:10073000007C13090000000002414C545F4F464604
:100740005345540000000000000020430900000051
:100750000001434D445F544F54414C0000000000E1
:10076000000000DD15090000000001434D445F4911
:100770004E4445580000000000000000DE1609004D
:100780000000000257505F52414449555300000099
:100790000000000000DF17090000F0410257505F21
:1007A0004C4F495445525F52414400000000E0194B
:1007B00009000070420146454E43455F414354499C
:1007C0004F4E0000000000E11B0900000000014640
:1007D000454E43455F544F54414C0000000000001B
:1007E000E21C09000000000146454E43455F4348B6
:1007F000414E4E454C00000000E31D090000000082
:100800000246454E43455F4D494E414C5400000061
:100810000000E41E09000000000246454E43455F0B
:100820004D4158414C540000000000E520090000F3
:1008300000000241525350445F4642575F4D494EBB
:10084000000000007822090000C0400241525350CD
:10085000445F4642575F4D4158000000007924092B
:100860000000B04101464257425F454C45565F5239
:100870004556000000007B260900000000014642AA
:1008800057425F434C494D425F5241544500007D01
:10089000270900000040015448525F4D494E0000B6
:1008A0000000000000000000B52809000000000161
:1008B0005448525F4D415800000000000000000005
:1008C00000B6290900009642015448525F534C4536
:1008D00057524154450000000000BD2A09000000A5
:1008E00000015448525F535550505F4D414E000037
:1008F000000000BE2B0900000000015448525F5068
:100900004153535F5354414200000000BF2C090083
:10091000000000015448525F4641494C534146454E
:100920000000000000B72D090000803F025448522B
:100930005F46535F56414C55450000000000B82EFD
:100940000900806D44015452494D5F5448524F5440
:10095000544C4500000000B93009000034420154F5
:1009600048524F54544C455F4E5544474500000093
:100970001F31090000803F0146535F53484F5254D6
:100980005F4143544E00000000BA320900000000ED
:100990000146535F4C4F4E475F4143544E000000A9
:1009A0000000BB3309000000000146535F4743537A
:1009B0005F454E41424C0000000000BC340900007D
:1009C000000001464C544D4F44455F434800000031
:1009D00000000000D235090000004101464C544D92
:1009E0004F444531000000000000000000D33609EC
:1009F0000000304101464C544D4F44453200000048
:100A0000000000000000D437090000304101464CCE
:100A1000544D4F444533000000000000000000D555
:100A200038090000004001464C544D4F4445340005
:100A30000000000000000000D6390900000040015D
:100A4000464C544D4F444535000000000000000066
:100A500000D73A090000000001464C544D4F444570
:100A600036000000000000000000D83B0900000034
:100A700000014348375F4F5054494F4E000000007B
:100A8000000000D93C0900000000024C494D5F52B3
:100A90004F4C4C5F4344000000000000983D0900AB
:100AA000A08C45024C494D5F50495443485F4D412D
:100AB0005800000000993F090080BB44024C494D9A
:100AC0005F50495443485F4D494E000000009A4131
:100AD0000900401CC5015452494D5F4155544F0017
:100AE000000000000000000A4A0900000000014563
:100AF0004C45564F4E5F4D4958494E470000000047
:100B00000D4B090000000001454C45564F4E5F5209
:100B10004556455253450000000E4E0900000000A6
:100B200001454C45564F4E5F4348315F5245560094
:100B300000000F4F090000000001454C45564F4E84
:100B40005F4348325F5245560000001050090000D4
:100B5000000001565441494C5F4F555450555400C4
:100B600000000000274C090000000001454C4556DC
:100B70004F4E5F4F555450555400000000294D0909
:100B800000000000025359535F4E554D5F524553CC
:100B900045545300000002510900000000024C4F70
:100BA000475F4249544D41534B0000000000000B89
:100BB000530900C0ED44015253545F535749544305
:100BC000485F43480000000015550900000000017F
:100BD0005253545F4D495353494F4E5F43480000B1
:100BE000001A560900000000035452494D5F41525B
:100BF0005350445F434D000000009B57090000968E
:100C000044045343414C494E475F535045454400CB
:100C1000000000CC0A0900007041034D494E5F47B7
:100C20004E445350445F434D000000009E6909004C
:100C3000000000025452494D5F50495443485F43FD
:100C400044000000000C6D090000000003414C54FA
:100C50005F484F4C445F52544C00000000009C5BC6
:100C60000900401C4602414C545F484F4C445F46CB
:100C70004257434D0000007A6F0900000000014D0B
:100C800041475F454E41424C4500000000000000D6
:100C90008471090000803F01464C41505F315F5034
:100CA0004552434E5400000000117309000000003B
:100CB00001464C41505F315F5350454544000000B0
:100CC00000001274090000000001464C41505F32E0
:100CD0005F504552434E5400000000137509000058
:100CE000000001464C41505F325F5350454544007F
:100CF0000000000014760900000000014241545435
:100D00005F4D4F4E49544F5200000000008672095B
:100D10000000000004564F4C545F44495649444576
:100D20005200000000008777090AD7634004414D54
:100D3000505F5045525F564F4C54000000000088F1
:100D40007B095C8FDA4104414D505F4F4646534565
:100D500054000000000000008F7F09000000000325
:100D6000424154545F4341504143495459000000AB
:100D7000008A83090000DC4401424154545F564F0D
:100D80004C545F50494E00000000A88809000080C4
:100D90003F01424154545F435552525F50494E0007
:100DA000000000A989090000004001525353495F27
:100DB00050494E000000000000000000A787090015
:100DC0000080BF01494E564552544544464C545F3D
:100DD00043480000009D8A09000000000154505F54
:100DE000434C5F4E41560000000000000000A24846
:100DF000090000803F0154505F415750525F4E41FF
:100E000056000000000000A349090000803F025482
:100E1000505F41474C5F5245460000000000000013
:100E2000A04609000000000154505F4D534C5F5232
:100E3000454600000000000000A145090000000038
:100E400008474E445F000000000000000000000062
:100E500000008D230C082E00000843414D5F000068
:100E60000000000000000000000000A49F0C4A40A9
:100E70000000085243315F00000000000000000045
:100E800000000000AA9509693F0000085243325F44
:100E900000000000000000000000000000ABB209EC
:100EA000693F0000085243335F000000000000006B
:100EB000000000000000ACCF09693F000008524369
:100EC000345F00000000000000000000000000ADE2
:100ED000EC09693F0000085243355F000000000044
:100EE0000000000000000000AE090AFF3F000008FB
:100EF0005243365F000000000000000000000000C8
:100F000000AF270AFF3F0000085243375F00000090
:100F100000000000000000000000B0450AFF3F0094
:100F200000085243385F000000000000000000008D
:100F3000000000B1630AFF3F0000085243395F0020
:100F4000000000000000000000000000B2810AFF65
:100F50003F000008524331305F00000000000000F5
:100F60000000000000B39F0AFF3F00000852433119
:100F7000315F000000000000000000000000B4BD70
:100F80000AFF3F0000084152535032505443485F1B
:100F900000000000000000F3AB0BEC3E0000084531
:100FA0004E524759325448525F0000000000000082
:100FB000F5C90BEC3E000008414C543250544348F4
:100FC0005F0000000000000000F6E70BEC3E0000B0
:100FD00008574845454C53544545525F00000000B2
:100FE0000000F7050CEC3E000008524C4C32535206
:100FF000565F000000000000000000F1DB0AEC3E3C
:1010000000000850544348325352565F000000001D
:1010100000000000F2F90AEC3E0000085957325374
:1010200052565F00000000000000000000F4170BA3
:10103000EC3E000008434F4D504153535F00000009
:1010400000000000000085A90C5231000008535236
:10105000305F000000000000000000000000006E93
:101060008A0D31040000085352335F000000000075
:1010700000000000000000006F120E3104000008A4
:10108000494E535F00000000000000000000000017
:101090000021A6063F32000008414852535F00007D
:1010A000000000000000000000008CF206F23D008D
:1010B000000841525350445F00000000000000004F
:1010C0000000008E7108C7400000084E41564C31A8
:1010D0005F0000000000000000000000EB9A0E0F0F
:1010E0004F0000084D4E545F00000000000000005B
:1010F0000000000000A585081F440000000000005B
:1011000000000000000000000000000000000000DF
:1011100000000000004C6F670064756D70000000F7
:1011200000000000000000564F657261736500000A
:10113000000000000000003A7B656E61626C650093
:1011400000000000000000404E64697361626C653D
:1011500000000000000000404E736574757000725E
:1011600065736574000000000000000000EE4D7221
:101170006164696F000000000000000000596C6DA0
:101180006F646573000000000000000000CE6B6C0F
:101190006576656C000000000000000000287B619F
:1011A0006363656C000000000000000000724D6386
:1011B0006F6D7061737300000000000000F54C64F7
:1011C00065636C696E6174696F6E000000E34C6268
:1011D00061747465727900000000000000444B7374
:1011E000686F7700000000000000000000824C7370
:1011F00065740000000000000000000000764B65F0
:101200007261736500000000000000000048384172
:10121000726475506C616E652056322E37332D78AE
:1012200070312075706461746564206279204A4C65
:101230004E006C6F677300000000000000000000AB
:101240003E4B7365747570000000000000000000E4
:101250001B4B746573740000000000000000000068
:10126000F84A7265626F6F740000000000000000B1
:10127000A53968656C7000000000000000000000E7
:101280008639746573740070776D0000000000008B
:1012900000000000004D6B726164696F0000000087
:1012A00000000000007673706173737468727500DB
:1012B0000000000000774A6661696C736166650032
:1012C00000000000001A6A6261747465727900009F
:1012D0000000000000C17272656C617900000000BE
:1012E0000000000000D147776179706F696E7473F8
:1012F0000000000000D8467862656500000000002C
:101300000000000000DD3B656564756D7000000045
:10131000000000000068426D6F6465737769746354
:1013200068000000008D4567707300000000000039
:101330000000000000E644726177677073000000EF
:1013400000000000003C3C696E73000000000000DB
:1013500000000000009E3D61697273706565640065
:1013600000000000009F7961697270726573737587
:101370007265000000D178636F6D70617373000057
:101380000000000000E63F6C6F6767696E67000051
:1013900000000000003A3C736176696E67206F665A
:1013A000667365747300636F6D70617373206E6F25
:1013B00074206865616C7468790048656164696E61
:1013C000673A20256C642C2058595A3A2025642C01
:1013D0002025642C2025642C0958595A6F66663ADA
:1013E0002025362E32662C2025362E32662C2025DE
:1013F000362E32660A00436F6D7061737320696E1A
:10140000697469616C69736174696F6E2066616982
:101410006C65642100436F6D706173733A200061E5
:10142000626C65640A0064697300656E004D6167F3
:10143000206F6666736574733A2025342E34662CEB
:101440002025342E34662C2025342E34660A004D97
:101450006167204465636C696E6174696F6E3A20E0
:1014600025342E34660A003F3F0048494C00484D61
:10147000433538343300484D43353838334C004316
:101480006F6D706173733A20002D004869742045B8
:101490006E74657220746F20657869742E0A0A0074
:1014A000416C743A2025302E32666D2C20526177C3
:1014B0003A2025662054656D706572617475726599
:1014C0003A20252E31660A006E6F74206865616CC3
:1014D00074687900556E63616C69627261746564E9
:1014E0002072656C617469766520616972707265DD
:1014F00073737572650A006261726F6D65746572EF
:101500002063616C6962726174696F6E20636F6DD4
:10151000706C6574650043616C6962726174696EB8
:1015200067206261726F6D6574657200252E316689
:10153000206D2F730A0061697273706565643A20CB
:101540000061697273706565643A20006169727345
:10155000706565645F63683A20252E33660A007AF9
:1015600065726F2061697273706565642063616C78
:101570006962726174656400723A25346420207077
:101580003A2534642020793A2533642020673D28A9
:1015900025352E31662025352E31662025352E3114
:1015A00066292020613D2825352E31662025352EDF
:1015B00031662025352E3166290A002E004C6174D3
:1015C0003A20256C642C204C6F6E20256C642C20F6
:1015D000416C743A20256C646D2C20237361747304
:1015E0003A2025640A00506F736974696F6E202574
:1015F000640A00436F6E74726F6C204348200020B1
:101600002530327800253034783A00426567696EBB
:10161000205842656520582D4354552052616E670D
:101620006520616E64205253534920546573743AA7
:101630000A004C6F69746572207261646975733A4F
:101640002025640A0A004869742072616469757310
:101650003A2025640A00256420776179706F696EED
:1016600074730A00486F6C6420616C7469747564EB
:1016700065206F662025646D0A00486F6C642063E6
:10168000757272656E7420616C7469747564650A34
:1016900000636F6D6D616E6420233A2025642069BC
:1016A000643A2564206F7074696F6E733A25642004
:1016B00070313A25642070323A256C642070333AD8
:1016C000256C642070343A256C64200A0052656CE5
:1016D0006179206F66660A0052656C6179206F6ED1
:1016E0000A004E6F7420656E61626C65640A005674
:1016F0003A2025342E34662C20413A2025342E34CD
:10170000662C206D41683A2025342E34660A005636
:101710003A2025342E34660A004D53472046532084
:101720004F4646202575004D5347204653204F4EC7
:10173000202575005472696767657265642041559C
:10174000544F2078616363656C3D252E3166004CF3
:101750004F5320636175736564206E6F2063686109
:101760006E676520696E2041504D2E0A0054485224
:101770004F54544C45204641494C53414645204125
:1017800043544956415445443A2025642C20004393
:101790004F4E54524F4C204D4F4445204348414EEC
:1017A0004745443A20005448524F54544C45204336
:1017B00048414E474544202564200A00556E706C10
:1017C000756720626174746572792C207468726F19
:1017D00074746C6520696E206E65757472616C2C12
:1017E000207475726E206F666620726164696F2E58
:1017F0000A004D6F646528257529004C6F69746572
:10180000720052544C004155544F004642575F42BB
:10181000004642575F4100547261696E696E67000D
:1018200053746162696C697A6500436972636C65BF
:10183000004D616E75616C0043483A002C00494EC2
:1018400020313A20256409323A20256409333A20B0
:10185000256409343A20256409353A20256409367F
:101860003A20256409373A20256409383A2025644E
:101870000A00494E3A09313A20256409323A2025B6
:101880006409333A20256409343A20256409353A3D
:1018900020256409363A20256409373A2025640951
:1018A000383A2025640A00436F6D6D616E64733AA7
:1018B0000A20206C6F677320202020202020206CBD
:1018C0006F6720726561646261636B2F7365747505
:1018D00070206D6F64650A20207365747570202018
:1018E00020202020207365747570206D6F64650A58
:1018F000202074657374202020202020202074650F
:101900007374206D6F64650A20207265626F6F7456
:101910002020202020207265626F6F7420746F2059
:10192000666C69676874206D6F64650A0A005465A7
:101930007374204D6F64650A0A00536574757020D6
:101940004D6F64650A0A494D504F5254414E543A06
:1019500020696620796F752068617665206E6F74E6
:101960002070726576696F75736C79207365742069
:10197000746869732073797374656D2075702C2099
:10198000757365207468650A27726573657427200E
:10199000636F6D6D616E6420746F20696E69746928
:1019A000616C697A652074686520454550524F4DD9
:1019B00020746F2073656E7369626C652064656660
:1019C00061756C742076616C7565730A616E642054
:1019D0007468656E207468652027726164696F277A
:1019E00020636F6D6D616E6420746F20636F6E662F
:1019F000696775726520666F7220796F75722072E3
:101A00006164696F2E0A0A000A54797065202759AB
:101A10002720616E642068697420456E74657220A9
:101A2000746F20657261736520616C6C20776179D9
:101A3000706F696E7420616E6420706172616D6593
:101A400074657220646174612C20616E79206F74FA
:101A5000686572206B657920746F2061626F7274A3
:101A60003A2000646F6E650A000A45726173696E00
:101A70006720454550524F4D0A0043616E6E6F74AA
:101A80002073657420706172616D65746572206F7A
:101A90006620747970652025642E0A0056616C7585
:101AA00065206F7574206F662072616E67652066B1
:101AB0006F72207479706520494E5431360A005691
:101AC000616C7565206F7574206F662072616E673A
:101AD0006520666F72207479706520494E54380A0B
:101AE00000506172616D206E6F7420666F756E6458
:101AF0003A2025730A00496E76616C696420636F31
:101B00006D6D616E642E2055736167653A20736553
:101B100074203C6E616D653E203C76616C75653E5F
:101B20000A00506172616D65746572206E6F742079
:101B3000666F756E643A20272573270A000A4F7076
:101B400074696F6E733A20332D34004D6F6E697473
:101B50006F72696E6720766F6C747320616E64209B
:101B600063757272656E74004D6F6E69746F726921
:101B70006E67206261747420766F6C7473004261CA
:101B80007474206D6F6E69746F72696E672064691A
:101B90007361626C65640042617474204D6F696E9C
:101BA000746F720A000A4F7074696F6E733A5B6FDC
:101BB0006E2C6F66662C72657365745D0A007265C3
:101BC000736574006F666600436F6D706173732098
:101BD000696E697469616C69736174696F6E20669E
:101BE00061696C656421006F6E00496E697469619A
:101BF0006C6973696E67206779726F7300494E5321
:101C00000A004779726F206F6666736574733A20B5
:101C100025342E32662C2025342E32662C20253495
:101C20002E32660A00416363656C206F66667365D9
:101C300074733A2025342E32662C2025342E3266D9
:101C40002C2025342E3266097363616C653A202599
:101C5000342E32662C2025342E32662C2025342E4C
:101C600032660A004E4F20616972737065656400C8
:101C7000426567696E6E696E6720494E53206361E5
:101C80006C6962726174696F6E3B20646F206E6F65
:101C900074206D6F766520706C616E65005761729F
:101CA0006D696E67207570204144432E2E2E0044CE
:101CB000656D6F20536572766F7321000A4D6F76E4
:101CC0006520524320746F67676C65207377697471
:101CD000636820746F206561636820706F73697436
:101CE000696F6E20746F20656469742C206D6F7647
:101CF000652061696C65726F6E20737469636B2017
:101D0000746F2073656C656374206D6F6465732EEA
:101D100000506F732025643A2000466C6967687430
:101D2000206D6F6465730A000A5361766564205301
:101D3000657474696E67730A0A000A4D6F766520D0
:101D4000616C6C20636F6E74726F6C7320746F20A3
:101D5000656163682065787472656D652E204869D9
:101D60007420456E74657220746F20736176653AD5
:101D7000200A000A4E6F20726164696F3B2043683D
:101D800065636B20636F6E6E6563746F72732E0094
:101D90000A0A526164696F2053657475703A0A00CB
:101DA000526164696F0A004348383A202564207CF8
:101DB000202564207C2025640A004348373A2025EA
:101DC00064207C202564207C2025640A004348365A
:101DD0003A202564207C202564207C2025640A008C
:101DE0004348353A202564207C202564207C20252A
:101DF000640A004348343A202564207C202564206E
:101E00007C2025640A004348333A202564207C2046
:101E10002564207C2025640A004348323A2025644A
:101E2000207C202564207C2025640A004348313A28
:101E3000202564207C202564207C2025640A000A5B
:101E4000464143544F525920524553455420636FE5
:101E50006D706C657465202D20706C6561736520F4
:101E600072657365742041504D20746F20636F6EEE
:101E700074696E7565000A547970652027592720AA
:101E8000616E642068697420456E74657220746F99
:101E900020706572666F726D20666163746F72790F
:101EA0002072657365742C20616E79206F7468658B
:101EB00072206B657920746F2061626F72743A20B2
:101EC00000656E61626C6500434F4D504153530095
:101ED00043555252454E5400434D4400494D550020
:101EE0004D4F4445004E54554E004354554E0050FE
:101EF0004D004750530041545449545544455F4D9B
:101F000045440041545449545544455F4641535457
:101F100000616C6C006D697373696E67206C6F672C
:101F200020747970650A004C6F6720657261736573
:101F300020636F6D706C6574650045726173696EC6
:101F400067206C6F677300626164206C6F67206E3E
:101F5000756D6265720A0064756D70696E672061E7
:101F60006C6C0A008059464D54000042426E4E5A35
:101F70000000000000000000000000547970652C93
:101F80004C656E6774682C4E616D652C466F726D82
:101F9000617400000000000000000000000000006C
:101FA0000000000000000000000000000000000031
:101FB00000000000000000000000008117504152A6
:101FC0004D004E6600000000000000000000000010
:101FD00000004E616D652C56616C75650000000057
:101FE00000000000000000000000000000000000F1
:101FF00000000000000000000000000000000000E1
:1020000000000000000000000000000000000000D0
:10201000000082234750530000424942634C4C6504
:102020006545650000000000005374617475732CF1
:1020300054696D652C4E536174732C48446F702C39
:102040004C61742C4C6E672C52656C416C742C4145
:102050006C742C5370642C474372730000000000B2
:10206000000000000000000000831B494D550000E7
:1020700066666666666600000000000000000000FC
:10208000477972582C477972592C4779725A2C41EA
:102090006363582C416363592C4163635A00000009
:1020A0000000000000000000000000000000000030
:1020B0000000000000000000000000000000000020
:1020C00084434D534700005A000000000000000008
:1020D000000000000000004D65737361676500003B
:1020E00000000000000000000000000000000000F0
:1020F00000000000000000000000000000000000E0
:1021000000000000000000000000000000000000CF
:10211000000000000000000A0941545400006363FD
:102120004300000000000000000000000000526FAB
:102130006C6C2C50697463682C5961770000000046
:10214000000000000000000000000000000000008F
:10215000000000000000000000000000000000007F
:102160000000000000000000000000000000031755
:10217000504D000000494868424242686868684221
:1021800000000000004C54696D652C4D4C432C67D9
:1021900044742C524E436E742C524E426C2C475059
:1021A00053636E742C4744782C4744792C47447A07
:1021B0002C504D542C4932434572720000000000EF
:1021C00000000000000414434D440000424242421B
:1021D00042654C4C000000000000000043546F7446
:1021E0002C434E756D2C4349642C434F70742C5016
:1021F000726D312C416C742C4C61742C4C6E6700E8
:1022000000000000000000000000000000000000CE
:102210000000000000000000000000000919434118
:102220004D0000494C4C6563634300000000000012
:1022300000000047505354696D652C4C61742C4C60
:102240006E672C416C742C526F6C6C2C50697463EB
:10225000682C5961770000000000000000000000B9
:10226000000000000000000000000000000000006E
:102270000000000605535452540042420000000082
:102280000000000000000000000053547970652C2D
:1022900043546F74000000000000000000000000C4
:1022A000000000000000000000000000000000002E
:1022B000000000000000000000000000000000001E
:1022C0000000000000000000000001134354554EC0
:1022D000006363636368686600000000000000003C
:1022E000004E6176526F6C6C2C526F6C6C2C4E6190
:1022F0007650697463682C50697463682C546872F2
:102300004F75742C5264724F75742C41636359007D
:1023100000000000000000000000000000000000BD
:102320000002114E54554E0043494343636300007D
:1023300000000000000000005961772C57704469CC
:1023400073742C546172674272672C4E61764272CC
:10235000672C416C744572722C417273706400007A
:10236000000000000000000000000000000000006D
:1023700000000000000000000B054D4F4445004DDB
:102380004200000000000000000000000000004DBE
:102390006F64650000000000000000000000000005
:1023A000000000000000000000000000000000002D
:1023B000000000000000000000000000000000001D
:1023C0000000000000000000000000000000000508
:1023D0000F435552520068686848660000000000CC
:1023E0000000000000005468722C566F6C742C437F
:1023F0007572722C5663632C43757272546F74003D
:1024000000000000000000000000000000000000CC
:1024100000000000000000000000000000000000BC
:102420000000000000000C154D414700006868687E
:10243000686868686868000000000000004D616717
:10244000582C4D6167592C4D61675A2C4F66735853
:102450002C4F6673592C4F66735A2C4D4F66735828
:102460002C4D4F6673592C4D4F66735A0000000077
:102470000000000000000000000000000041504D7E
:102480002032000A41726475506C616E65205632CC
:102490002E37332D78703120757064617465642037
:1024A0006279204A4C4E0A467265652052414D3A87
:1024B0002025750A00434F4D5041535300202553AA
:1024C0000043555252454E540020255300434D447D
:1024D0000020255300494D5500202553004D4F4401
:1024E0004500202553004E54554E002025530043EF
:1024F00054554E0020255300504D002025530047D1
:102500005053002025530041545449545544455FCD
:102510004D454400202553004154544954554445E9
:102520005F4641535400202553006E6F6E65006C6A
:102530006F677320656E61626C65643A2000526556
:102540006365697665642052657175657374202DC5
:10255000206A756D7020746F20636F6D6D616E649D
:10256000202325690043616E6E6F74206368616E7D
:10257000676520746F206E6F6E2D4E617620636DDF
:10258000642025750052656365697665642052652F
:102590007175657374202D207265736574206D6983
:1025A0007373696F6E00283229204E6F6E2D4E6155
:1025B0007620636F6D6D616E642049442075706490
:1025C0006174656420746F20232569206964783DF7
:1025D0002575004E6F6E2D4E617620636F6D6D61B7
:1025E0006E64204944207570646174656420746F62
:1025F00020232569206964783D2575006F75742056
:102600006F6620636F6D6D616E647321004E61763D
:1026100020636F6D6D616E6420696E6465782075EE
:1026200070646174656420746F20232569005265AD
:102630007475726E696E6720746F20486F6D6500E7
:10264000457865637574696E67206E617620636F87
:102650006D6D616E642049442023256900526573C5
:10266000657474696E6720707265765F57500045B7
:102670007865637574696E6720636F6D6D616E64F4
:102680002049442023256900444F5F5345545F523D
:102690004F49206E6F7420737570706F727465642B
:1026A00000457865637574696E6720636F6D6D6151
:1026B0006E64204944202325690073657474696E33
:1026C0006720636F6D6D616E6420696E6465783A32
:1026D000202569004A756D7020746F2057502025A1
:1026E000752E204A756D7073206C6566743A2025CE
:1026F0006400536B697070696E6720696E76616CF7
:102700006964206A756D7020746F202569004A75B0
:102710006D7073206C6566743A2030202D20736BC9
:10272000697070696E6700536574207468726F74A5
:10273000746C65202575005365742067726F756E23
:102740006473706565642025750053657420616944
:10275000727370656564202575206D2F7300677036
:102760007320616C743A20256C7500696E69742061
:10277000686F6D65006261642066656E63652070D8
:102780006F696E74006261642066656E63652070B7
:102790006F696E740066656E63696E67206D757330
:1027A000742062652064697361626C656400666CA4
:1027B0006967687420706C616E2072656365697604
:1027C000656400666C6967687420706C616E207562
:1027D00070646174652072656A6563746564005530
:1027E0006E6B6E6F776E20706172616D657465726D
:1027F00020252E31367300556E6B6E6F776E20700C
:102800006172616D6574657220696E6465782025FA
:102810006400636F6D6D616E6420726563656976D7
:1028200065643A2000666C69676874206D6F646542
:10283000203D202575004661696C73616665202D19
:102840002053686F7274206576656E74206F6E2CED
:1028500020004661696C73616665202D2053686FA6
:102860007274206576656E74206F66660067656FAA
:102870002D66656E6365207472696767657265644D
:102880000067656F2D66656E6365204F4B00676559
:102890006F2D66656E636520736574757020657253
:1028A000726F720067656F2D66656E6365206C6F71
:1028B00061646564007665726966795F6E61763A17
:1028C00020496E76616C6964206F72206E6F2063A0
:1028D000757272656E74204E617620636D64004877
:1028E0006F6C64696E6720636F7572736520256C09
:1028F00064004C616E6420436F6D706C657465207C
:102900002D20486F6C6420636F7572736520256C91
:10291000640050617373656420576179706F696EEC
:10292000742023256920646973742025756D005215
:1029300065616368656420576179706F696E7420A2
:1029400023256920646973742025756D00526561C3
:102950006368656420576179706F696E7420232500
:102960006920646973742025756D007665726966E7
:10297000795F6E61763A204C4F49544552206F7210
:102980006269747320636F6D706C65746500766541
:10299000726966795F6E61763A204C4F49544552B0
:1029A0002074696D6520636F6D706C65746500528D
:1029B00065616368656420686F6D6500766572693E
:1029C00066795F636F6E6469746F6E3A20496E76E4
:1029D000616C6964206F72206E6F2063757272651E
:1029E0006E7420436F6E646974696F6E20636D64EA
:1029F00000666C69676874206D6F6465203D2025F2
:102A000075004661696C73616665202D204C6F6EA0
:102A100067206576656E74206F6E2C2000496E7697
:102A2000616C69642053455249414C335F424155C2
:102A300044000A507265737320454E54455220334A
:102A40002074696D657320746F20737461727420D3
:102A5000696E7465726163746976652073657475F7
:102A6000700A00436F6D7061737320696E697469D9
:102A7000616C69736174696F6E206661696C65640D
:102A8000210045524153494E47204C4F4753004E79
:102A90006F2064617461666C617368206361726445
:102AA00020696E736572746564000A0A496E697400
:102AB0002041726475506C616E652056322E37333A
:102AC0002D7870312075706461746564206279209E
:102AD0004A4C4E0A0A467265652052414D3A2025FD
:102AE000750A006C6F61645F616C6C20746F6F6B52
:102AF00020256C7575730A00646F6E652E0046693B
:102B0000726D77617265206368616E67653A2065F2
:102B1000726173696E6720454550524F4D2E2E2EBF
:102B20000A000A0A20526561647920746F20464CBD
:102B3000592E003C737461727475705F67726F75A3
:102B40006E643E2047524F554E44205354415254D8
:102B500000496E697469616C6973696E67204150E0
:102B60004D2E2E2E00202025530A00436F6D6D61DF
:102B70006E64733A00496E76616C696420636F6DB0
:102B80006D616E642C2074797065202768656C70A7
:102B90002700657869740068656C700025535D20B6
:102BA0000025733A2025660A0025733A20256C64B7
:102BB0000A0025733A2025640A0025733A2025640B
:102BC0000A00245047434D442C31362C302C302CF5
:102BD000302C302C302A36410D0A002450535246F6
:102BE0003130302C302C33383430302C382C312CE0
:102BF000302A334300204E4D454120002053495296
:102C0000462000204D544B2000204D544B3139209C
:102C1000002075626C6F7820000096000000E100D3
:102C20000080250000C01200004F4B00245053527A
:102C3000463130332C302C302C312C312A32350DAA
:102C40000A24505352463130332C312C302C302C46
:102C5000312A32350D0A24505352463130332C324A
:102C60002C302C302C312A32360D0A245053524647
:102C70003130332C332C302C302C312A32370D0AA2
:102C800024505352463130332C342C302C312C31DB
:102C90002A32300D0A24505352463130332C352C11
:102CA000302C312C312A32300D0A24505352463107
:102CB00030332C362C302C302C312A32320D0A2471
:102CC000505352463130332C382C302C302C312A92
:102CD00032430D0A24505352463135312C312A33B8
:102CE000460D0A24505352463130362C32312A30A8
:102CF000460D0A0024504D544B3331342C302C30C7
:102D00002C312C312C302C302C302C302C302C30E1
:102D10002C302C302C302C302C302C302C302A32D3
:102D2000380D0A24504D544B3333302C302A324561
:102D30000D0A24504D544B3331332C312A32450D7A
:102D40000A24504D544B3330312C322A32450D0A6F
:102D50000024505542582C34302C6767612C302C9D
:102D6000312C302C302C302C302A37420D0A245094
:102D70005542582C34302C7674672C302C312C3042
:102D80002C302C302C302A37460D0A24505542580E
:102D90002C34302C726D632C302C302C302C302C99
:102DA000302C302A36370D0A004750524D43004729
:102DB0005047474100475056544700A0A20008A67C
:102DC0000200000000000000A8B0B3A0A20008A606
:102DD0000029010000000000D0B0B3B56206010375
:102DE00000010601124F24505542582C34312C3129
:102DF0002C303030332C303030312C3338343030CC
:102E00002C302A32360D0A0004024142535F5052E0
:102E100045535300000000000000000C00000000BB
:102E200000040354454D5000000000000000000065
:102E30000000000008000000000000FF000000008B
:102E40000000000000000000000000000000000082
:102E500000000050414E49433A2041505F426172A8
:102E60006F3A3A7265616420756E7375636365735A
:102E70007366756C20666F72206D6F726520746862
:102E8000616E203530306D7320696E2041505F4295
:102E900061726F3A3A63616C696272617465205B5A
:102EA000335D0D0A0050414E49433A2041505F4284
:102EB00061726F3A3A7265616420756E737563630F
:102EC00065737366756C20666F72206D6F72652016
:102ED0007468616E203530306D7320696E2041500A
:102EE0005F4261726F3A3A63616C696272617465E4
:102EF000205B325D0D0A0050414E49433A2041505B
:102F00005F4261726F3A3A7265616420756E7375E3
:102F1000636365737366756C20666F72206D6F7284
:102F200065207468616E203530306D7320696E20C5
:102F300041505F4261726F3A3A63616C69627261DB
:102F40007465205B315D0D0A0050414E49433A20C3
:102F500041505F4261726F5F4D533536313120749D
:102F60006F6F6B206D6F7265207468616E203130F9
:102F700030306D7320746F20696E697469616C699B
:102F80007A650050414E49433A2041505F42617298
:102F90006F5F4D53353631313A206661696C656437
:102FA00020746F2074616B652073657269616C2099
:102FB00073656D6170686F726520666F7220696EEF
:102FC00069740050414E49433A2041505F4261725A
:102FD0006F5F4D53353631313A204E554C4C20738E
:102FE000657269616C206472697665720050414E49
:102FF00049433A206661696C656420746F2074618E
:103000006B65205F6932635F73656D2031303020FE
:1030100074696D657320696E206120726F772C2052
:10302000696E2041505F4261726F5F4D533536319A
:10303000313A3A5F7570646174650050414E49439E
:103040003A2041505F4261726F5F4D5335363131E6
:1030500020646964206E6F74206765742076616CEB
:103060006964204932432073656D617068726F65D1
:10307000210050414E49433A206661696C656420E5
:10308000746F2074616B65205F7370695F73656D29
:10309000203130302074696D657320696E206120A5
:1030A000726F772C20696E2041505F4261726F5FB2
:1030B0004D53353631313A3A5F757064617465004D
:1030C00050414E49433A2041505F4261726F5F4D1B
:1030D000533536313120646964206E6F7420676522
:1030E000742076616C6964205350492073656D616A
:1030F0007068726F65210050414E49433A2041503B
:103100005F4261726F5F4D533536313120646964BF
:10311000206E6F74206765742076616C696420533B
:1031200050492064657669636520647269766572CA
:1031300021004661696C656420746F2067657420A6
:10314000484D43353834332073656D6170686F7254
:10315000650005014F46530000000000000000001C
:10316000000000000011000000000004024445437C
:1031700000000000000000000000000000001D0032
:103180000000000001034C4541524E0000000000C9
:10319000000000000000000F000000803F01045507
:1031A0005345000000000000000000000000000087
:1031B00021000000803F01054155544F4445430024
:1031C00000000000000000000022000000803F011D
:1031D000064D4F5443540000000000000000000062
:1031E00000009D000000000005074D4F5400000046
:1031F00000000000000000000000009E0000000031
:103200000001084F5249454E5400000000000000E4
:103210000000000010000000000000FF000000009F
:10322000000000000000000000000000000000009E
:10323000000000256C642E2530376C64002D0002E0
:103240000050524F445543545F4944000000000071
:1032500000001A00000000000501414343534341B0
:103260004C000000000000000000001C00000000F6
:103270000005024143434F46465300000000000052
:103280000000000028000000000005034759524FCD
:10329000464653000000000000000000003400001B
:1032A00000000001044D5055364B5F46494C5445D3
:1032B00052000000000040000000000000FF00007D
:1032C00000000000000000000000000000000000FE
:1032D000000000000043616C6962726174696F6E86
:1032E000204641494C45440A0043616C6962726161
:1032F00074696F6E207375636365737366756C0AAA
:10330000005363616C696E673A20252E3266202572
:103310002E326620252E32660A004F66667365746B
:10332000733A20252E326620252E326620252E3235
:10333000660A00506C6163652041504D2025532082
:10334000616E6420707265737320616E79206B65A5
:10335000792E0A006F6E20697473204241434B003E
:103360006E6F7365205550006E6F736520444F5724
:103370004E006F6E20697473205249474854207381
:10338000696465006F6E20697473204C4546542053
:1033900073696465006C6576656C0020002A0049DD
:1033A0006E697420416363656C000A6779726F20EF
:1033B000646964206E6F7420636F6E7665726765F2
:1033C0003A20646966663D2566206470730A002AA7
:1033D00000496E6974204779726F00FB00003E005F
:1033E0000B0036000100020003000000650054FFDE
:1033F000EF0000FA80000B128200010002000000C2
:10340000000000000000000000000000280000FF95
:10341000FF4581FFFFFA7200000000000003E80092
:1034200000000100017FFFFFFE8001001B00000083
:103430000000000000000000000000003E033040DB
:1034400000000002CAE3093E8000002000000000E6
:10345000000000400000006000000041FF0000008C
:10346000000B2A0000165500002182FD872650FD22
:10347000800000001F000000058000000000000028
:1034800001000000020000000300004000000000F6
:1034900000046F0002653200005EC04000000000C2
:1034A0000000000000000000000000FB8C6F5DFDCC
:1034B0005D08D9007C733B006C12CC3200139D3246
:1034C00000D0D632000800400001F4FFE680790207
:1034D0000000000000D0D600002710FB00000040D4
:1034E00000000000000000000000000000000100DB
:1034F00000000000000100010000000000FA36FF9B
:10350000BC308E0005FBF0FFD95BC8FFD09ABE002F
:103510000010A9FFF41EB200CEBBF70000000100AE
:10352000000004000200020200000CFFC280000044
:1035300001800000CF80004000000000000001007A
:103540000000000000060000000014000000000061
:10355000000000000000000000000000000000006B
:10356000000000000000000000000000000000005B
:103570000000000000000000000000000000000348
:103580003F68B6793528BCC67ED16C80000000400B
:103590000000000000B26A0000000000000000000F
:1035A00000000000003FF0000000300000000000BC
:1035B000000000000000000000000000000000000B
:1035C00000000000000000000000000000254D0089
:1035D0002F706D000005AE000C02D000000000004E
:1035E000650054FFEF000000000000000001000033
:1035F00044000000000C000000010000000000007A
:1036000065000000540000FFEF0000000000000013
:10361000000000000000000000000040000000006A
:10362000000000000000000000000040000000005A
:103630000000000000000000000000000000010089
:103640000000020000000000000000000000000078
:10365000000000000000000000000000000000006A
:103660000000000000000000000000001B0000003F
:10367000000000000000000000000000000000004A
:10368000000000000000000000000000000000003A
:103690000000000000000040000000001B000000CF
:1036A000000000000000000000000000000000001A
:1036B000000000000000000000000000000000000A
:1036C00000000000000000000000000000000000FA
:1036D0000000000000000000000000D8DCBAA2F1E9
:1036E000DEB2B8B4A88191F74A907F916AF3F9DB12
:1036F000A8F9B0BAA080F2CE81F3C2F1C1F2C3F34F
:10370000CCA2B280F1C6D880BAA7DFDFDFF2A7C3B0
:10371000CBC5B6F087A2942448703C9540683458D5
:103720009B78A2F183922D557DD8B1B4B8A1D091E8
:1037300080F270F370F27C80A8F101B09887D943D1
:10374000D886C988BAA1F20EB89780F1A9DFDFDF69
:10375000AADFDFDFF2AAC5CDC7A90CC92C979797BE
:1037600097F1A989264666B0B4BA80ACDEF2CAF1F8
:10377000B28C02A9B69800890E161EB8A9B4992C6D
:10378000547CB08AA896365676F1B9AFB4B083C0EF
:10379000B8A89711B18F98B9AFF0240844106418F5
:1037A000F1A329557DAF83B593AFF0002850F1A365
:1037B000869F61A6DADEDFD9FAA38696DB31A6D929
:1037C000F8DFBAA68FC2C5C7B28CC1B8A2DFDFDFEF
:1037D000A3DFDFDFD8D8F1B8A8B286B4980D355D85
:1037E000B8AA98B0872D353DB2B6BAAF8C96198F6E
:1037F0009FA70E161EB49AB8AA872C547CB9A3DED4
:10380000DFDFA3B180F2C4CDC9F1B8A9B499830DAB
:10381000355D89B9A32D557DB593A30E161EA92C30
:10382000547CB8B4B0F19783A81184A50998A383F8
:10383000F0DA240844106418D8F1A529557DA5852F
:1038400095021A2E3A565A4048F9F3A3D9F8F0983F
:10385000832408441064189782A8F111F098A224D8
:103860000844106418DAF3DED883A59401D9A302C2
:10387000F1A2C3C5C7D8F18492A24DDA2AD848690B
:10388000D92AD86855DA32D85071D932D8705DDA71
:103890003AD85879D93AD87893A34DDA2AD84869D2
:1038A000D92AD86855DA32D85071D932D8705DDA51
:1038B0003AD85879D93AD878A88A9AF02850789E78
:1038C000F38818F19F1D98A8D908D8C89F129EF3B5
:1038D00015A8DA1210D8F1AFC8978734B5B994A4F7
:1038E00021F3D922D8F22DF3D92AD8F235F3D932DF
:1038F000D881A4606061D961D86C6869D969D874CD
:103900007071D971D8B1A384193D5DA3831A3E5E4D
:10391000931030811011B8B0AF8F94F2DA3ED8B462
:103920009AA88729DAF8D8879A35DAF8D8879A3D9D
:10393000DAF8D8B1B9A49885022E56A581000C14E6
:10394000A397B08AF12DD928D84DD948D86DD96818
:10395000D8B1840DDA0ED8A32983DA2C0ED8A3842B
:103960004983DA2C4C0ED8B8B0A88A9AF520AADA86
:10397000DFD8A840AAD0DADED8A860AADAD0DFD88B
:10398000F19786A8319B069907AB9728889BF00C86
:10399000201440B8B0B4A88C9CF0042851791D3094
:1039A0001438B282ABD0982C505078789BF11AB072
:1039B000F08A9CA82951798B2951798A2470598BD6
:1039C0002058718A4469388B3940688A6448318B41
:1039D000304960A58820097158446811396449301C
:1039E00019F1AC002C547CF08CA804285078F18894
:1039F0009726A85998AC8C02264666F0899CA8297F
:103A00005179247059446938644831A9880920598A
:103A100070AB11384069A8193148608CA83C415CF2
:103A2000207C00F187981986A86E767EA999882D4A
:103A3000557D9EB9A38A228A6E8A568A5E9FB1837B
:103A4000062646660E2E4E6E9DB8AD002C547CF2B6
:103A5000B18CB499B9A32D557D8191AC38AD3AB5EF
:103A60008391AC2DD928D84DD948D86DD968D88C38
:103A70009DAE29D904AED851D904AED879D904D88D
:103A800081F39DAD008DAE1981ADD901D8F2AEDACA
:103A900026D88E912983A7D9ADADADADF32AD8D85C
:103AA000F1B0AC89913E5E76F3AC2E2EF1B18C5A1A
:103AB0009CAC2C2828289CAC3018A8988128343C31
:103AC0009724A728343C9C24F2B089AC912C4C6CF0
:103AD0008A9B2DD9D8D851D9D8D879D9D8D8F19EA0
:103AE00088A331DAD8D8912DD928D84DD948D86DA6
:103AF000D968D8B18393353D8025DAD8D88569DA7D
:103B0000D8D8B49381A328343CF3AB8BF8A391B6F7
:103B100009B4D9ABDEFAB0879CB9A3DDF1A3A3A3A6
:103B2000A395F1A3A3A39DF1A3A3A3A3F2A3B49090
:103B300080F2A3A3A3A3A3A3A3A3A3A3B2A3A3A31A
:103B4000A3A3A3B087B599F1A3A3A398F1A3A3A3BB
:103B5000A397A3A3A3A3F39BA3A3DCB9A7F1262652
:103B600026D8D8FF00000000000000000000000080
:103B70000000000000000000000000000000000045
:103B80000000000000000000000000000000000035
:103B90000000000000000000000000000000000025
:103BA0000000000000000000000000000000000015
:103BB0000000000000000000000000000000000005
:103BC00000000000000000000000000000000000F5
:103BD00000000000000000000000004661696C6504
:103BE0006420746F20626F6F74204D5055363030F2
:103BF0003020352074696D6573004D505536303076
:103C0000303A20556E61626C6520746F2067657470
:103C10002073656D6170686F72650050414E494355
:103C20003A206661696C656420746F2074616B650D
:103C3000205350492073656D6170686F7265203143
:103C400030302074696D657320696E2041505F4982
:103C50006E65727469616C53656E736F725F4D50FF
:103C600055363030303A3A5F726561645F64617432
:103C7000615F66726F6D5F74696D657270726F639C
:103C80006573730050414E49433A2041505F496E7D
:103C900065727469616C53656E736F725F4D5055D8
:103CA000363030303A3A5F706F6C6C5F64617461CB
:103CB000206661696C656420746F2074616B652097
:103CC0005350492073656D6170686F726520737918
:103CD0006E6368726F6E6F75736C790050414E49F8
:103CE000433A2041505F496E65727469616C536557
:103CF0006E736F725F4D5055363030303A3A5F64B4
:103D00006174615F7265616479206661696C656484
:103D100020746F2074616B65205350492073656D6A
:103D20006170686F72652073796E6368726F6E6F11
:103D300075736C790050414E49433A2041505F49B8
:103D40006E65727469616C53656E736F725F4D500E
:103D500055363030303A3A75706461746520776159
:103D6000697465642035306D7320666F72206461FC
:103D700074612066726F6D20696E74657272757001
:103D8000740050414E49433A206661696C65642075
:103D9000746F20626F6F74204D5055363030302074
:103DA000352074696D6573004D50553630303020C4
:103DB00073746172747570206661696C65643A2011
:103DC0006E6F20646174612072656164790054696A
:103DD0006D6564206F75742077616974696E672002
:103DE000666F72207573657220726573706F6E7383
:103DF000650004024750535F4741494E00000000F0
:103E0000000000000028000000803F0103475053DD
:103E10005F555345000000000000000000002C002A
:103E20000000803F04045941575F5000000000002B
:103E30000000000000000020009A99993E040552FD
:103E4000505F500000000000000000000000000073
:103E500024009A99993E010657494E445F4D4158B6
:103E60000000000000000000002D00000000000520
:103E7000085452494D0000000000000000000000FE
:103E800000003D000000000001094F5249454E541A
:103E90004154494F4E0000000000002E0000000079
:103EA00000040A434F4D505F42455441000000005A
:103EB000000000001C00CDCCCC3D010B4750535FEF
:103EC0004D494E534154530000000000002F0000A4
:103ED00000C04000FF0000000000000000000000E3
:103EE000000000000000000000000000040050007E
:103EF00000000000000000000000000000000000C2
:103F00000000000000040149000000000000000063
:103F10000000000000000000040000000000040297
:103F2000440000000000000000000000000000004D
:103F3000000800000000000203494D415800000045
:103F4000000000000000000000000C000000000065
:103F500000FF000000000000000000000000000062
:103F600000000000000000000002004D494E00006B
:103F70000000000000000000000000000A000080B7
:103F8000894402015452494D000000000000000025
:103F900000000000000C000080BB4402024D4158AC
:103FA00000000000000000000000000000000E0003
:103FB0000080ED440103524556000000000000005F
:103FC0000000000000000010000000803F020444D8
:103FD0005A00000000000000000000000000000087
:103FE00011000000000000FF0000000000000000C1
:103FF00000000000000000000000000000000008B9
:1040000000000000000000000000000000000000B0
:1040100000000000693F0000010146554E4354492D
:104020004F4E0000000000000000001D00000000D6
:104030000000FF0000000000000000000000000081
:104040000000000000000000000001005452494739
:10405000475F545950450000000000000000000078
:1040600000000001014455524154494F4E000000E8
:104070000000000000000100000020410202534542
:1040800052564F5F4F4E000000000000000000023B
:10409000000080A2440203534552564F5F4F4646EC
:1040A000000000000000000004000080894400FFC0
:1040B0000000000000000000000000000000000000
:1040C000000000000000000100454E41424C450048
:1040D000000000000000000000000B000000803F16
:1040E00001015553450000000000000000000000E1
:1040F0000000000A000000000004024F464653453D
:104100005400000000000000000000000200000059
:1041100000000403524154494F0000000000000019
:1041200000000000000600492EFF3F00FF000000D5
:10413000000000000000000000000000000000007F
:104140000000000004004F4D454741000000000002
:104150000000000000000000000000803F04014B50
:104160005F500000000000000000000000000000A0
:104170000400CDCCCC3E04024B5F440000000000A4
:104180000000000000000000000800000000000423
:10419000034B5F4900000000000000000000000029
:1041A00000000C00000000000204524D41585F5511
:1041B00000000000000000000000001000000000EF
:1041C000000205524D41585F44000000000000000D
:1041D0000000000012000000000004064B5F524C7B
:1041E0004C0000000000000000000000001400006F
:1041F00000803F00FF000000000000000000000001
:1042000000000000000000000000000004004F4D0E
:1042100045474100000000000000000000000000D1
:10422000000000803F04014B5F50000000000000D0
:1042300000000000000000000400CDCCCC3E0402D1
:104240004B5F440000000000000000000000000080
:104250000008000000000004034B5F49000000005C
:10426000000000000000000000000C000000000042
:104270000204524D41580000000000000000000000
:1042800000000010000000704200FF00000000006D
:10429000000000000000000000000000000000001E
:1042A000000004004B5F410000000000000000001F
:1042B000000000000000000000000004014B5F4906
:1042C00000000000000000000000000000000400EA
:1042D0000000000004024B5F4400000000000000EA
:1042E0000000000000000008000000000004034B74
:1042F0005F524C4C00000000000000000000000075
:104300000C000000803F00FF0000000000000000E3
:10431000000000000000000000000000000000326B
:104320007C8900EDD968770000005900000000008A
:10433000000000D69FDCA81817AA90437327F6B98F
:1043400068EDF4DED409FEE61C1C84DDE80B992937
:1043500027D6DF8D210F036418EFEE1EF0B782829F
:1043600000941500F37C0000001400988F00007F7B
:104370006A00000000000000E7B73F3600000000C0
:10438000000000AF669ED0385D00000000EB5D7C51
:10439000000000000000000000000000000000001D
:1043A000000000000000000000000000000000000D
:1043B00000002AF10F86DBD0BC5416131586004E80
:1043C00044BD7F6F15159001EA49B51653000000F2
:1043D00000000000000000000000000000000000DD
:1043E00000000000000000000000000000000000CD
:1043F00000000000000000000000000000000000BD
:1044000000000000000000000000000000000000AC
:104410000000000000000000CC31AA2C532E000147
:10442000004D4F4445000000000000000000000067
:10443000000036000000000005015245545241437F
:1044400054000000000000000000004700000000D1
:104450000005024E45555452414C0000000000003A
:10446000000000005300000000000503434F4E54BD
:10447000524F4C000000000000000000005F0000F0
:104480000000000104535441425F524F4C4C000065
:10449000000000000000330000000000010553543C
:1044A00041425F54494C54000000000000000034B9
:1044B00000000000000106535441425F50414E008D
:1044C00000000000000000003500000000000107AF
:1044D00052435F494E5F524F4C4C000000000000B9
:1044E000003700000000000208414E474D494E5F72
:1044F000524F4C000000000000003A0000A08CC5A4
:104500000209414E474D41585F524F4C0000000098
:104510000000003C0000A08C45010A52435F494E58
:104520005F54494C540000000000000038000000B7
:104530000000020B414E474D494E5F54494C00006C
:1045400000000000003E0000A08CC5020C414E4758
:104550004D41585F54494C000000000000004000ED
:1045600000A08C45010D52435F494E5F50414E0003
:1045700000000000000000390000000000020E41B1
:104580004E474D494E5F50414E0000000000000074
:10459000420000A08CC5020F414E474D41585F506C
:1045A000414E00000000000000440000A08C4501C6
:1045B000104A535449434B5F5350440000000000DD
:1045C000000046000000000000FF000000000000A6
:1045D00000000000000000000000000000000000DB
:1045E0000096918C87827D78736E69645F5A55500E
:1045F0004B46413C37322D28231E19140F0A050063
:1046000004090E13181D22272C31363B40454A4F12
:1046100054595E63686D72777C81868B90959A9F02
:10462000A4A9AEB3AFAAA5A09B968F89837E787309
:104630006E69645F5A55504B47423E3935302C27DE
:10464000231F1B16120E09050103070B1014191D59
:1046500022262B2F34393D42474C51565B60656B07
:1046600070757B80868C92979DA3A9AFB2ACA6A0F3
:104670009A948F827C76706B65605C57524E4A4686
:10468000413D3936322E2A26221F1B1713100C08E3
:10469000040102060A0E12161A1E22262B2F333888
:1046A0003D41464B4F54595E64696F747A80878DE3
:1046B000949BA2AAB1AEA69F979089826F68635E11
:1046C0005955514D4946423F3C3835322E2B28240E
:1046D000211E1A1714100D0A0603000306090D10F7
:1046E00014181C2024282C3034393D41464A4F549C
:1046F000585D62676D737980878F98A2ACB0A59A78
:1047000090867D766F55514D4A4744413F3C3A383B
:104710003533312E2B292623201D1A1713100D0A8D
:10472000070401010306090D1013171A1E22262A79
:104730002E32363A3E42464A4E53575B5F64696EAC
:10474000757C85909FB2A08D7D7067605A553E3C08
:104750003A393736343332302F2E2C2A2927242267
:104760001F1C191613100D0A070402000305080A7E
:104770000D1013161A1D2125292D3135383C4043C3
:10478000464A4D505356595B5E6165696F826D5460
:104790004D4A474442403E2E2E2D2C2C2B2A2A29AE
:1047A00029282726252423211F1C1A1714100D0A37
:1047B00007040101030507090C0E1013161A1D2129
:1047C00024282C3033373A3D40424447484A4A4B2C
:1047D0004A48443D3019021621282B2D2E2F2E2E0B
:1047E00006090C0F121517191B1C1B1811040E2299
:1047F00031383C3C3C3A3835322F2B2824201C19C8
:1048000015110D09050102060A0E1115181C1F22AB
:104810002527292A2B2B2926211911080004080AEB
:104820000A0A0807040200030616181A1C1E202193
:104830001F1712516063625F5D5956524E4A4642DD
:104840003E3935312C2824201B17130E0A0601028D
:10485000060A0F13171B1F23262A2D313437393C24
:104860003D3F3F3E3D39352F28211C1715131313AB
:104870001416A8ADB2B0ABA6A19C97928D88837E8A
:1048800079746F6A65605B56514C47423D38332EF0
:1048900029241F1A15100B060103080D12171C21DD
:1048A000262B30353A3F44494E53585D62676C7150
:1048B000767B80858A8F94999EA3A800000001FFD3
:1048C000FFE000000000000001FFFFF0000000001A
:1048D000000001FFFFF800000000000001FFFFFEE4
:1048E00000000000000003FFFFFF000000000000C8
:1048F00003FFFFFFF000000000000FFFFFFFFE00BE
:10490000000003FFFFFC000007FC00007FFFFFFC2E
:10491000000000000000001FFFFE00000000002457
:104920001E191512100E0C0B0A09090908080807B0
:10493000060605040404030404040000000000004B
:104940000000000027262123252325242722292AA9
:104950002A1C27282B33322725222C3331303700CD
:104960000000000000000000008011401140713282
:10497000733433321312113211129334131453520D
:10498000310021030406080B2D0A09070504024122
:10499000C011C05112535473121112515273147337
:1049A000323100210204050607080908060706241B
:1049B00003020102000120012011C0011100313267
:1049C000137413143312F112D31251000102232570
:1049D000060746442342210001E0A0313213B433DC
:1049E0001112110011201100523312133211200143
:1049F000222485042304020342410001E0A0511255
:104A0000141315131534133251400120115213326F
:104A100031000122230405040504230103826120DF
:104A200001E0118011321354151433323140210248
:104A3000010031723141022344230201220122018B
:104A400002614001A0118051121413341514331265
:104A500031400102010302012052111220212243A0
:104A6000042241022102A10001E0201140515374AF
:104A7000133211402102030203020100111211320C
:104A800000114122232221004102A1800160116016
:104A90001100113233741312114001620302032119
:104AA0003112111211400102010203020100010042
:104AB000E121E0A01120121173343331200162038F
:104AC00062401211121100110100010201220001C5
:104AD000200100E1C0010011801100121113121415
:104AE0001334522001E20221203112110011000181
:104AF00000210201000140210002410001E060119B
:104B00004011121113121413141332110021220335
:104B100042010221000100110012110011200100C8
:104B200041600100C100014011200160114051129B
:104B30001312131433123100014203220102210027
:104B400001401100310011000100010001A0E1004D
:104B500001A00180112031529312110021C22100C5
:104B60002140310011201100010001E0E16001E06D
:104B7000110011727312310021420301020102205F
:104B8000214011001120116001401160010001025B
:104B90002102000120014001A051321312533211B1
:104BA0002001020182210021000100110031E000FA
:104BB0001100116021000102010201010021200108
:104BC000000160110011521312141352110041829E
:104BD000010200010021401100110011A01100315B
:104BE0000011208122010100020100210001601159
:104BF0000052131213141332310100020122014238
:104C0000010021000100011120110011201140714B
:104C100000114001022102010201002102210001D4
:104C2000000100110012111233123413321120014D
:104C30000201420122010041000160112011001116
:104C40000011005112312061020122020002010212
:104C500081201100121173341332110041020182BC
:104C600001006100018011001100913231402142A8
:104C700001020200626140115214135433310041A9
:104C80008201220001020041000160911211525183
:104C900020012201030102020082610051335415F8
:104CA000143331002102012203424102A1803192DA
:104CB00013323100412203020103002203220102C8
:104CC00001401112339533310100220103420322C6
:104CD00021220102610001110011521312531231FD
:104CE0000041220322030023020302010221203299
:104CF000131416151716153311200162030203024F
:104D0000032201A241401112531413141332110152
:104D10000002010203020302020002230203222115
:104D2000203214163718171513121100212203020E
:104D3000430243010302038221201112131415348C
:104D400015143211000162230203004302034201E1
:104D50002012131518193A17151311002102030216
:104D60006304E30203020302010240121314151745
:104D70001516341220212243020300A32201001140
:104D80001215181C1E1D191613110002010302032F
:104D900004230403240304430423040302034220E2
:104DA00011121415171836151331210203022302AC
:104DB0000350414E49433A2044617461466C61732B
:104DC0006820535049446576696365447269766525
:104DD000722073656D6170686F7265206973206EF3
:104DE000756C6C0050414E49433A204461746146F1
:104DF0006C617368205350494465766963654472F9
:104E000069766572206E6F7420666F756E64004CF3
:104E10006F672025752C2020202073746172742008
:104E200025752C202020656E642025750A000A2532
:104E300075206C6F67730A000A4E6F206C6F677382
:104E40000A0A004E756D50616765733A202575201A
:104E5000205061676553697A653A2025750A004DCF
:104E6000616E7566616374757265723A203078257B
:104E70003032782020204465766963653A203078A6
:104E8000253034780A004E6F2064617461666C616D
:104E9000736820696E7365727465640025750A0015
:104EA00025752C0900444620706167652C206C6FC5
:104EB000672066696C6520232C206C6F6720706109
:104EC00067653A2025752C09002C200025730025E4
:104ED0007300257300252E326600252E32660025CC
:104EE0002E326600252E326600256600256C750080
:104EF000256C640025750025640025750025640077
:104F000025532C2000554E4B4E2C2025750A0004AD
:104F100000504552494F44000000000000000000CE
:104F200000001D000000C841040144414D50494E9D
:104F300047000000000000000000002100000040C9
:104F40003F00FF0000000000000000000000000023
:104F5000000000000000000000004572726F723A0D
:104F60002041505F48414C5F4156523A3A415652B7
:104F7000416E616C6F67496E206F7574206F66209B
:104F80006368616E6E656C730D0A00474F494E474A
:104F900020444F574E20464F522041205245424F09
:104FA0004F540D0A0050414E49433A2073636865DF
:104FB00064756C65723A3A73797374656D5F696E86
:104FC000697469616C697A65642063616C6C65649D
:104FD0006D6F7265207468616E206F6E636500503E
:104FE000414E49433A2041565253656D6170686F96
:104FF00072653A3A74616B652075736564206672F8
:105000006F6D20696E736964652074696D657220C7
:1050100070726F636573730050414E49433A205379
:1050200050493020777269746520636F6C6C6973C6
:10503000696F6E0050414E49433A20535049302029
:105040007472616E7366657220636F6C6C697369EC
:105050006F6E0000407A10F35A00A0724E180900DB
:1050600010A5D4E80000E87648170000E40B5402CD
:105070000000CA9A3B000000E1F505000080969808
:1050800000000040420F000000A086010000001058
:105090002700000000E8030000000064000000009A
:1050A000000A00000000000100000000002C76D87B
:1050B00088DC674F0823DFC1DFAE59E1B1B796E561
:1050C000E3E453C63AE651997696E8E6C28426EBC5
:1050D000898C9B62ED407C6FFCEFBC9C9F40F2BAD8
:1050E000A56FA5F490055A2AF75C936B6CF9676D70
:1050F000C11BFCE0E40D47FEF520E6B500D0ED90C5
:105100002E0300943577050080841E080000204E91
:105110000A000000C80C333333330F986E1283112A
:1051200041EF8D2114893BE65516CFFEE6DB18D101
:10513000844B381BF77C1D901DA4BBE424203284D3
:10514000725E228100C9F124ECA1E53D2700002117
:1051500000240027002A002D003000330001010048
:1051600000040107010A0100002200250028002B8D
:10517000002E003100340002010000050108010B7F
:1051800001000020002300260029002C002F0032FF
:1051900000000100000301060109010505050507DE
:1051A0000508080808020202020A0A0808040404A2
:1051B00004010101010101010103030303030303CE
:1051C00003040707070C0C0C0C0C0C0C0C0202025D
:1051D0000206060606060606060B0B0B0B0B0B0B50
:1051E0000B050102102020080810204010204080EC
:1051F000020102010804020101020408102040809B
:105200008040201008040201800402018040201028
:105210000804020108040201010204081020408071
:105220000102040810204080400000090A02080B17
:105230000C0D070603040100000000000000000040
:10524000000000000000000000000000000000005E
:10525000000000000011100F00000000000000001E
:10526000000000000000000000000000000000003E
:105270006E616E00696E6600494E46494E4954594A
:105280004E414ECDCCCC3D0AD7233C17B7D1387711
:10529000CC2B329595E6241FB14F0A000020410027
:1052A00000C84200401C4620BCBE4CCA1B0E5AAE71
:1052B000C59D74000D94EE5E0D949E5F0D94017576
:1052C0000D9497400D9493750D94AC390D944B1635
:1052D0000D94385C0D9473030D94211B0D949B2247
:1052E0000D946B400D94245E0D9497750D94133AB4
:1052F0000D94542A0D94DA7D0D941F750D944E75FE
:105300000D94D5750D94B15C0D94DD050D941226A8
:105310000D94C0390D94B67E0D947F750D94AB74C9
:105320000D94C7740D9482610D94F3190D94916AD4
:105330000D94EC680D9455570D94746F0D9426746C
:105340000D94C91B0D9472150D94A3700D94667481
:105350000D94616B0D94A0120D94146B0D94EE7569
:105360000D94B86B0D94776F0D94CB750D94D30F8E
:105370000D94F81F0D946D530D9471200D94577674
:105380000D9470750D9498250D942B210D94A03ECD
:105390000D9405750D947D200D944D730D949E1BF9
:1053A0000D946C170D94BB4F0D9467200D94510410
:1053B0000D947A5E0D94A57D0D9438790D94880432
:1053C0000D94B34E0D94F2680D945C5D0D94CA7FFC
:1053D0000D94297B0D94E25F0D94315D0D94996FCE
:1053E0000D94197B0D945D740D94DC1B0D9488381D
:1053F0000D94F45E0D94647B0D94E3050D945613A7
:105400000D94286B0D94B76F0D94037E0D943A5C48
:105410000D94B9500D94E47F0D9462640D94C174A1
:105420000D94203D0D94FD740D9432770D94B55F6D
:105430000D947E1F0D94F87C0D94B5740D94BF519E
:105440000D94FF5A0D945F580D94485F0D94EA5FD8
:105450000D94A87F0D94073C0D9480570D942D3921
:105460000D94A5550D9457610D94D55C0D944F5E28
:105470000D9415170D9482600D94DA750D944052B9
:105480000D940D730D9499740D94FA6B0D94706FC7
:105490000D9466280D94986B0D9457160D942475F1
:1054A0000D9480560D942D590D949C6C0D94A53936
:1054B0000D947A7C0D9485170D94DF5F0D94F41E86
:1054C0000D942D6B0D94FD540D94B03F0D94F37C11
:1054D0000D945D7C0D9421770D94781A0D94495CA0
:1054E0000D946B770D9438770D94C0060D94CA7C9B
:1054F0000D94885B0D94B7420D945F7F0D94737487
:105500000D94A57B0D94AA320D9406760D94132B61
:105510000D94A7360D94A7740D94DE090D942216F0
:105520000D94A76F0D9486740D94537E0D94486C62
:105530000D94E07C0D94BC590D949C260D94FD7D3A
:105540000D94045D0D94966F0D94791B0D945D7F01
:105550000D94297C0D947F550D94144D0D94CB6FB3
:105560000D9479550D94926B0D94C75D0D941D7E2D
:105570000D942B750D94BE350D94316B0D941375F0
:105580000D9461720D94F7740D94D7420D94C54F2C
:105590000D946B750D94317E0D94F87D0D94916092
:1055A0000D942F510D94027B0D94A77B0D947D7665
:1055B0000D9427770D9404680D9465780D940F75FC
:1055C0000D94013A0D9432720D9448150D94193AC8
:1055D0000D9482040D94A85E0D94B0390D9453710E
:1055E0000D94F07C0D9430760D94887F0D94A97005
:1055F0000D94692B0D9461760D9425210D944845E9
:105600000D94786A0D94DF680D94D4400D94BF50CA
:105610000D9472780D94CD7B0D94EE1E0D943D404B
:105620000D941A600D948C5C0D9418030D948F7476
:105630000D9458760D94436B0D94C0200D94C07456
:105640000D9402730D9478740D94404C0D94317B3D
:105650000D94387C0D943C360D942E6B0D94995D11
:105660000D94EA7F0D940A210D941C560D9400763A
:105670000D94D16C0D94177E0D94217C0D947F6B4D
:105680000D947E1A0D948F1B0D949E6B0D943359BF
:105690000D94FE1F0D94D0750D9489750D94781F8F
:1056A0000D9493740D94FC680D94C33E0D9469544D
:1056B0000D942E7B0D94F54E0D94335A0D94696E16
:1056C0000D946E740D94CA7B0D944D680D941975EC
:1056D0000D9463540D94F53D0D9442180D940D5E98
:1056E0000D94745C0D945E7B0D947B6F0D94376903
:1056F0000D9469740D943F5A0D94F31B0D94E97544
:105700000D94C6060D94B8780D94813F0D946A6C83
:105710000D94AF740D949D410D9436760D9471687F
:105720000D94855A0D949E750D94706B0D94AF1267
:105730000D9464760D94CB210D94EF6E0D941F6C37
:105740000D9461460D94BB740D9488470D94C3521B
:105750000D94A5450D94460C0D9498750D94C74570
:105760000D94FF700D94F3710D9422540D94E05636
:105770000D94B9270D94731B0D9402400D94F37D85
:105780000D9447500D9411790D94346B0D945D7602
:105790000D9404210D94B96C0D9469760D94EA78FA
:1057A0000D943C180D9465770D9497600D94A37B30
:1057B0000D94DF750D9467770D946C200D947A75B8
:1057C0000D94A2800D9475750D94F95A0D94B26BD9
:1057D0000D94937C0D940B750D94E0130D94CB4FA9
:1057E0000D9428580D9469770D94DD760D94F91970
:1057F0000D944E4E0D94EA740D941E030D94B07EDC
:105800000D9484750D94526B0D94CD0F0D94A432AC
:105810000D94CC6B0D94E4750D9431330D94BE78DA
:105820000D9470390D940B570D94B5720D942B7B1C
:105830000D94827F0D94A7760D94977D0D945A0256
:105840000D944C0C0D94F8750D9403550D94BA39C4
:105850000D94DF3C0D946E7C0D94B47B0D94427DD1
:105860000D94E4090D94266C0D948E750D94BF75FE
:105870000D94EF680D948B710D947C610D94826C86
:105880000D948B7A0D94587D0D940E130D94517ACE
:105890000D9466750D94AE7F0D946F6E0D948C6BA8
:1058A0000D9465580D94A2260D942C6B0D94027ADC
:1058B0000D94C8750D9458700D9425750D94A67AA5
:1058C0000D9468640D94D37B0D94717D0D949D743B
:1058D0000D94AC7A0D942F720D94A1740D94224105
:1058E0000D94F3750D94ED720D944D500D94AF5FC2
:1058F0000D94A16F0D94EB570D9479030D943551D0
:105900000D94227C0D94F3740D944C350D94917A82
:105910000D94C47F005090E08E2A9C2B162C582B9F
:10592000622B11241FBECFEFD1E2DEBFCDBF00E05E
:105930000CBF16E0A0E0B2E0EEE4F3E103E00BBF41
:1059400002C007900D92AE32B107D9F71BBE13E12A
:10595000AEE2B6E001C01D92AF3BB107E1F719E539
:10596000C2E2D9E504C02297FE010F948E89C431AA
:10597000D107C9F70E94E8B20D94A5890C940000E4
:10598000283008F027E03327DA01990F311D87FD11
:10599000916000966105710539F432602E5F3D9388
:1059A00030E32A95E1F708959F3F30F08038710584
:1059B000610509F03C5F3C5F3D93913008F08068E1
:1059C000911DDF93CF931F930F93FF92EF92192FA7
:1059D000987F9695E92F96959695E90FFF27E355C1
:1059E000FF4A99273327EE24FF24A701E7010590FA
:1059F0000894079428F4360FE71EF81E491F511D1E
:105A0000660F771F881F991F0694A1F705900794CA
:105A100028F4E70EF81E491F561FC11D770F881F77
:105A2000991F661F0694A1F70590079428F4F80EB5
:105A3000491F561FC71FD11D880F991F661F771F4B
:105A40000694A1F70590079420F4490F561FC71F2D
:105A5000D81F990F661F771F881F0694A9F7849196
:105A60001095177041F0D695C79557954795F794BF
:105A7000E7941A95C1F7E3E5F0E568941590159160
:105A800035916591959105907FE27395E118F10A42
:105A9000430B560BC90BD009C0F7E10CF11E431F95
:105AA000561FC91FD01D7EF4703311F48A95E6CFBE
:105AB000E894015030F0080F0AF40027021708F4A8
:105AC000202F2395022F7A3328F079E37D932A95AE
:105AD000E9F710C07D932A9589F606949795679506
