:100000000C94BD150C942EF30C945FF30C9490F3A8
:100010000C94C1F30C94F2F30C9423F40C9454F468
:100020000C9485F40C9433B40C94EA150C9460A6EB
:100030000C94EA150C94EA150C94EA150C94D9A5C5
:100040000C94EA150C94EA150C94EA150C94EA1534
:100050000C94EFA80C94EA150C94EA150C94B6F4E1
:100060000C94EA150C9420200C9460200C94EA1552
:100070000C94EA150C94EA150C94EA150C94EA1504
:100080000C94EA150C94EA150C94EA150C94C9A882
:100090000C94EA150C94EA150C94EA150C9453B1DF
:1000A0000C94EA150C9406A60C94EA150C94EA1527
:1000B0000C94EA150C94A3A80C9433A60C94F3B3F7
:1000C0000C9416A80C94EA150C941AB40C94B22053
:1000D0000C94F2200C94EA150C9444210C94842185
:1000E0000C94EA159752B052B8529F52A852C0527F
:1000F0001553ED52E552DD52F552FD5205530D53A5
:10010000CD52D5522D531D533E5345534C535C5342
:100110005353036EDB363D9A9999993DABAAAA2AAF
:100120003E000000803F084AD73B3BCE016E84BCB6
:10013000BFFDC12F3D6C74319ABD56833DDA3D0041
:10014000C77F11BED9E4BB4C3E916BAAAABE00008A
:1001500000803F072C7AA5BA6CC590DA3B9365FC0A
:100160008BBC53F810FD3C5692834DBD879D3AB62B
:100170003DCBC9BF5BBE73DA0FC93F05A84CCDB2FA
:10018000D44EB93836A9020C50B9918688083CA6DD
:10019000AAAA2ABE000000803F08000000BE9224E8
:1001A00049123EABAAAA2ABECDCCCC4C3E000000E0
:1001B00080BEABAAAAAA3E00000000BF00000080DB
:1001C0003F0000000000084178D3BB4387D1133DB6
:1001D000190E3CC3BD4282AD2B3E68EC8276BED97F
:1001E0008FE1A93E4C80EFFFBE01C4FF7F3F0000BE
:1001F00000000007634236B79BD8A71A3968561823
:10020000AEBAAB558C1D3CB7CC5763BD6DEDFD75DB
:100210003EF6177231BF000000803F020052415786
:100220005F53454E53000000000000003000000006
:1002300002014558545F535441540000000000002F
:100240000032000000020252435F4348414E00006A
:100250000000000000003400000002035241575F1C
:100260004354524C00000000000000360000000221
:1002700004504F534954494F4E0000000000000005
:10028000380000000205455854524131000000007A
:1002900000000000003A0000000206455854524198
:1002A000320000000000000000003C0000000207D7
:1002B0004558545241330000000000000000003E49
:1002C0000000000208504152414D53000000000060
:1002D000000000004000000000FF000000000000DF
:1002E00000000000000000000000000000706C61D1
:1002F0006E6E65720067637300000000000000000E
:1003000000000042797365747570007265736574DE
:10031000000000000000000000CC4A726164696FB8
:10032000000000000000000000085A6D6F64657353
:100330000000000000000000008D596C6576656CBF
:100340000000000000000000001D6D636F6D706113
:10035000737300000000000000564A6465636C6916
:100360006E6174696F6E000000424A626174746568
:10037000727900000000000000134773686F770077
:10038000000000000000000000204A6572617365F3
:10039000000000000000000000D13341726475507D
:1003A0006C616E654E472056327820523620666F5B
:1003B000722041494F502076312E30206279204AF8
:1003C0004C4E006C6F6773000000000000000000DE
:1003D0000076267365747570000000000000000050
:1003E00000084A74657374000000000000000000FB
:1003F00000F04968656C700000000000000000001B
:1004000000A329706C616E6E657200000000000030
:1004100000D849746573740070776D0000000000A7
:100420000000000000001C59726164696F00000048
:10043000000000000000B158706173737468727539
:100440000000000000008E496661696C736166659A
:10045000000000000000B05762617474657279009A
:10046000000000000000755672656C6179000000A4
:10047000000000000000DD38776179706F696E74EC
:10048000730000000000CA37786265650000000054
:100490000000000000001F34656564756D70000089
:1004A000000000000000C8366D6F646573776974E2
:1004B00063680000000006366469707377697463CE
:1004C000686573000000333567707300000000003A
:1004D0000000000000005134726177677073000003
:1004E000000000000000F733696D75000000000097
:1004F000000000000000A0326169727370656564DD
:100500000000000000005E316169727072657373F3
:100510007572650000009C6B636F6D706173730092
:10052000000000000000652C6C6F6767696E670053
:100530000000000000005D28436F6D706173733A26
:1005400020006E6F74206865616C7468790048657E
:100550006164696E673A20256C642C2058595A3AB8
:100560002025642C2025642C2025640A0048697409
:1005700020456E74657220746F20657869742E0A48
:100580000A0061626C65640A0064697300656E004C
:10059000416C743A2025302E32666D2C20526177E2
:1005A0003A20256C642054656D70657261747572B3
:1005B000653A20252E31660A006E6F7420686561E9
:1005C0006C74687900556E63616C69627261746500
:1005D000642072656C6174697665206169727072FD
:1005E0006573737572650A006261726F6D6574651B
:1005F000722063616C6962726174696F6E20636FEF
:100600006D706C6574652E006162735F70726573E6
:100610007375726520256C640A00496E697469619E
:100620006C6973696E672041504D2E2E2E00252E69
:100630003166206D2F730A0061697273706565649D
:100640003A200061697273706565643A20006169DF
:100650007273706565645F63683A20252E31660A9F
:1006600000723A2534642020703A253464202079C1
:100670003A2533642020673D2825352E3166202514
:10068000352E31662025352E3166292020613D2802
:1006900025352E31662025352E31662025352E3123
:1006A00066290A002E004C61743A20256C642C20C7
:1006B0004C6F6E20256C642C20416C743A20256CA4
:1006C000646D2C2023736174733A2025640A004DF5
:1006D00069783A656C65766F6E732009726576206D
:1006E000656C65763A25642C2072657620636831E6
:1006F0003A25642C20726576206368323A25640AB4
:10070000004D69783A7374616E6461726420097295
:10071000657620726F6C6C3A25642C2072657620A9
:1007200070697463683A25642C207265762072754E
:10073000646465723A25640A00646970207377699D
:1007400074636865732064697361626C65642C20EE
:100750007573696E6720454550524F4D00506F7359
:100760006974696F6E2025640A00436F6E74726F3E
:100770006C20434820002025303278002530347822
:100780003A00426567696E205842656520582D43DE
:1007900054552052616E676520616E642052535338
:1007A0004920546573743A0A004C6F69746572206D
:1007B0007261646975733A2025640A0A0048697495
:1007C000207261646975733A2025640A00256420EB
:1007D000776179706F696E74730A00486F6C64207A
:1007E000616C746974756465206F662025646D0A98
:1007F00000486F6C642063757272656E7420616C62
:100800007469747564650A00636F6D6D616E642050
:10081000233A2025642069643A2564206F70746946
:100820006F6E733A25642070313A25642070323A35
:10083000256C642070333A256C642070343A256C42
:1008400064200A0052656C6179206F66660A005266
:10085000656C6179206F6E0A004E6F7420656E6161
:10086000626C65640A00563A2025342E34662C20CA
:10087000413A2025342E34662C206D41683A2025DB
:10088000342E34660A00563A2025342E34660A0087
:100890004D5347204653204F4646202575004D5363
:1008A00047204653204F4E202575004C4F53206360
:1008B0006175736564206E6F206368616E67652083
:1008C000696E2041504D2E0A005448524F54544CEA
:1008D00045204641494C53414645204143544956E1
:1008E000415445443A2025642C2000434F4E545235
:1008F0004F4C204D4F4445204348414E4745443AD4
:1009000020005448524F54544C45204348414E47D0
:100910004544202564200A00556E706C756720627E
:100920006174746572792C207468726F74746C656C
:1009300020696E206E65757472616C2C20747572FE
:100940006E206F666620726164696F2E0A00494EE0
:100950002020313A202564092020323A20256409DC
:100960002020333A202564092020343A20256409C8
:100970002020353A202564092020363A20256409B4
:100980002020373A2025640A00494E3A09313A209E
:10099000256409323A20256409333A202564093454
:1009A0003A20256409353A20256409363A20256421
:1009B00009373A20256409383A2025640A00506C2A
:1009C000616E6E6572204D6F64650A0A54686973C2
:1009D000206D6F6465206973206E6F7420696E747A
:1009E000656E64656420666F72206D616E75616C02
:1009F000207573650A0A00436F6D6D616E64733A0A
:100A00000A20206C6F677320202020202020206C7B
:100A10006F6720726561646261636B2F73657475C3
:100A200070206D6F64650A202073657475702020D6
:100A300020202020207365747570206D6F64650A16
:100A400020207465737420202020202020207465CD
:100A50007374206D6F64650A0A4D6F766520746843
:100A60006520736C696465207377697463682061BD
:100A70006E6420726573657420746F20464C592E25
:100A80000A0A0054657374204D6F64650A0A0053A6
:100A900065747570204D6F64650A0A494D504F5258
:100AA00054414E543A20696620796F75206861760A
:100AB00065206E6F742070726576696F75736C79DE
:100AC0002073657420746869732073797374656D1D
:100AD0002075702C20757365207468650A2772650F
:100AE0007365742720636F6D6D616E6420746F2071
:100AF000696E697469616C697A65207468652045FE
:100B00004550524F4D20746F2073656E7369626C4F
:100B1000652064656661756C742076616C756573BB
:100B20000A616E64207468656E207468652027729F
:100B30006164696F2720636F6D6D616E6420746FEF
:100B400020636F6E66696775726520666F722079C3
:100B50006F757220726164696F2E0A0A000A5479F7
:100B600070652027592720616E64206869742045CC
:100B70006E74657220746F20657261736520616C9C
:100B80006C20776179706F696E7420616E6420707B
:100B90006172616D6574657220646174612C20619D
:100BA0006E79206F74686572206B657920746F2090
:100BB00061626F72743A2000646F6E650A000A45C4
:100BC000726173696E6720454550524F4D0A00525D
:100BD00061772056616C7565730A00526164696FB4
:100BE0000A004348383A202564207C202564207C74
:100BF0002025640A004348373A202564207C2025BC
:100C000064207C2025640A004348363A202564206D
:100C10007C202564207C2025640A004348353A2046
:100C20002564207C202564207C2025640A0043481C
:100C3000343A202564207C202564207C2025640A09
:100C4000004348333A202564207C202564207C2002
:100C500025640A004348323A202564207C2025641C
:100C6000207C2025640A004348313A202564207CFA
:100C7000202564207C2025640A004D6F6E69746F06
:100C800072696E6720766F6C747320616E64206386
:100C9000757272656E74004D6F6E69746F72696EF5
:100CA00067206261747420766F6C747300426174A3
:100CB00074206D6F6E69746F72696E6720646973FA
:100CC00061626C65640042617474204D6F696E747A
:100CD0006F720A006E617620706974636820616CBF
:100CE000743A0A00656E6572677279207468726F73
:100CF00074746C653A0A006E61762070697463687A
:100D00002061697273706565643A0A006E617620CD
:100D1000726F6C6C3A0A00736572766F207275643C
:100D20006465723A0A00736572766F207069746345
:100D3000683A0A00736572766F20726F6C6C3A0ABB
:100D4000004761696E730A00503A2025342E3366DD
:100D50002C20493A25342E33662C20443A25342E53
:100D600033662C20494D41583A256C640A0058548A
:100D70005241434B3A2025342E32660A5854524190
:100D8000434B20616E676C653A2025640A0043720C
:100D90006F7373747261636B0A006D696E3A20251C
:100DA000640A6D61783A2025640A63727569736517
:100DB0003A2025640A6661696C736166655F656ED9
:100DC00061626C65643A2025640A6661696C7361CE
:100DD00066655F76616C75653A2025640A00546823
:100DE000726F74746C650A00466C69676874206D74
:100DF0006F6465730A00506F732025643A200049C0
:100E00004D550A004779726F206F6666736574737B
:100E10003A2025342E32662C2025342E32662C20A2
:100E200025342E32660A00416363656C206F666666
:100E3000736574733A2025342E32662C2025342EA7
:100E400032662C2025342E32660A004D6167206FF1
:100E50006666736574733A2025342E34662C20251B
:100E6000342E34662C2025342E34660A004D6167FA
:100E7000204465636C696E6174696F6E3A20253435
:100E80002E34660A003F3F0048494C00484D433528
:100E900038343300484D43353838334C00436F6D98
:100EA000706173733A20002D000A4F7074696F6E81
:100EB000733A20332D34000A4F7074696F6E733AA1
:100EC0005B6F6E2C6F66662C72657365745D0A00CD
:100ED0007265736574006F666600436F6D70617351
:100EE0007320696E697469616C69736174696F6E8E
:100EF000206661696C656421006F6E003C737461EB
:100F0000727475705F67726F756E643E204E4F200D
:100F10006169727370656564003C737461727475A5
:100F2000705F67726F756E643E207A65726F2061C4
:100F3000697273706565642063616C696272617463
:100F4000656400426567696E6E696E6720494D553C
:100F50002063616C6962726174696F6E3B20646FBB
:100F6000206E6F74206D6F766520706C616E650009
:100F70005761726D696E67207570204144432E2E53
:100F80002E0044656D6F20536572766F7321000AE1
:100F90004D6F766520524320746F67676C652073D0
:100FA000776974636820746F206561636820706F6F
:100FB000736974696F6E20746F20656469742C2086
:100FC0006D6F76652061696C65726F6E20737469F0
:100FD000636B20746F2073656C656374206D6F6440
:100FE00065732E000A5361766564205365747469D5
:100FF0006E67730A0A000A4D6F766520616C6C207B
:10100000636F6E74726F6C7320746F2065616368B8
:101010002065787472656D652E2048697420456E70
:1010200074657220746F20736176653A200A000A35
:101030004E6F20726164696F3B20436865636B206B
:10104000636F6E6E6563746F72732E000A0A52616D
:1010500064696F2053657475703A0A000A4641430B
:10106000544F525920524553455420636F6D706C54
:10107000657465202D20706C6561736520726573E1
:1010800065742041504D20746F20636F6E74696EDB
:101090007565000A547970652027592720616E64B0
:1010A0002068697420456E74657220746F207065C5
:1010B00072666F726D20666163746F7279207265FB
:1010C0007365742C20616E79206F74686572206B73
:1010D000657920746F2061626F72743A2000696EC6
:1010E000697420686F6D65006261642066656E6377
:1010F0006520706F696E74006261642066656E635E
:101100006520706F696E740066656E63696E672036
:101110006D7573742062652064697361626C6564C7
:1011200000666C6967687420706C616E207265631C
:10113000656976656400636F6D6D616E64207265CC
:101140006365697665643A20005265636569766512
:10115000642052657175657374202D206A756D70F9
:1011600020746F20636F6D6D616E642023256900AC
:101170004261642052657175657374202D2063612E
:101180006E6E6F74206368616E676520746F206E89
:101190006F6E2D4E617620636D64004E6F6E2D4E26
:1011A000617620636F6D6D616E64204944207570B7
:1011B000646174656420746F20232569004E6F6E2E
:1011C0002D4E617620636F6D6D616E642049442001
:1011D0007570646174656420746F20232569006FE5
:1011E0007574206F6620636F6D6D616E647321008E
:1011F0004E617620636F6D6D616E6420696E64650B
:1012000078207570646174656420746F202325698B
:101210000052657475726E696E6720746F20486F36
:101220006D6500457865637574696E6720636F6DE1
:101230006D616E642049442023256900457865630B
:101240007574696E6720636F6D6D616E64204944CB
:101250002023256900457865637574696E6720638E
:101260006F6D6D616E6420494420232569007365AC
:101270007474696E6720636F6D6D616E6420696E52
:101280006465783A2025690073657474696E672017
:10129000636F6D6D616E6420696E6465783A2025B8
:1012A0006900496E206A756D702E20204A756D7038
:1012B00073206C6566743A202569002A2A2A205218
:1012C000544C0A002A2A2A2052544C0A002A2A2A5C
:1012D000204155544F0A002A2A2A2053544142499A
:1012E0004C495A450A002A2A2A204D414E55414C64
:1012F0000A00666C69676874206D6F6465203D2024
:101300002575004661696C73616665202D20536800
:101310006F7274206576656E74206F6E2C200046A7
:1013200061696C73616665202D2053686F7274204B
:101330006576656E74206F66660067656F2D6665FD
:101340006E636520747269676765726564006765BE
:101350006F2D66656E6365204F4B0067656F2D6668
:10136000656E6365207365747570206572726F7247
:101370000067656F2D66656E6365206C6F616465DF
:1013800064003C6E617669676174653E2057502049
:101390006572726F72202D2064697374616E63656B
:1013A000203C2030007665726966795F6E61763A1E
:1013B00020496E76616C6964206F72206E6F2063C5
:1013C000757272656E74204E617620636D64004D97
:1013D0006973736564205750005265616368656482
:1013E00020576179706F696E7420232569206469C4
:1013F00073742025756D00526561636865642057BC
:101400006179706F696E7420232569206469737433
:101410002025756D007665726966795F6E61763A32
:10142000204C4F49544552206F7262697473206397
:101430006F6D706C657465007665726966795F6E54
:1014400061763A204C4F495445522074696D6520AD
:10145000636F6D706C657465005265616368656487
:1014600020686F6D65007665726966795F636F6E7F
:101470006469746F6E3A20496E76616C6964206F9E
:1014800072206E6F2063757272656E7420436F6E8A
:10149000646974696F6E20636D6400666C69676867
:1014A00074206D6F6465203D202575004661696C70
:1014B00073616665202D204C6F6E67206576656EC2
:1014C00074206F6E2C20000A507265737320454E95
:1014D00054455220332074696D657320746F2073F6
:1014E0007461727420696E74657261637469766583
:1014F0002073657475700A0A000A0A496E697420BF
:1015000041726475506C616E654E4720563278208A
:10151000523620666F722041494F502076312E306E
:10152000206279204A4C4E0A0A4672656520524173
:101530004D3A2025750A0002464F524D41545F56E0
:10154000455253494F4E0000160A000001535953AB
:1015500049445F53575F54595045000001180A0031
:10156000000253595349445F544849534D41560072
:101570000070190A00000253595349445F4D5947FE
:10158000435300000000711B0A00000153455249FB
:10159000414C335F42415544000000721D0A000077
:1015A000044B46465F50544348434F4D50000000A3
:1015B000C81E0A0000044B46465F524444524D493F
:1015C0005800000000C9220A0000044B46465F5044
:1015D00054434832544852000000CA260A0000040E
:1015E0004B46465F5448523250544348000000CBAB
:1015F0002A0A0000014D414E55414C5F4C4556456D
:101600004C00000011720A0000045854524B5F470E
:1016100041494E5F5343000000962E0A00000258D5
:1016200054524B5F414E474C455F43440000973254
:101630000A000004414C545F4D495800000000006E
:1016400000000083340A00000441525350445F52AA
:101650004154494F0000000084380A000002415202
:101660005350445F4F46465345540000008E3C0A99
:10167000000001434D445F544F54414C00000000B2
:101680000000DD3F0A000001434D445F494E4445E0
:1016900058000000000000DE400A00000157505FC3
:1016A000524144495553000000000000DF410A0048
:1016B000000157505F4C4F495445525F524144001E
:1016C00000E0420A00000146454E43455F41435455
:1016D000494F4E000000E1430A00000146454E43D9
:1016E000455F544F54414C00000000E2440A0000A2
:1016F0000146454E43455F4348414E4E454C000030
:10170000E3450A00000246454E43455F4D494E41C0
:101710004C54000000E4460A00000246454E434592
:101720005F4D4158414C54000000E5480A0000015B
:1017300041525350445F4642575F4D494E00007836
:101740004A0A00000141525350445F4642575F4DE0
:1017500041580000794B0A0000015448525F4D493E
:101760004E0000000000000000AC4E0A00000154D2
:1017700048525F4D41580000000000000000AD4F8E
:101780000A0000015448525F534C4557524154459A
:10179000000000B4500A0000015448525F4641491D
:1017A0004C53414645000000AE510A000002544827
:1017B000525F46535F56414C5545000000AF520AF8
:1017C0000000015452494D5F5448524F54544C4507
:1017D0000000B0540A00000146535F53484F525472
:1017E0005F4143544E0000B1550A00000146535F6B
:1017F0004C4F4E475F4143544E000000B2560A0022
:10180000000146535F4743535F454E41424C000041
:1018100000B3570A000001464C544D4F44455F4306
:10182000480000000000D2580A000001464C544D08
:101830004F44453100000000000000D3590A000069
:1018400001464C544D4F444532000000000000005A
:10185000D45A0A000001464C544D4F444533000011
:101860000000000000D55B0A000001464C544D4FBB
:1018700044453400000000000000D65C0A0000016E
:10188000464C544D4F44453500000000000000D741
:101890005D0A000001464C544D4F4445360000009F
:1018A00000000000D85E0A0000024C494D5F524F14
:1018B0004C4C5F434400000000985F0A0000024C5B
:1018C000494D5F50495443485F4D4158000099616C
:1018D0000A0000024C494D5F50495443485F4D494E
:1018E0004E00009A630A0000015452494D5F415571
:1018F000544F00000000000002650A000001535729
:10190000495443485F454E41424C45000003660A36
:10191000000001454C45564F4E5F4D4958494E47D2
:10192000000006670A000001454C45564F4E5F52C5
:101930004556455253450007680A000001454C458D
:10194000564F4E5F4348315F5245560008690A00C2
:101950000001454C45564F4E5F4348325F52455655
:1019600000096A0A0000025359535F4E554D5F52F9
:101970004553455453000E6B0A0000024C4F475F1D
:101980004249544D41534B00000000046D0A0000D1
:10199000024C4F475F4C41535446494C45000000B0
:1019A0000F6F0A0000015253545F53574954434884
:1019B0005F4348000010710A0000025452494D5F15
:1019C00041525350445F434D00009B730A00000294
:1019D0004D494E5F474E445350445F434D00009E77
:1019E000750A0000025350455F414F41000000005E
:1019F00000000000B9A10A0000014348375F4F50C2
:101A0000540000000000000000A3770A0000025408
:101A100052494D5F50495443485F434400000578A4
:101A20000A000002414C545F484F4C445F52544CF2
:101A30000000009C7A0A000002414C545F484F4C61
:101A4000445F464257434D007A4C0A000002474E1D
:101A5000445F54454D5000000000000000857C0AA2
:101A6000000003474E445F4142535F505245535379
:101A70000000867E0A0000014D41475F454E41420D
:101A80004C45000000000087820A000001464C41DE
:101A9000505F315F504552434E5400000A980A008F
:101AA0000001464C41505F315F53504545440000B2
:101AB000000B990A000001464C41505F325F5045CF
:101AC00052434E5400000C9A0A000001464C41500B
:101AD0005F325F53504545440000000D9B0A0000F3
:101AE00001424154545F4D4F4E49544F5200000043
:101AF00089850A000004564F4C545F4449564944B6
:101B000045520000008A860A000004414D505F5093
:101B100045525F564F4C540000008B8A0A00000467
:101B2000494E5055545F564F4C5453000000008CA2
:101B30008E0A000002424154545F434150414349E0
:101B4000545900008D920A000001494E56455254E6
:101B50004544464C545F4348009D940A000001539D
:101B60004F4E41525F454E41424C450000008F951B
:101B70000A00000141525350445F454E41424C45DA
:101B800000000090960A00000141525350445F55F6
:101B9000534500000000000092970A0000015450D5
:101BA0005F4753424F4F53540000000000B89C0A57
:101BB00000000154505F434C5F4E4156000000004E
:101BC0000000B59D0A00000154505F415750525F1C
:101BD0004E415600000000B69E0A00000254505FBD
:101BE0004E5544474500000000000000B79F0A0022
:101BF000000254505F41474C5F52454600000000D0
:101C000000BAA30A00000154505F4D534C5F524587
:101C1000460000000000BBA50A00000154505F45CB
:101C20005F474C4944455200000000BCA60A000032
:101C3000085243315F000000000000000000000077
:101C4000A4A70A6121085243325F0000000000008F
:101C50000000000000A5C80A6121085243335F005C
:101C600000000000000000000000A6E90A61210851
:101C70005243345F0000000000000000000000A795
:101C80000A0B6121085243355F000000000000008C
:101C900000000000A82B0BDF21085243365F000034
:101CA000000000000000000000A9510BDF210852D5
:101CB00043375F0000000000000000000000AA772A
:101CC0000BDF21085243385F0000000000000000D5
:101CD000000000AB9D0BDF210848444E4732524CB8
:101CE0004C5F000000000000F0C30BF82008524CCD
:101CF0004C325352565F00000000000000F1DD0B33
:101D0000F8200850544348325352565F00000000F8
:101D10000000F2F70BF82008415253503250544360
:101D2000485F0000000000F3110CF82008595732FA
:101D30005352565F0000000000000000F42B0CF826
:101D40002008454E524759325448525F0000000067
:101D500000F5450CF82008414C5432505443485F7C
:101D6000000000000000F65F0CF82008434F4D50C3
:101D70004153535F00000000000000889008D11F0D
:101D8000085352305F000000000000000000000017
:101D90006E44091B02085352335F0000000000002C
:101DA00000000000006F90091B0208494D555F00BC
:101DB000000000000000000000008271078F200872
:101DC000414852535F0000000000000000000091F5
:101DD000AC07CE206C6F61645F616C6C20746F6FB8
:101DE0006B20256C7575730A00646F6E652E004656
:101DF00069726D77617265206368616E67653A200C
:101E000065726173696E6720454550524F4D2E2EA5
:101E10002E0A004552524F523A204661696C656461
:101E200020746F2073657475702041505F5061722B
:101E3000616D00496E76616C696420534552494179
:101E40004C335F42415544000A0A2052656164796F
:101E500020746F20464C592E003C73746172747567
:101E6000705F67726F756E643E2047524F554E44E7
:101E70002053544152540000407A10F35A00A0728B
:101E80004E18090010A5D4E80000E87648170000B5
:101E9000E40B54020000CA9A3B000000E1F5050083
:101EA0000080969800000040420F000000A08601CC
:101EB000000000102700000000E80300000000649C
:101EC00000000000000A0000000000010000000007
:101ED000002C76D888DC674F0823DFC1DFAE59E1DC
:101EE000B1B796E5E3E453C63AE651997696E8E64B
:101EF000C28426EB898C9B62ED407C6FFCEFBC9C1E
:101F00009F40F2BAA56FA5F490055A2AF75C936B2F
:101F10006CF9676DC11BFCE0E40D47FEF520E6B5EA
:101F200000D0ED902E0300943577050080841E08C4
:101F30000000204E0A000000C80C333333330F98E2
:101F40006E12831141EF8D2114893BE65516CFFEA9
:101F5000E6DB18D1844B381BF77C1D901DA4BBE435
:101F600024203284725E228100C9F124ECA1E53D77
:101F7000276E616E00696E660025733A2025660A39
:101F80000025733A20256C640A0025733A202564E5
:101F90000A0025733A2025640A0065786974006890
:101FA000656C700024505542582C34312C312C3043
:101FB0003030332C303030312C33383430302C301A
:101FC0002A32360D0AB56206010300010601124FDE
:101FD0000005014F46530000000000000000000013
:101FE00000001A0000000402444543000000000005
:101FF000000000000000002600000001034C4541E5
:10200000524E000000000000000000002A00000006
:1020100001045553450000000000000000000000CE
:10202000002B00000001054155544F44454300007A
:102030000000000000002C00000000FF0000000075
:102040000000000000000000000000000000002070
:10205000002A00496E697420416363656C000A6759
:1020600079726F20646964206E6F7420636F6E767E
:10207000657267653A20646966663D25662064700E
:10208000730A002A00496E6974204779726F00064E
:102090000043414C00000000000000000000000070
:1020A00003000000020150524F445543545F49441D
:1020B00000000000003700000000FF0000000000EA
:1020C000000000000000000000000000000004000C
:1020D0005941575F50000000000000000000002B35
:1020E00000000000FF0000000000000000000000F1
:1020F000000000000000000004005000000000008C
:102100000000000000000000000000000004014981
:1021100000000000000000000000000000000400BB
:102120000000040244000000000000000000000065
:10213000000000080000000203494D415800000063
:1021400000000000000000000C00000000FF000084
:10215000000000000000000000000000000000007F
:102160000002004D494E0000000000000000000089
:1021700000000A00000002015452494D0000000016
:10218000000000000000000C00000002024D415859
:102190000000000000000000000000000E00000031
:1021A000010352455600000000000000000000003E
:1021B00000150000000204445A0000000000000066
:1021C0000000000000001600000000FF00000000FA
:1021D00000000000000000000000000000000008F7
:1021E00000000000000000000000000000000000EF
:1021F00000006121010146554E4354494F4E0000F5
:102200000000000000210000000202414E474C4542
:102210005F4D494E00000000000022000000020354
:10222000414E474C455F4D415800000000000024DE
:1022300000000000FF00000000000000000000009F
:10224000000000000000000096918C87827D78736A
:102250006E69645F5A55504B46413C37322D2823F6
:102260001E19140F0A050004090E13181D22272C2D
:1022700031363B40454A4F54595E63686D72777CF6
:1022800081868B90959A9FA4A9AEB3AFAAA5A09B77
:10229000968F89837E78736E69645F5A55504B4779
:1022A000423E3935302C27231F1B16120E0905011B
:1022B00003070B1014191D22262B2F34393D4247DA
:1022C0004C51565B60656B70757B80868C92979DD8
:1022D000A3A9AFB2ACA6A09A948F827C76706B65EE
:1022E000605C57524E4A46413D3936322E2A2622EC
:1022F0001F1B1713100C08040102060A0E12161AEF
:102300001E22262B2F33383D41464B4F54595E64D5
:10231000696F747A80878D949BA2AAB1AEA69F97AD
:102320009089826F68635E5955514D4946423F3CE2
:102330003835322E2B2824211E1A1714100D0A06A8
:1023400003000306090D1014181C2024282C303417
:10235000393D41464A4F54585D62676D73798087B5
:102360008F98A2ACB0A59A90867D766F55514D4A54
:102370004744413F3C3A383533312E2B2926232020
:102380001D1A1713100D0A070401010306090D1089
:1023900013171A1E22262A2E32363A3E42464A4E3B
:1023A00053575B5F64696E757C85909FB2A08D7D8D
:1023B0007067605A553E3C3A393736343332302FE5
:1023C0002E2C2A292724221F1C191613100D0A0748
:1023D0000402000305080A0D1013161A1D212529F1
:1023E0002D3135383C4043464A4D505356595B5E7B
:1023F0006165696F826D544D4A474442403E2E2EBE
:102400002D2C2C2B2A2A2929282726252423211F55
:102410001C1A1714100D0A07040101030507090C03
:102420000E1013161A1D2124282C3033373A3D4044
:10243000424447484A4A4B4A48443D301902162113
:10244000282B2D2E2F2E2E06090C0F121517191BB7
:102450001C1B1811040E2231383C3C3C3A383532F2
:102460002F2B2824201C1915110D09050102060A1D
:102470000E1115181C1F222527292A2B2B2926214E
:102480001911080004080A0A0A08070402000306D2
:1024900016181A1C1E20211F1712516063625F5DFF
:1024A0005956524E4A46423E3935312C2824201B7B
:1024B00017130E0A060102060A0F13171B1F232605
:1024C0002A2D313437393C3D3F3F3E3D39352F28A9
:1024D000211C17151313131416A8ADB2B0ABA6A187
:1024E0009C97928D88837E79746F6A65605B565184
:1024F0004C47423D38332E29241F1A15100B060174
:1025000003080D12171C21262B30353A3F44494E43
:1025100053585D62676C71767B80858A8F94999E33
:10252000A3A800000001FFFFE00000000000000180
:10253000FFFFF000000000000001FFFFF8000000B6
:1025400000000001FFFFFE00000000000003FFFF8D
:10255000FF00000000000003FFFFFFF0000000008C
:10256000000FFFFFFFFE00000003FFFFFC0000075D
:10257000FC00007FFFFFFC000000000000001FFFC8
:10258000FE0000000000241E191512100E0C0B0A8C
:1025900009090908080807060605040404030404D9
:1025A0000400000000000000000000272621232571
:1025B0002325242722292A2A1C27282B33322725A2
:1025C000222C3331303700000000000000000000F2
:1025D00080114011407132733433321312113211B1
:1025E00012933413145352310021030406080B2DA7
:1025F0000A090705040241C011C051125354731255
:10260000111251527314733231002102040506076E
:102610000809080607062403020102000120012020
:1026200011C00111003132137413143312F112D39B
:1026300012510001022325060746442342210001CE
:10264000E0A0313213B433111211001120110052E5
:102650003312133211200122248504230402034281
:10266000410001E0A0511214131513153413325117
:1026700040012011521332310001222304050405C8
:102680000423010382612001E011801132135415EB
:1026900014333231402102010031723141022344AE
:1026A0002302012201220102614001A01180511286
:1026B00014133415143312314001020103020120B6
:1026C00052111220212243042241022102A10001C1
:1026D000E0201140515374133211402102030203D0
:1026E0000201001112113200114122232221004166
:1026F00002A18001601160110011323374131211B4
:102700004001620302032131121112114001020142
:1027100002030201000100E121E0A0112012117367
:102720003433312001620362401211121100110191
:1027300000010201220001200100E1C0010011801E
:10274000110012111312141334522001E20221203D
:10275000311211001100010021020100014021008D
:1027600002410001E0601140111211131214131400
:102770001332110021220342010221000100110045
:102780001211001120010041600100C1000140113F
:102790002001601140511213121314331231000141
:1027A0004203220102210001401100310011000109
:1027B00000010001A0E10001A0018011203152932D
:1027C00012110021C221002140310011201100010D
:1027D0000001E0E16001E01100117273123100218B
:1027E0004203010201022021401100112011600169
:1027F000401160010001022102000120014001A0FE
:1028000051321312533211200102018221002100A2
:102810000100110031E000110011602100010201EE
:102820000201010021200100016011001152131268
:1028300014135211004182010200010021401100D5
:10284000110011A0110031001120812201010002AC
:1028500001002100016011005213121314133231D0
:1028600001000201220142010021000100011120AA
:1028700011001120114071001140010221020102DA
:102880000100210221000100010011001211123388
:1028900012341332112001020142012201004100D1
:1028A000016011201100110011005112312061024C
:1028B000012202000201028120110012117334135F
:1028C00032110041020182010061000180110011FA
:1028D00000913231402142010202006261401152F6
:1028E00014135433310041820122000102004100DF
:1028F00001609112115251200122010301020200D4
:102900008261005133541514333100210201220336
:10291000424102A18031921332310041220302016F
:1029200003002203220102014011123395333101C9
:102930000022010342032221220102610001110051
:1029400011521312531231004122032203002302B9
:102950000302010221203213141615171615331124
:1029600020016203020302032201A241401112531B
:1029700014131413321101000201020302030202B4
:1029800000022302032221203214163718171513D0
:102990001211002122030243024301030203822198
:1029A0002011121314153415143211000162230280
:1029B000030043020342012012131518193A171598
:1029C000131100210203026304E302030203020164
:1029D0000240121314151715163412202122430237
:1029E0000300A3220100111215181C1E1D19161335
:1029F000110002010302030423040324030443041B
:102A0000230403020342201112141517183615135C
:102A100031210203022302030000210024002700C9
:102A20002A002D00300033000101000004010701DD
:102A30000A0100002200250028002B002E00310092
:102A4000340002010000050108010B010000200014
:102A50002300260029002C002F0032000001000076
:102A60000301060109010505050507050808080811
:102A7000020202020A0A0808040404040101010116
:102A80000101010103030303030303030407070711
:102A90000C0C0C0C0C0C0C0C0202020206060606B6
:102AA000060606060B0B0B0B0B0B0B0B0102102083
:102AB0002008081020401020408002010201080474
:102AC0000201010204081020408080402010080408
:102AD0000201800402018040201008040201080461
:102AE00002010102040810204080010204081020A5
:102AF00040800000090A02080B0C0D0706030401C0
:102B000000000000000000000000000000000000C5
:102B10000000000000000000000000000000111094
:102B20000F00000000000000000000000000000096
:102B30000000000000000000494E46494E4954592B
:102B40004E414ECDCCCC3D0AD7233C17B7D1387778
:102B5000CC2B329595E6241FB14F0A00002041008E
:102B600000C84200401C4620BCBE4CCA1B0E5AAED8
:102B7000C59D7400034B86B1B4B511241FBECFEFC1
:102B8000D1E2DEBFCDBF00E00CBF16E0A0E0B2E0B6
:102B9000E4EBFCEF01E00BBF02C007900D92A43202
:102BA000B107D9F71BBE11E1A4E2B6E001C01D9246
:102BB000AF34B107E1F71BE2CAE7DBE204C02297BA
:102BC000FE010E9441FEC437D107C9F70E9406F7F3
:102BD0000C9458FE0C940000283008F027E03327AE
:102BE000DA01990F311D87FD91600096610571052D
:102BF00039F432602E5F3D9330E32A95E1F7089572
:102C00009F3F30F080387105610509F03C5F3C5F03
:102C10003D93913008F08068911DDF93CF931F930F
:102C20000F93FF92EF92192F987F9695E92F969523
:102C30009695E90FFF27EF52F14E99273327EE249F
:102C4000FF24A701E70105900894079428F4360FA4
:102C5000E71EF81E491F511D660F771F881F991F19
:102C60000694A1F70590079428F4E70EF81E491F73
:102C7000561FC11D770F881F991F661F0694A1F765
:102C80000590079428F4F80E491F561FC71FD11D41
:102C9000880F991F661F771F0694A1F70590079468
:102CA00020F4490F561FC71FD81F990F661F771FA3
:102CB000881F0694A9F784911095177041F0D69556
:102CC000C79557954795F794E7941A95C1F7E7E7A5
:102CD000FEE1689415901591359165919591059057
:102CE0007FE27395E118F10A430B560BC90BD0092B
:102CF000C0F7E10CF11E431F561FC91FD01D7EF403
:102D0000703311F48A95E6CFE894015030F0080F43
:102D10000AF40027021708F4202F2395022F7A3394
:102D200028F079E37D932A95E9F710C07D932A95E1
:102D300089F6069497956795379517951794E11836
:102D4000F10A430B560BC90BD00998F023957E91DD
:102D500073957A3308F070E37C932013B8F77E9173
:102D600070617D9330F0839571E37D9370E32A95D4
:102D7000E1F71124EF90FF900F911F91CF91DF9118
:102D8000992787FD90950895FA01AA27283051F1D7
:102D9000203181F1E8946F936E7F6E5F7F4F8F4F8C
:102DA0009F4FAF4FB1E03ED0B4E03CD0670F781FEB
:102DB000891F9A1FA11D680F791F8A1F911DA11DD0
:102DC0006A0F711D811D911DA11D20D009F4689409
:102DD0003F912AE0269F11243019305D3193DEF6B1
:102DE000CF010895462F4770405D4193B3E00FD067
:102DF000C9F7F6CF462F4F70405D4A3318F0495D52
:102E000031FD4052419302D0A9F7EACFB4E0A69534
:102E10009795879577956795BA95C9F70097610556
:102E2000710508959B01AC010A2E069457954795AC
:102E300037952795BA95C9F7620F731F841F951FA1
:102E4000A01D0895A0E3B0E0E8E2F7E10C9408FECD
:102E5000A8E04E010894811C911CF401BA2F119234
:102E6000BA95E9F729833A834B835C836D837E832C
:102E70008F839887CE010996FC011192AA95E9F7F4
:102E8000A986BA86CB86DC86ED86FE860F87188BF0
:102E900029813A814B815C812DA73EA74FA758AB72
:102EA00079018A018FEF9FEFA0E0B0E0E822F922DC
:102EB0000A231B231A014424552429853A854B856E
:102EC0005C8529A73AA74BA75CA759016A01A822EC
:102ED000B922CA22DB223A0188249924C601B5010D
:102EE000A80197010E9479FD6DA37EA38FA398A7E7
:102EF000C401B3010E9479FD69A37AA38BA39CA3AB
:102F0000C601B501A20191010E9479FD7B018C01EE
:102F1000C401B3010E9479FD5B016C0189A19AA1F2
:102F2000ABA1BCA18E0D9F1DA01FB11F89A39AA3A9
:102F3000ABA3BCA32DA13EA14FA158A5CA01AA27AE
:102F4000BB2729A13AA14BA15CA1280F391F4A1F19
:102F50005B1F29A33AA34BA35CA32E153F05400793
:102F6000510740F480E090E0A1E0B0E0A80EB91E67
:102F7000CA1EDB1E89A19AA1ABA1BCA19D01442759
:102F800055272A0D3B1D4C1D5D1D2D8F3E8F4F8FEC
:102F900058A36C01BB24AA248DA19EA1AFA1B8A502
:102FA000A070B070A80EB91ECA1EDB1EA98EBA8E04
:102FB000CB8EDC8E9A8C8B8C7C8C9E8D6F8D78A1C9
:102FC000FE01719688E0DF011D928A95E9F72D8B4D
:102FD0009E8B6F8B788F2D853E854F8558896DA58B
:102FE0007EA58FA598A90E9479FD7B018C012D817A
:102FF0003E814F81588569A57AA58BA59CA50E9425
:1030000079FDE60EF71E081F191F6D897E898F89CD
:10301000988D6E0D7F1D801F911F6D8B7E8B8F8B0A
:10302000988FEE892A2D392D482D572D7E2F8F8987
:10303000988DE096E2E10C9424FEEF92FF920F93BC
:10304000DF93CF93CDB7DEB760970FB6F894DEBFAE
:103050000FBECDBFA82F002309F461C07E010894E4
:10306000E11CF11C88E0F70111928A95E9F72983A8
:103070003A834B835C836D837E83AF83988780E242
:10308000801BE82FFF27E7FDF09549815A816B816E
:103090007C81181684F019861A861B861C86882760
:1030A00099278E1B9F0B04C0440F551F661F771F67
:1030B0008A95D2F728C0202F332727FD3095DB01D2
:1030C000CA01022E04C0880F991FAA1FBB1F0A94B1
:1030D000D2F789879A87AB87BC8704C076956795B6
:1030E00057954795EA95D2F78D819E81AF81B88536
:1030F00004C0880F991FAA1FBB1F2A95D2F7482B1F
:10310000592B6A2B7B2B4D875E876F87788B2985A0
:103110003A854B855C856D857E85AF8598898A2F3C
:1031200060960FB6F894DEBF0FBECDBFCF91DF9192
:103130000F91FF90EF900895EF92FF920F93DF931E
:10314000CF93CDB7DEB760970FB6F894DEBF0FBE52
:10315000CDBFA82F002309F467C07E010894E11CAD
:10316000F11C88E0F70111928A95E9F729833A83E7
:103170004B835C836D837E83AF83988780E2801B63
:103180004D815E816F817885E82FFF27E7FDF095FF
:103190001816B4F0DB01CA01BB0F880B982FDC01B5
:1031A0008D879E87AF87B88B882799278E1B9F0BAB
:1031B00004C075956795579547958A95D2F728C0AD
:1031C000202F332727FD3095DB01CA01022E04C0D2
:1031D000B595A795979587950A94D2F78D879E8781
:1031E000AF87B88B04C0440F551F661F771FEA9541
:1031F000D2F789819A81AB81BC8104C0B695A7952D
:10320000979587952A95D2F7482B592B6A2B7B2BBC
:1032100049875A876B877C8729853A854B855C85EA
:103220006D857E85AF8598898A2F60960FB6F89454
:10323000DEBF0FBECDBFCF91DF910F91FF90EF901A
:1032400008950F931F93CF93DF93689F8001699F29
:10325000100D789F100D1124C8010DD0EC010097BE
:1032600021F060E070E0A80190D1CE01DF91CF9114
:103270001F910F910895CF93DF93BC018230910588
:1032800010F462E070E0A0914B11B0914C11ED018F
:10329000E0E0F0E040E050E021C0888199818617AD
:1032A000970769F48A819B81309719F09383828311
:1032B00004C090934C1180934B11FE0134C06817E9
:1032C000790738F44115510519F08417950708F46A
:1032D000AC01FE018A819B819C01E9012097E9F6FE
:1032E00041155105A9F1CA01861B970B049708F4F3
:1032F000BA01E0E0F0E02AC08D919C91119784170B
:103300009507F9F46417750781F412968D919C91D5
:103310001397309719F09383828304C090934C11D4
:1033200080934B11FD0132964CC0CA01861B970B4E
:10333000FD01E80FF91F6193719302978D939C93A0
:1033400040C0FD01828193819C01D9011097A1F6B3
:103350008091491190914A11892B41F48091700319
:103360009091710390934A11809349114091720397
:10337000509173034115510541F44DB75EB78091EB
:103380006E0390916F03481B590B209149113091A6
:103390004A11CA01821B930B8617970780F0AB0175
:1033A0004E5F5F4F8417950750F0420F531F5093A5
:1033B0004A1140934911F9016193719302C0E0E011
:1033C000F0E0CF01DF91CF910895CF93DF93009785
:1033D00009F450C0EC0122971B821A82A0914B1174
:1033E000B0914C11109709F140E050E0AC17BD07C7
:1033F00008F1BB83AA83FE0121913191E20FF31FF3
:10340000AE17BF0779F48D919C911197280F391F42
:103410002E5F3F4F3983288312968D919C9113978D
:103420009B838A834115510571F4D0934C11C0934D
:103430004B1120C012968D919C911397AD0100976E
:1034400011F0DC01D3CFFA01D383C28321913191F2
:10345000E20FF31FCE17DF0769F488819981280FE7
:10346000391F2E5F3F4FFA01318320838A819B8170
:1034700093838283DF91CF91089566277727EFC2E8
:103480001F93FC0199278827BC01E8941191103201
:10349000E9F3193010F01E30C8F31B3249F01D3229
:1034A00041F4689405C0CDD0610F711D811D911D3F
:1034B000119110531A30B8F33EF4909580957095A1
:1034C00061957F4F8F4F9F4F1F910895FB01DC0146
:1034D00002C005900D9241505040D8F70895FB016D
:1034E000DC018D9181341CF08B350CF4805E65918C
:1034F00061341CF06B350CF4605E861B611189F33E
:10350000990B0895FB01DC018D9105908019011044
:10351000D9F3990B0895FC0105900020E9F78095F7
:1035200090958E0F9F1F0895FB01DC014150504084
:1035300030F08D910590801919F40020B9F7881B9F
:10354000990B0895FB01DC014150504048F0059073
:103550000D920020C9F701C01D9241505040E0F784
:103560000895FC010590615070400110D8F78095D6
:1035700090958E0F9F1F0895FB01DC0102C0019002
:103580000D9241505040D8F70895DC0101C06D9371
:1035900041505040E0F70895FB01DC018D9101900E
:1035A00080190110D9F3990B0895FB01DC014150FA
:1035B000504048F001900D920020C9F701C01D92C3
:1035C00041505040E0F70895FC0161507040019077
:1035D0000110D8F7809590958E0F9F1F0895009742
:1035E00031F4DA018D919C91009709F40EC0DC0151
:1035F000FB013D912191222319F03217C9F3FACF33
:10360000332331F4DA011D921C92882799270895FB
:103610001197AF93BF93FB013D912191321771F444
:10362000332321F488279927119702C01E921196FF
:10363000FA01A193B0839F918F910895222369F796
:10364000EACF592F482F372F262F660F771F881F55
:10365000991F660F771F881F991F620F731F841FA2
:10366000951F660F771F881F991F0895AEE0B0E081
:10367000ECE3FBE10C9416FE8C0177FF02C060E0E6
:1036800070E8615070407E836D831A83098386E001
:103690008C83CE010196BA01A90111D02D813E8102
:1036A00037FD09C0EF81F8852E173F070CF4F901AB
:1036B000E00FF11F10822E96E4E00C9432FEABE096
:1036C000B0E0E5E6FBE10C9408FE3C012B015A0159
:1036D000FC0117821682838181FD03C06FEF7FEFAB
:1036E000B9C19AE0892E1E010894211C311CF301F6
:1036F0002381F20123FD859123FF81912F018823EE
:1037000009F4A5C1853239F423FD859123FF819108
:103710002F01853221F490E0B30116D3E8CF982F22
:10372000FF24EE249924FFE1FF15D0F09B3269F0CD
:103730009C3228F4903259F0933291F40EC09D32AD
:1037400049F0903369F441E024C052E0F52A84E066
:10375000F82A28C098E0F92A25C0E0E1FE2A22C014
:10376000F7FC29C0892F80538A3070F4F6FE05C01B
:10377000989C902C1124980E15C0E89CE02C1124E4
:10378000E80EF0E2FF2A0EC09E3229F4F6FC5FC17B
:1037900040E4F42A07C09C3619F450E8F52A02C028
:1037A000983649F4F20123FD959123FF91912F0161
:1037B000992309F0B8CF892F8554833018F08052AF
:1037C000833038F444E050E0A40EB51E5FE3598323
:1037D0000FC0933631F0933779F0933509F052C02A
:1037E0001FC0F5018081898342E050E0A40EB51E20
:1037F000610101E010E011C0F501C080D180F6FC4C
:1038000003C06FEF7FEF02C0692D70E042E050E02F
:10381000A40EB51EC601D8DE8C015FE7F52213C0E9
:10382000F501C080D180F6FC03C06FEF7FEF02C0CE
:10383000692D70E042E050E0A40EB51EC60191DE95
:103840008C0150E8F52AF3FE06C018C080E290E033
:10385000B3017AD2EA948E2D90E008171907B0F3DD
:103860000DC0F601F7FC8591F7FE81916F0190E0A4
:10387000B3016AD2E110EA9401501040011511051C
:1038800081F7E2C0943611F0993661F5F7FE08C071
:10389000F501208131814281538184E090E00AC0AA
:1038A000F501808191819C01442737FD4095542F7B
:1038B00082E090E0A80EB91E9FE6F92257FF09C0EA
:1038C00050954095309521953F4F4F4F5F4FE0E821
:1038D000FE2ACA01B901A1012AE030E055DAD82E4A
:1038E000D2183FC0953729F41F2D1F7E2AE030E003
:1038F0001DC01F2D197F9F3661F0903720F4983539
:1039000009F0A5C00FC0903739F0983709F09FC073
:1039100004C028E030E00AC0106114FD146020E10A
:1039200030E004C014FD166020E132E017FF08C04B
:10393000F501608171818281938144E050E008C08B
:10394000F50180819181BC0180E090E042E050E08F
:10395000A40EB51EA10118DAD82ED2188FE7F82EC2
:10396000F122F6FE0BC05EEFF522D91438F4F4FE16
:1039700007C0F2FC05C08FEEF82202C01D2D01C069
:10398000192DF4FE0DC0FE01ED0DF11D8081803377
:1039900019F499EEF92208C01F5FF2FE05C003C0BA
:1039A0008F2D867809F01F5F0F2DF3FC13C0F0FEFA
:1039B0000EC01E1510F09D2C0AC09D2C9E0C911A55
:1039C0001E2D05C080E290E0B301BED11F5F1E1521
:1039D000C8F304C01E1510F4E11A01C0EE2404FF60
:1039E0000EC080E390E0B301AFD102FF1BC001FD28
:1039F00003C088E790E00EC088E590E00BC0802F00
:103A0000867881F001FF02C08BE201C080E2F7FC02
:103A10008DE290E0B30198D105C080E390E0B3015E
:103A200093D19A94D914C8F3DA94F101ED0DF11DF4
:103A3000808190E0B30188D1DD20B1F705C080E23C
:103A400090E0B30181D1EA94EE20C9F750CEF301A2
:103A500066817781CB012B96E2E10C9424FEA0E0F5
:103A6000B0E0E5E3FDE10C940EFEEC015B016115B5
:103A7000710519F0FB0191838083F9908F2D90E0FF
:103A80000E944DFE892BC9F7FDE2FF1621F4F99043
:103A9000EE24E39405C02BE2F21609F4F990EE242B
:103AA0008E0101501040C80168E37BE243E050E022
:103AB00033D1892BF9F48E010E5F1F4FC8016BE3E0
:103AC0007BE245E050E028D1892B19F48E01095F93
:103AD0001F4FA114B10419F0F50111830083E0FC1C
:103AE00004C070E090E080E813C070E090E080E8EF
:103AF0006FEF07C1C80160E47BE243E050E00CD106
:103B0000892B69F4A114B10429F470E090E080ECF1
:103B10006FE7F7C02296F501D183C083F6CF8824E2
:103B2000992440E050E060E070E0EF2DE053EA308F
:103B3000A0F5F2E0EF2A8E2D90E09C012870307005
:103B4000E2FE06C0232B79F50894811C911C2BC042
:103B5000232B19F0089481089108DB01CA0112E0B7
:103B6000880F991FAA1FBB1F1A95D1F7480F591F1D
:103B70006A1F7B1F440F551F661F771F4E0F511D75
:103B8000611D711D483929E9520729E9620729E1B8
:103B9000720748F084E0E82A06C0EE3F31F4E3FC07
:103BA00039C098E0E92AF990C0CFE53311F0E5314A
:103BB00089F529912D3219F4E0E1EE2A05C02B3266
:103BC00019F081E090E003C0299182E090E0E22FBB
:103BD000E053EA3018F0C81BD90B1CC020E030E0DD
:103BE000FCE020383F075CF4C901880F991F880F5B
:103BF000991F280F391F220F331F2E0F311DE991F6
:103C0000E053EA3068F3E4FE03C0309521953F4F5E
:103C1000820E931ECE2CDD24E1FE07C0A114B10458
:103C200021F02197F501D183C083CB01BA010E9415
:103C3000E4F97B018C01F3E0CF22DD2423E0C216FE
:103C4000D10421F417FB109517F91095570168015D
:103C5000C801B70120E030E040E050E00E9444F9A4
:103C6000882309F44AC097FE0DC027E5E22E2BE217
:103C7000F22E9094819491089394C0E2D0E000E0F9
:103C800010E012C09FE6E92E9BE2F92EF6CFF70175
:103C90002591359145915491C601B5010E94CEFB05
:103CA0005B016C018C1A9D0A8C169D0684F7D595D4
:103CB000C7950F5F1F4F0630110529F08CEF9FEF5E
:103CC000E80EF91EF1CFC501D6017C018D018C2DC6
:103CD000880F8D2D881F8F3F51F0C601B50120E060
:103CE00030E040E050E00E9444F9882331F482E261
:103CF00090E090934E1180934D117E2D9F2D802F3B
:103D0000612F272F392F482F562FB901CA01CDB760
:103D1000DEB7ECE00C942AFEFB01DC014150504080
:103D200088F08D9181341CF08B350CF4805E6591A8
:103D300061341CF06B350CF4605E861B611171F30D
:103D4000990B0895881BFCCF0F931F93CF93DF939C
:103D50008C01EB018B8181FF1BC082FF0DC02E8186
:103D60003F818C819D812817390764F4E881F981AE
:103D70000193F983E88306C0E885F985802F1995BA
:103D8000892B31F48E819F8101969F838E8302C09F
:103D90000FEF1FEFC801DF91CF911F910F91089591
:103DA0009C01F999FECF32BD21BDF89A60B5F99911
:103DB000FECF2F5F3F4F32BD21BD21503040F89ADA
:103DC00070B5F999FECF2E5F3F4F32BD21BD225015
:103DD0003040F89A80B5F999FECF2D5F3F4F32BD44
:103DE00021BDF89A90B508959C01F999FECF1FBAAC
:103DF00032BD21BD40BD0FB6F894FA9AF99A0FBEB4
:103E0000F999FECF1FBA2F5F3F4F32BD21BD215020
:103E1000304050BD0FB6F894FA9AF99A0FBEF9994E
:103E2000FECF1FBA2E5F3F4F32BD21BD2250304022
:103E300060BD0FB6F894FA9AF99A0FBEF999FECFC1
:103E40001FBA2D5F3F4F32BD21BD70BD0FB6F89434
:103E5000FA9AF99A0FBE0895CF92DF92EF92FF92ED
:103E60000F931F93CF93DF938C016B017A01C0E016
:103E7000D0E01CC0F601EC0FFD1F6081011511059B
:103E800021F00130110589F405C0E091120AF0918A
:103E9000130A04C0E091140AF091150AA081B181BF
:103EA0002D913C91CF01F90119952196CE15DF0591
:103EB00008F3DF91CF911F910F91FF90EF90DF906A
:103EC000CF900895CF92DF92EF92FF920F931F93BE
:103ED000DF93CF93CDB7DEB728970FB6F894DEBF48
:103EE0000FBECDBF182FE92ED42EC52EF22E282FAF
:103EF00030E08EEF8B83FC82F901EE0FFF1FE20FA3
:103F0000F31FEE0FFF1FEE0FFF1FE157F24F9781D8
:103F10009D83809175038E83809176038F8368875C
:103F20009F5F97836FEF7FEFFE013496DE01199656
:103F30001DC021912627822F8295807F822790E0C5
:103F4000382F2227AC01440F551F440F551F440F33
:103F5000551F24273527672F77276227732724E0EB
:103F6000959587952A95E1F768277927EA17FB0742
:103F700001F78D2D9C2D9C01F9014F2D1BC08191C6
:103F80008627282F2295207F282730E0722F66274A
:103F9000C90153E0880F991F5A95E1F768277927DF
:103FA0006A277B27B4E035952795BA95E1F7622714
:103FB00073274150A72FBB27442309F7802F86275B
:103FC000282F2295207F282730E0922F8827A901CB
:103FD00063E0440F551F6A95E1F7842795278A27E8
:103FE0009B2744E0359527954A95E1F7822793274B
:103FF00089839A83812F9E2DBE016D5F7F4F46E09E
:1040000050E02ADF812F9E2D6D2D7C2D4F2D50E00D
:1040100023DF812F9E2DBE016F5F7F4F42E050E076
:104020001BDF28960FB6F894DEBF0FBECDBFCF9131
:10403000DF911F910F91FF90EF90DF90CF90089547
:104040001F920F920FB60F920BB60F9211242F935F
:104050003F934F938F939F93EF93FF934091C600AD
:104060002091960F3091970F2F5F3F4F80919A0FBD
:1040700090919B0F282339238091980F9091990F4D
:104080002817390779F08091960F9091970FE0915A
:104090009C0FF0919D0FE80FF91F40833093970F0D
:1040A0002093960FFF91EF919F918F914F913F91A8
:1040B0002F910F900BBE0F900FBE0F901F90189571
:1040C0001F920F920FB60F920BB60F9211242F93DF
:1040D0003F938F939F93EF93FF932091B80F30916D
:1040E000B90F8091B60F9091B70F28173907E9F0F3
:1040F0008091B80F9091B90FE091BC0FF091BD0F76
:10410000E80FF91F80818093C6008091B80F9091CD
:10411000B90F01962091BA0F3091BB0F82239323E0
:104120009093B90F8093B80F10C02091B60F3091C3
:10413000B70F8091B80F9091B90F2817390729F45C
:104140008091C1008F7D8093C100FF91EF919F917D
:104150008F913F912F910F900BBE0F900FBE0F903C
:104160001F9018951F920F920FB60F920BB60F92D9
:1041700011242F933F934F938F939F93EF93FF932C
:104180004091D6002091A60F3091A70F2F5F3F4F8F
:104190008091AA0F9091AB0F282339238091A80F0B
:1041A0009091A90F2817390779F08091A60F909167
:1041B000A70FE091AC0FF091AD0FE80FF91F40830E
:1041C0003093A70F2093A60FFF91EF919F918F91AE
:1041D0004F913F912F910F900BBE0F900FBE0F90FC
:1041E0001F9018951F920F920FB60F920BB60F9259
:1041F00011242F933F938F939F93EF93FF932091DD
:10420000C80F3091C90F8091C60F9091C70F281722
:104210003907E9F08091C80F9091C90FE091CC0F58
:10422000F091CD0FE80FF91F80818093D600809127
:10423000C80F9091C90F01962091CA0F3091CB0FF2
:10424000822393239093C90F8093C80F10C02091AD
:10425000C60F3091C70F8091C80F9091C90F2817D2
:10426000390729F48091D1008F7D8093D100FF918F
:10427000EF919F918F913F912F910F900BBE0F90D7
:104280000FBE0F901F9018951F920F920FB60F92AE
:104290000BB60F9211242F933F934F938F939F93BD
:1042A000EF93FF93409136012091AE0F3091AF0F05
:1042B0002F5F3F4F8091B20F9091B30F2823392386
:1042C0008091B00F9091B10F2817390779F0809144
:1042D000AE0F9091AF0FE091B40FF091B50FE80FD2
:1042E000F91F40833093AF0F2093AE0FFF91EF91F2
:1042F0009F918F914F913F912F910F900BBE0F90F7
:104300000FBE0F901F9018951F920F920FB60F922D
:104310000BB60F9211242F933F938F939F93EF939C
:10432000FF932091D00F3091D10F8091CE0F9091BB
:10433000CF0F28173907E9F08091D00F9091D10F56
:10434000E091D40FF091D50FE80FF91F8081809391
:1043500036018091D00F9091D10F01962091D20F0C
:104360003091D30F822393239093D10F8093D00F5A
:1043700010C02091CE0F3091CF0F8091D00F90912F
:10438000D10F2817390729F4809131018F7D80934F
:104390003101FF91EF919F918F913F912F910F905C
:1043A0000BBE0F900FBE0F901F9018950F931F9389
:1043B000CF93DF936091500A6623B1F1C091F10A67
:1043C000D091F20A0091980310919903772767FD25
:1043D0007095872F972F0E94E6F9209183033091E3
:1043E000840340918503509186030E94CEFB20E018
:1043F00030E040E251E40E94CEFB0E94B3F9980104
:10440000261B370BC217D3073CF09B01200F311F2F
:10441000C217D3070CF49E013093F20A2093F10ADD
:104420003093990320939803DF91CF911F910F91BF
:1044300008950F93DF93CF93CDB7DEB729970FB6CB
:10444000F894DEBF0FBECDBFAC01909174039830DD
:1044500050F4953008F046C09130C1F0913078F0BA
:10446000923091F43FC09F3089F0903128F4892F29
:104470008A50833048F40AC0903131F402C020E4FD
:1044800008C021E032E00CC021E001C028E19923FE
:1044900011F434E004C034E0903111F02061206C5C
:1044A000892F90E0A0E0B0E089839A83AB83BC833E
:1044B00081E08D8383E08E8321602F833887898715
:1044C000CA0160E0AE014F5F5F4F29E002E3FADC12
:1044D00029960FB6F894DEBF0FBECDBFCF91DF9106
:1044E0000F91089520E1D7CF2F923F924F925F9284
:1044F0006F927F928F929F92AF92BF92CF92DF92F4
:10450000EF92FF920F931F93DF93CF93CDB7DEB758
:10451000A1970FB6F894DEBF0FBECDBF99A388A3B5
:104520008091820A882329F027E030E040E050E0C3
:1045300004C023E030E040E050E0F8E0EF2EF12C42
:10454000012D112DE22AF32A042B152BE091790C71
:10455000F0917A0C309769F085AD96AD029749F4E9
:10456000E8E2EE2EF12C012D112DE22AF32A042B84
:10457000152B212C7CEF372E7FEF472E7FEF572E08
:104580002E283F28402A512A6FEFA62E61E0B62E32
:10459000C12CD12CA220B320C420D520809174033B
:1045A0008630C1F0873038F4823079F0853069F098
:1045B000813011F519C08D3028F48A30A8F4873085
:1045C000D9F40DC08F30C1F40FC080E09CE0A0E0B2
:1045D000B0E00EC080E09CE8AFEFBFEF09C080E024
:1045E0009CEAAFEFBFEF04C080E09CEFAFEFBFEFFE
:1045F000A82AB92ACA2ADB2A6090EE0C7090EF0C28
:104600008090F00C9090F10CC401B30120E030E0F8
:1046100040E050E00E9444F9882331F466246A9413
:10462000762C99249A9435C02091920A3091930A5D
:104630002115310519F499249A941AC0B9018827D3
:1046400077FD8095982F0E94E6F97B018C01A401EB
:1046500093010E9466F820E030E048EC52E40E94AA
:10466000CEFBA80197010E944BF90E94B8F9962E43
:104670006091EA0C7091EB0C8091EC0C9091ED0C38
:1046800020E030E048EC52E40E94CEFB0E94B8F9F2
:104690003B018091850A833011F456E9952E609193
:1046A000A70D7091A80D8091A90D9091AA0D20E001
:1046B00030E04AE754E40E94CEFB0E94B8F97B0147
:1046C0008C01609187037091880380918903909198
:1046D0008A0320E030E04AE754E40E94CEFB0E94C7
:1046E000B8F929823A824B825C82AD82BE82CF8247
:1046F000D88629863A864B865C86FE86ED86788B40
:104700006F877A8A698A1C8A1B8A1E8A1D8A188E7C
:104710001F8A1A8E198E1C8E1B8E1E8E1D8E9F8ECA
:1047200088A199A161E0AE014F5F5F4F2FE10CE7D7
:10473000C9DBA1960FB6F894DEBF0FBECDBFCF91F7
:10474000DF911F910F91FF90EF90DF90CF90BF907E
:10475000AF909F908F907F906F905F904F903F9021
:104760002F9008952F923F924F925F926F927F9277
:104770008F929F92AF92BF92CF92DF92EF92FF9271
:104780000F931F93DF93CF93CDB7DEB7A4970FB6E8
:10479000F894DEBF0FBECDBF98A38F8F60919303B7
:1047A0007091940380919503909196036F3F2FEF42
:1047B00072072FEF82072FEF920741F46091AB0D44
:1047C0007091AC0D8091AD0D9091AE0D24E630E06E
:1047D00040E050E00E94EDFD3C8F2B8F6091B30DC7
:1047E0007091B40D8091B50D9091B60D0E94E6F9CF
:1047F00020E030E048EC52E40E944BF97B018C0150
:104800006091B70D7091B80D8091B90D9091BA0D6E
:1048100024E630E040E050E00E94EDFD29A33AA3F9
:104820004BA35CA380910E0A90910F0A9E8F8D8FEF
:104830006091BB0D7091BC0D8091BD0D9091BE0D2E
:104840000E94E6F920E030E048EC52E40E944BF987
:104850005B016C016090DA0C7090DB0C8090DC0CDA
:104860009090DD0C2090BF0D3090C00D4090C10D98
:104870005090C20D6091AF0D7091B00D8091B10D4F
:104880009091B20D0E94E6F920E030E048EC52E44D
:104890000E944BF969837A838B839C83C701D8017B
:1048A0008D839E83AF83B887C501D60189879A8798
:1048B000AB87BC876D867E868F86988A298A3A8ADE
:1048C0004B8A5C8A8B8D9C8D9E8B8D8B89A19AA146
:1048D000988F8F8B8D8D9E8D9A8F898F8F8D98A1BC
:1048E0006EE3AE014F5F5F4F2AE107EBEBDAA49670
:1048F0000FB6F894DEBF0FBECDBFCF91DF911F91F1
:104900000F91FF90EF90DF90CF90BF90AF909F906E
:104910008F907F906F905F904F903F902F90089571
:104920002F923F924F925F926F927F928F929F92BF
:10493000AF92BF92CF92DF92EF92FF920F931F93AD
:10494000DF93CF93CDB7DEB7EA970FB6F894DEBF0B
:104950000FBECDBF9CAB8BAB0091790C10917A0C44
:10496000D801DD96BC91BF8FB23011F4E3E0EF8F38
:10497000D8011C968D919D910D90BC91A02D8FA773
:1049800098ABA9ABBAABD80150968D919D910D9083
:10499000BC91A02D8BA79CA7ADA7BEA7F8016489E9
:1049A0007589868997892AE030E040E050E00E94CE
:1049B00079FD6FA378A789A79AA7D80194960D903F
:1049C000BC91A02DBEA3ADA3F801008CF18DE02D0C
:1049D000FCA3EBA3D8015C960D90BC91A02DBAA3CB
:1049E000A9A3F801F6A1F8A3F80187A590A9A1A9A8
:1049F000B2A94C015D019C01A50160E070E080E07E
:104A000090E002E00E941D18122F632E542E352EC6
:104A10006DAB7EAB8FAB98AF05E00E941D18A32F46
:104A2000B42F052F462E272E89AF9AAF722E711AFA
:104A3000F1E0271508F0F0E03A2F3619E1E0A3176E
:104A400008F0E0E0132F1F1B21E0311708F020E0F1
:104A5000E22B4B2F451931E0B41708F030E0B42FAA
:104A6000BE1B21E04B1708F020E0322B502F5319CA
:104A700041E0051708F040E0052F031B21E0501727
:104A800008F020E0422B642DFDA96F1B31E0461693
:104A900008F030E0962F941B21E0691708F020E021
:104AA000322B722D2EA9721B41E0271608F040E030
:104AB000A72FA31B21E07A1708F020E0422B89AD35
:104AC0003FA9831B21E0E9ADE81708F020E0E82FBB
:104AD000E41B31E08E1708F030E0232BFAAD38AD3F
:104AE000F31BF21B672C680C31E0671408F030E010
:104AF000812F890D41E0811708F040E0380F51E027
:104B0000381708F050E0452B8B2F8A0D51E08B179A
:104B100008F050E0480F61E0481708F060E0562BBD
:104B2000202F2B0D81E0201708F080E0520F61E06C
:104B3000521708F060E0682B690F71E0691708F000
:104B400070E07A0F81E07A1708F080E08E0F91E034
:104B50008E1708F090E0262D9F0F03E00E941D188D
:104B600029833A834B835C836D837E838F8398870D
:104B70008FA598A9A9A9BAA989879A87AB87BC8765
:104B80008BA59CA5ADA5BEA58D879E87AF87B88B4D
:104B90008FA198A5A9A5BAA5898B9A8BAB8BBC8B45
:104BA000ADA1BEA1BE8BAD8B8FEF9FEF988F8F8B8A
:104BB000EBA1FCA1FA8FE98F29A13AA13C8F2B8FA1
:104BC0003F8D3D8F88A18E8F8BA99CA968E1AE0196
:104BD0004F5F5F4F2EE108E175D9EA960FB6F89462
:104BE000DEBF0FBECDBFCF91DF911F910F91FF9020
:104BF000EF90DF90CF90BF90AF909F908F907F907D
:104C00006F905F904F903F902F9008950F93DF9398
:104C1000CF930F920F92CDB7DEB72091400A332782
:104C200027FD30953A8329836AE2AE014F5F5F4FDB
:104C300022E00CE147D90F900F90CF91DF910F91B7
:104C40000895CF93DF93EC01FB01EE0FFF1FE80FF8
:104C5000F91F90A99923D1F0FE01E60FF71FEE5B33
:104C6000FF4F8081882381F4692F933308F062E33A
:104C700082E390E070E00E94B8FDC55BDF4F888161
:104C8000860F808381E003C08150808380E0DF91C4
:104C9000CF9108950F93DF93CF9300D00F92CDB7AC
:104CA000DEB7FC01858D8823C9F04689578980913C
:104CB0003F0A992787FD90958417950778F0818999
:104CC0009289208D328D5A8349832B833C8368E2FD
:104CD000AE014F5F5F4F24E006EEF4D80F900F90C7
:104CE0000F900F90CF91DF910F91089580E008957C
:104CF0004F925F926F927F928F929F92AF92BF92EC
:104D0000CF92DF92EF92FF920F931F93DF93CF9397
:104D1000CDB7DEB72F970FB6F894DEBF0FBECDBF6D
:104D20009A2DA982EB2DBA82FC2DCB82DC82ED82FA
:104D3000FE820F83188729873A874B875C876D87A8
:104D40007E878F874C815D816E817F81A884B98445
:104D5000CA84DB844C845D846E847F8497FE03C0A8
:104D600020E030E00BC080913F0AA82FBB27A7FDB1
:104D7000B0959401A815B9050CF49D018901B4E022
:104D8000000F111FBA95E1F7021B130B00501B4FC8
:104D9000E0FD02C0E0E006C0E0E0232B09F4E1E022
:104DA00081E0E827F999FECF1FBA12BD01BD90BD81
:104DB0000FB6F894FA9AF99A0FBEC801AA2797FD80
:104DC000A095BA2F0196A11DB11DF999FECF1FBA6A
:104DD00092BD81BDE0BD0FB6F894FA9AF99A0FBE64
:104DE0007C018D010894E11CF11C011D111DF99934
:104DF000FECF1FBAF2BCE1BCF0BD0FB6F894FA9A30
:104E0000F99A0FBE0894E11CF11C011D111DC70188
:104E10000E94F41E84E090E0A0E0B0E0E80EF91EED
:104E20000A1F1B1FC701B601A5010E94F41E84E0E2
:104E300090E0A0E0B0E0E80EF91E0A1F1B1FC701BA
:104E4000B301A2010E94F41E2F960FB6F894DEBFA4
:104E50000FBECDBFCF91DF911F910F91FF90EF90CB
:104E6000DF90CF90BF90AF909F908F907F906F908A
:104E70005F904F900895AF92BF92CF92DF92EF92E2
:104E8000FF920F931F93DF93CF93CDB7DEB7289791
:104E90000FB6F894DEBF0FBECDBF9C018091440ACF
:104EA000992787FD90958217930740F4AA24BB2485
:104EB000650180E090E0A0E0B0E020C024513E4FCA
:104EC00013E0220F331F1A95E1F7790100E010E09B
:104ED000C9010E94D01EAC01CB01DA015C016D0159
:104EE00084E090E0A0E0B0E0E80EF91E0A1F1B1F6E
:104EF000C7010E94D01EAC01CB01DA01A982BA829F
:104F0000CB82DC828D839E83AF83B8872A2D3A8142
:104F10004B815C81682F7E818F81988528960FB6A2
:104F2000F894DEBF0FBECDBFCF91DF911F910F91DF
:104F3000FF90EF90DF90CF90BF90AF900895809159
:104F40009703882329F48091820A813009F046C0B2
:104F50008091AB0D9091AC0DA091AD0DB091AE0DC7
:104F60002091C2073091C3074091C4075091C507F3
:104F7000821B930BA40BB50B8093580F9093590F82
:104F8000A0935A0FB0935B0F8091580F9091590FD7
:104F9000A0915A0FB0915B0F813526E4920720E073
:104FA000A20720E0B2072CF0805A9C48A040B040F5
:104FB0000CC0803B29EB92072FEFA2072FEFB2071F
:104FC00024F480569347AF4FBF4F8093580F909370
:104FD000590FA0935A0FB0935B0F0895E091790C8D
:104FE000F0917A0C8091AB0D9091AC0DA091AD0D2C
:104FF000B091AE0D248D358D468D578DB9CF209152
:10500000A70A3091A80A8091B30A9091B40A281B8C
:10501000390B253631051CF08AE08093C50D2C59DB
:105020003F4F1CF486EF8093C50D8091C50D181677
:105030001CF481508093C50D8091C50D87FF03C07E
:105040008F5F8093C50D8091C50D813019F08F3F22
:1050500009F080E0089580917C008E3539F58091CB
:105060007A00806480937A0020EA3FE080917A00A1
:1050700086FF06C021153105E1F021503040F6CF02
:10508000232BB9F08091780060917900362F20E0D1
:1050900090E0282B392B442737FD4095542F60E0B2
:1050A00070E381E190E00E94CBFD05C08EE5809326
:1050B0007C0020E030E0C901089580E00895FC0103
:1050C000138212821582148217821682118610862C
:1050D0001386128614860895BF92CF92DF92EF92C4
:1050E000FF920F931F93CF93DF93EC018E89E82FEC
:1050F000F0E0EE0FFF1FEE0FFF1FEC0FFD1F4283CE
:105100005383648375838F5F8E8B853008F01E8A8E
:105110008F898F5F8F8B8150853010F085E08F8B6A
:105120006E010F2EF0E0EF2EF0E0FF2EF0E00F2FDB
:10513000F0E01F2FF02DBB24F60162817381848182
:1051400095810E94E6F99B01AC01C801B7010E945C
:1051500067F87B018C01B39484E090E0C80ED91EFF
:1051600095E0B91649F76F8970E0882777FD80953B
:10517000982F0E94E6F99B01AC01C801B7010E947B
:105180004BF90E94B3F99B01AC01CA01DF91CF91A9
:105190001F910F91FF90EF90DF90CF90BF900895F7
:1051A000FC011282138214821582168217821086E5
:1051B0001186128613861486158616861786108A1F
:1051C000118A128A138A148A158A168A178A0895F0
:1051D00085E00895EF92FF920F931F93CF93DF9393
:1051E000DC018B011E969C911E971C968C911C973E
:1051F000853028F48F5F1C968C931C9706C09923EA
:1052000021F4ED0120E030E026C01C964C911C9763
:105210004150842F992787FD90954F5FEC01CC0F6B
:10522000DD1FCA0FDB1F20E030E07C0102C07D8360
:105230006C83F701E21BF30B68817981061717076E
:10524000DCF42F5F3F4F2297842F821B18167CF3CC
:1052500013C059834883F9014C815D814017510780
:105260005CF42F5F3F4F22961C968C911C9790E028
:105270000197E817F9076CF33196EE0FFF1FEA0F5D
:10528000FB1F118300831E968C911E9791E0892746
:105290001E968C931E971C96EC911C97E53010F48B
:1052A000E69503C01D96EC911D97F0E03196EE0F48
:1052B000FF1FEA0FFB1F80819181DF91CF911F912A
:1052C0000F91FF90EF90089585E0089500D00F9220
:1052D00084E296E0EDB7FEB7928381838DE695E098
:1052E000948383830E94B0920F900F900F900F9041
:1052F000089524E236E0882349F000D00F92EDB7FC
:10530000FEB7328321838DE895E008C000D00F926C
:10531000EDB7FEB73283218389E895E094838383D8
:105320000E94B09284E296E0EDB7FEB7928381834B
:1053300082E895E0948383830E94B0920F900F904F
:105340000F900F90089500D00F9284E296E0EDB791
:10535000FEB79283818387EF99E0948383830E94D1
:10536000B0920F900F900F900F9080E0089500D0B2
:105370000F9284E296E0EDB7FEB7928381838EEBC5
:105380009BE0948383830E94B09280E090E00F9032
:105390000F900F900F90F999FECF1FBA92BD81BD6B
:1053A00010BC0FB6F894FA9AF99A0FBE0196F0E184
:1053B00080309F0781F700D00F9284E296E0EDB72E
:1053C000FEB79283818388EB9BE0948383830E9462
:1053D000B0920F900F900F900F9008950F931F931E
:1053E0008DB79EB70A970FB6F8949EBF0FBE8DBFBC
:1053F000EDB7FEB7319604E216E0ADB7BEB7129630
:105400001C930E93119787E69CE09383828380918F
:10541000B10A9091B20A958384838091B30A9091E6
:10542000B40A978386838091B50A9091B60A9187D2
:1054300080870E94B092EDB7FEB73196ADB7BEB788
:1054400012961C930E93119784E59CE093838283BC
:105450008091D20A9091D30A958384838091D40A53
:105460009091D50A978386838091D60A9091D70A26
:10547000918780870E94B092EDB7FEB73196ADB7A5
:10548000BEB712961C930E93119781E49CE0938310
:1054900082838091F30A9091F40A958384838091AA
:1054A000F50A9091F60A978386838091F70A909186
:1054B000F80A918780870E94B092EDB7FEB73196C7
:1054C000ADB7BEB712961C930E9311978EE29CE077
:1054D000938382838091140B9091150B9583848321
:1054E0008091160B9091170B978386838091180BF0
:1054F0009091190B918780870E94B092EDB7FEB70B
:105500003196ADB7BEB712961C930E9311978BE1EF
:105510009CE0938382838091350B9091360B958329
:1055200084838091370B9091380B97838683809189
:10553000390B90913A0B918780870E94B092EDB71A
:10554000FEB73196ADB7BEB712961C930E93119766
:1055500088E09CE09383828380915B0B90915C0B4D
:105560009583848380915D0B90915E0B97838683F6
:1055700080915F0B9091600B918780870E94B09221
:10558000EDB7FEB73196ADB7BEB712961C930E932A
:10559000119785EF9BE0938382838091810B90919B
:1055A000820B958384838091830B9091840B9783E6
:1055B00086838091850B9091860B918780870E94CE
:1055C000B092EDB7FEB73196ADB7BEB712961C9349
:1055D0000E93119782EE9BE0938382838091A70BB9
:1055E0009091A80B958384838091A90B9091AA0B2D
:1055F000978386838091AB0B9091AC0B91878087CA
:105600000E94B0928DB79EB70A960FB6F8949EBFCF
:105610000FBE8DBF1F910F910895CF93DF939C0113
:105620008DB79EB744970FB6F8949EBF0FBE8DBF3F
:10563000EDB7FEB7319684E296E0ADB7BEB71296ED
:105640009C938E93119788E49DE093838283E90174
:1056500088819981AA81BB8184839583A683B7833E
:105660008C819D81AE81BF8180879187A287B3871E
:1056700088859985AA85BB8584879587A687B787FE
:105680008C859D85AA2797FDA095BA2F808B918B3D
:10569000A28BB38B0E94B0928DB79EB744960FB683
:1056A000F8949EBF0FBE8DBFDF91CF9108958DB747
:1056B0009EB740970FB6F8949EBF0FBE8DBFEDB753
:1056C000FEB7319684E296E0ADB7BEB712969C93D2
:1056D0008E93119784E09EE0938382838091740778
:1056E00090917507A0917607B09177078483958391
:1056F000A683B7838091780790917907A0917A0764
:10570000B0917B0780879187A287B38780917C07C0
:1057100090917D07A0917E07B0917F078487958740
:10572000A687B7870E94B0928DB79EB740960FB6F6
:10573000F8949EBF0FBE8DBF08958DB79EB740975A
:105740000FB6F8949EBF0FBE8DBFEDB7FEB7319672
:1057500084E296E0ADB7BEB712969C938E931197F4
:1057600087E29EE0938382838091800790918107F6
:10577000A0918207B091830784839583A683B78322
:105780008091840790918507A0918607B091870743
:1057900080879187A287B387809188079091890736
:1057A000A0918A07B0918B0784879587A687B787D2
:1057B0000E94B0928DB79EB740960FB6F8949EBFE8
:1057C0000FBE8DBF089500D00F9284E296E0EDB732
:1057D000FEB79283818384EE9FE0948383830E944B
:1057E000B0920F900F900F900F900895EF92FF924C
:1057F0000F931F937A018B018331C9F1843174F4C3
:105800008230C9F0833024F4813009F051C01AC0CD
:105810008430F9F0893009F04BC022C0893399F106
:105820008A3324F4863209F043C027C08F3689F1C9
:105830008337F1F536C0A0E6EA2EA9E0FA2E012D55
:10584000112D3CC0F0EBEF2EF4E0FF2E012D112DB9
:1058500035C0E0ECEE2EE2E1FE2E012D112D2EC022
:1058600070E8E72E75E2F72E012D112D27C0E12CEF
:105870006BE4F62E012D112D21C0E12C56E9F52EF9
:10588000012D112D1BC0E12C41EEF42E012D112D07
:1058900015C03CEFE32E31EBF32E31E0032F112D39
:1058A0000DC0E12C22ECF22E21E0022F112D06C0BA
:1058B00084E296E063E37EE10E94D092B701C801E2
:1058C0001F910F91FF90EF900895AF92BF92CF92EA
:1058D000DF92EF92FF920F931F93DF93CF93CDB799
:1058E000DEB7A4970FB6F894DEBF0FBECDBF809190
:1058F000820A882309F49DC0E9DC1EE4A12E15E08C
:10590000B12EB4E2CB2EB6E0DB2E7E010894E11C72
:10591000F11C64E670E080E090E00E9432F580E9DE
:1059200098E00E9407BD882309F474C0D701E8EE0F
:10593000F7E084E201900D928150E1F780E998E070
:10594000B7010E940CC580E998E00E94DCC160911B
:1059500098087091990880919A0890919B0821EE7F
:105960003EE245E652E40E94CEFB20E030E048EC07
:1059700052E40E94CEFB0E94B3F9613A2CE8720710
:1059800020E0820720E092072CF0605A7C4880409B
:10599000904006C097FF04C0605673478F4F9F4FDB
:1059A000EDB7FEB73E970FB6F894FEBF0FBEEDBF42
:1059B0000DB71EB70F5F1F4FD282C182F801B382AD
:1059C000A28224E630E040E050E00E94EDFDF801C4
:1059D000248335834683578380919208909193085E
:1059E000918780878091940890919508938782870A
:1059F0008091960890919708958784870E94B0922D
:105A00002DB73EB7225F3F4F0FB6F8943EBF0FBE93
:105A10002DBF06C084E296E062E475E00E94D09259
:105A200084E296E00E943B93181619060CF071CFA1
:105A300014C000D00F9284E296E0EDB7FEB79283D7
:105A4000818388E395E0948383830E94B0920F90D2
:105A50000F900F900F9080E04CDC80E0A4960FB682
:105A6000F894DEBF0FBECDBFCF91DF911F910F9194
:105A7000FF90EF90DF90CF90BF90AF900895E091AE
:105A8000790CF0917A0C85AD96AD8130910531F0AD
:105A90000297E1F48EE161E00C94D4F681A58823AD
:105AA000C9F08091E80C91E089278093E80C882365
:105AB00019F08EE160E002C08EE161E00E94D4F650
:105AC000E091790CF0917A0C11A608958EE160E0D6
:105AD0000C94D4F608951F93182F61E068278DE089
