:100000000C9493200C94C0200C94C0200C94C0201D
:100010000C94C0200C94C0200C94C0200D94952CFE
:100020000C94C0200C94C0200C94C0200C94C020D0
:100030000C94C0200C94C0200C94C0200D94C94096
:100040000C94C0200C94C0200C94C0200C94C020B0
:100050000C94C0200C94C0200C94C0200D94AA389D
:100060000C94C0200D94B92D0D94E82D0C94C02053
:100070000C94C0200C94C0200C94C0200C94C02080
:100080000C94C0200C94C0200C94C0200C94C02070
:100090000D94232E0D94522E0C94C0200D94853275
:1000A0000C94C0200D94F6400C94C0200C94C020F9
:1000B0000C94C0200C94C0200D9423410C94C020BB
:1000C0000C94C0200C94C0200C94C0200C94C02030
:1000D0000C94C0200C94C0200D948D2E0D94BC2E39
:1000E0000C94C020E934F134F93401353235093546
:1000F00011353235323532351935213529355F4CD8
:10010000654C634C5F4C614C634C634C614C614C7F
:10011000614C654C654C654C614C614C654C674C61
:1001200028531F53175330531F5312533053305318
:100130003053285328532853305330532853C6592B
:10014000DD59E459CE59D659EC59375A1A5A125A30
:100150000A5A215A295A305AFB59035A515A3F5ABE
:10016000615A675A6E5A745A795A805AF078D3781D
:10017000F078F078A478F0785478A478A478A4780B
:10018000657871788C78A478A478A178F0781E7955
:1001900028791E791E7928791E791E79287928797F
:1001A0002879217928792179287928792179907AF3
:1001B000A77AAB7AB57AB97ABD8ABD7ABD8ABD8A8B
:1001C000BD8AC17AC57AC97A81916A9159911C8F89
:1001D000FC91AE8F5890FC91FC91FC91FC91028FA8
:1001E000028FFC91FC91028F99D4ACD4B5D4D2D4B7
:1001F000E0D4FFD40CD52BD530D54FD560D573D5F1
:100200007DD5A0D5B3D5E5D5F7D524D63DD66CD6CA
:100210007AD6AED6C1D6FBD60DD7C71EC71EEF1EE7
:10022000C71E191F191F191F191F191FC71E191FB4
:10023000191F191F191FEF1EEF1EEF1EEF1EEF1ED5
:10024000931E931EF31E1120371F571F45201B1F9F
:10025000511FDD1F772077207B207B203D203D2014
:10026000C31FC31F77207B20C31F5320471F591F65
:1002700029208720BB1FDB1FF71E051F6D1F39209C
:10028000FB1E651F951E971F271FF11E391FBF1FDD
:10029000911FFD1E0120AD1F9D1F61200F20011F1A
:1002A000ED1F5B1F13203120CB1E771F831F071FFD
:1002B000F91FB51FBD1FFD1FD31E7D20091F75200F
:1002C000B91E036EDB363D9A9999993DABAAAA2ACD
:1002D0003E000000803F084AD73B3BCE016E84BC05
:1002E000BFFDC12F3D6C74319ABD56833DDA3D0090
:1002F000C77F11BED9E4BB4C3E916BAAAABE0000D9
:1003000000803F07634236B79BD8A71A3968561852
:10031000AEBAAB558C1D3CB7CC5763BD6DEDFD75CA
:100320003EF6177231BF000000803F072C7AA5BA55
:100330006CC590DA3B9365FC8BBC53F810FD3C56C2
:1003400092834DBD879D3AB63DCBC9BF5BBE73DA84
:100350000FC93F05A84CCDB2D44EB93836A9020C0E
:1003600050B9918688083CA6AAAA2ABE000000803F
:100370003F08000000BE922449123EABAAAA2ABE42
:10038000CDCCCC4C3E00000080BEABAAAAAA3E0059
:10039000000000BF000000803F0000000000084196
:1003A00078D3BB4387D1133D190E3CC3BD4282AD08
:1003B0002B3E68EC8276BED98FE1A93E4C80EFFFE0
:1003C000BE01C4FF7F3F0000000000020052415701
:1003D0005F53454E5300000000000000000068001D
:1003E0000000803F02014558545F535441540000BF
:1003F000000000000000006A000000803F0202527E
:10040000435F4348414E0000000000000000000030
:100410006C000000803F02035241575F4354524C2E
:100420000000000000000000006E000000803F029D
:1004300004504F534954494F4E0000000000000043
:10044000000070000000803F0205455854524131C1
:1004500000000000000000000000007200000080AA
:100460003F0206455854524132000000000000008F
:100470000000000074000000803F020745585452FD
:100480004133000000000000000000000076000082
:1004900000803F0208504152414D530000000000CF
:1004A00000000000000078000000484200FF00004B
:1004B000000000000000000000000000000000003C
:1004C000000000000002464F524D41545F56455215
:1004D00053494F4E00000000730800000000015314
:1004E000595349445F53575F545950450000000029
:1004F000017508000000000253595349445F5448F5
:1005000049534D4156000000007076080000803FBE
:100510000253595349445F4D59474353000000006B
:10052000000071780800007F430153455249414C57
:10053000305F424155440000000000747A0800001A
:10054000E6420153455249414C335F424155440014
:1005500000000000727B08000064420154454C45D5
:100560004D5F44454C4159000000000000737C0879
:1005700000000000044B46465F50544348434F4D33
:10058000500000000000C87D08EC51383E044B4686
:10059000465F524444524D4958000000000000C9D3
:1005A000810800000040044B46465F5054434832E7
:1005B0005448520000000000CA85080000000004F2
:1005C0004B46465F544852325054434800000000A6
:1005D00000CB89080000000001535449434B5F4D94
:1005E0004958494E470000000000190F09000080DB
:1005F0003F04544B4F46465F5448525F4D494E535B
:100600005044002210090000000004544B4F46469D
:100610005F5448525F4D494E414343002314090043
:10062000000000014C4556454C5F524F4C4C5F4C0E
:10063000494D4954002518090000A040024C414E84
:10064000445F50495443485F43440000000017E2B0
:100650000800000000044C414E445F464C415245A6
:100660005F414C540000001BE40800004040044C73
:10067000414E445F464C4152455F534543000000A4
:100680001CE80800000040014E41565F434F4E54A5
:10069000524F4C4C45520000002891080000803F0A
:1006A00004414C545F4D4958000000000000000018
:1006B00000008392080000803F01414C545F435486
:1006C000524C5F414C4700000000007C960800003F
:1006D000000002414C545F4F464653455400000011
:1006E0000000000020C6080000000001434D445FE8
:1006F000544F54414C0000000000000000DD9808F9
:100700000000000001434D445F494E44455800003D
:10071000000000000000DE990800000000025750B1
:100720005F5241444955530000000000000000DFC3
:100730009A080000A0410257505F4C4F495445525F
:100740005F52414400000000E09C0800002042018C
:1007500046454E43455F414354494F4E000000001B
:1007600000E19E08000000000146454E43455F54ED
:100770004F54414C000000000000E29F08000000C0
:10078000000146454E43455F4348414E4E454C00AF
:10079000000000E3A008000000000246454E43456B
:1007A0005F4D494E414C540000000000E4A1080098
:1007B0000000000246454E43455F4D4158414C54B0
:1007C0000000000000E5A3080000000002415253B1
:1007D00050445F4642575F4D494E0000000078A5E7
:1007E000080000C0400241525350445F4642575FE8
:1007F0004D41580000000079A70800000C42014656
:100800004257425F454C45565F5245560000000036
:100810007BA9080000000001464257425F434C4953
:100820004D425F5241544500007DAA08000000403F
:10083000015448525F4D494E000000000000000086
:100840000000B5AB0800000000015448525F4D4164
:100850005800000000000000000000B6AC080000D6
:100860007042015448525F534C4557524154450021
:1008700000000000BDAD0800000000015448525FB8
:10088000535550505F4D414E0000000000BEAE0871
:1008900000000000015448525F504153535F5354CD
:1008A000414200000000BFAF0800000000015448B2
:1008B000525F4641494C534146450000000000B795
:1008C000B00800000000025448525F46535F564192
:1008D0004C55450000000000B8B10800806D44018F
:1008E0005452494D5F5448524F54544C45000000F7
:1008F00000B9B30800000C42015448524F54544C04
:10090000455F4E554447450000001FB40800008075
:100910003F0146535F53484F52545F4143544E008A
:10092000000000BAB508000000000146535F4C4FBC
:100930004E475F4143544E0000000000BBB6080024
:100940000000000146535F4743535F454E41424C10
:100950000000000000BCB7080000000001464C5435
:100960004D4F44455F434800000000000000D2B8EE
:10097000080000004101464C544D4F4445310000F1
:1009800000000000000000D3B9080000304101461B
:100990004C544D4F44453200000000000000000060
:1009A000D4BA080000304101464C544D4F44453301
:1009B000000000000000000000D5BB08000000405F
:1009C00001464C544D4F44453400000000000000E7
:1009D0000000D6BC080000004001464C544D4F4476
:1009E0004535000000000000000000D7BD080000F1
:1009F000000001464C544D4F4445360000000000B5
:100A000000000000D8BE0800000000014348375F26
:100A10004F5054494F4E00000000000000D9BF085D
:100A20000000803F024C494D5F524F4C4C5F4344A5
:100A300000000000000098C00800C05A45024C4960
:100A40004D5F50495443485F4D41580000000099A4
:100A5000C2080080BB44024C494D5F504954434892
:100A60005F4D494E000000009AC4080000FAC4011E
:100A70005452494D5F4155544F00000000000000A2
:100A8000000ACD080000803F01454C45564F4E5F9F
:100A90004D4958494E47000000000DCE08000000A7
:100AA0000001454C45564F4E5F5245564552534501
:100AB0000000000ED1080000000001454C45564FD3
:100AC0004E5F4348315F5245560000000FD2080088
:100AD00000000001454C45564F4E5F4348325F527F
:100AE000455600000010D308000000000156544194
:100AF000494C5F4F5554505554000000000027CF1B
:100B0000080000000001454C45564F4E5F4F5554BC
:100B10005055540000000029D00800000000025386
:100B200059535F4E554D5F52455345545300000095
:100B300002D40800000000024C4F475F4249544D68
:100B400041534B0000000000000BD60800C0ED44EC
:100B5000015253545F5357495443485F4348000080
:100B6000000015D80800000000015253545F4D49A1
:100B70005353494F4E5F43480000001AD908000004
:100B80000000035452494D5F41525350445F434D5E
:100B9000000000009BDA0800009644045343414CD7
:100BA000494E475F535045454400000000CC8D0836
:100BB00000007041034D494E5F474E445350445F1F
:100BC000434D000000009EEC0800007A440254529D
:100BD000494D5F50495443485F4344000000000CB6
:100BE000F0080000000003414C545F484F4C445F44
:100BF00052544C00000000009CDE0800401C4602DD
:100C0000414C545F484F4C445F464257434D0000AF
:100C1000007AF20800000000014D41475F454E4157
:100C2000424C450000000000000084F508000080F0
:100C30003F01464C41505F315F504552434E540096
:100C400000000011F7080000000001464C41505F11
:100C5000315F5350454544000000000012F8080081
:100C600000000001464C41505F325F504552434EF8
:100C7000540000000013F9080000000001464C4138
:100C8000505F325F5350454544000000000014FAA5
:100C9000080000000001424154545F4D4F4E49543A
:100CA0004F52000000000086F608000000000456C5
:100CB0004F4C545F444956494445520000000000DF
:100CC00087FB080AD7634004414D505F5045525F8F
:100CD000564F4C54000000000088FF085C8FDA413A
:100CE00004414D505F4F46465345540000000000FC
:100CF00000008F03090000000003424154545F4389
:100D000041504143495459000000008A070900003E
:100D1000DC4401424154545F564F4C545F50494E9D
:100D200000000000A80C09000000000142415454DA
:100D30005F435552525F50494E00000000A90D0913
:100D40000000803F01525353495F50494E0000005C
:100D5000000000000000A70B09000080BF01494E01
:100D6000564552544544464C545F43480000009D4C
:100D70000E09000000000148494C5F534552564F90
:100D8000530000000000000026F4080000000001ED
:100D900054505F434C5F4E4156000000000000007D
:100DA00000A2CB080000803F0154505F41575052D1
:100DB0005F4E4156000000000000A3CC08000080F8
:100DC0003F0254505F41474C5F52454600000000CF
:100DD000000000A0C908000000000154505F4D53FE
:100DE0004C5F52454600000000000000A1C808000A
:100DF00000000008474E445F0000000000000000B3
:100E000000000000008D4D0BAB2300000843414D56
:100E10005F00000000000000000000000000A4B718
:100E20000BCE2B0000085243315F00000000000091
:100E300000000000000000AA1909ED2A0000085275
:100E400043325F00000000000000000000000000CE
:100E5000AB3609ED2A0000085243335F0000000062
:100E6000000000000000000000AC5309ED2A000063
:100E7000085243345F000000000000000000000042
:100E80000000AD7009ED2A0000085243355F0000F4
:100E90000000000000000000000000AE8D09832B60
:100EA0000000085243365F00000000000000000010
:100EB00000000000AFAB09832B0000085243375FEE
:100EC00000000000000000000000000000B0C909A0
:100ED000832B0000085243385F0000000000000030
:100EE000000000000000B1E709832B000008415218
:100EF000535032505443485F00000000000000F39C
:100F0000D50A702A000008454E52475932544852BB
:100F10005F00000000000000F5F30A702A000008DE
:100F2000414C5432505443485F0000000000000020
:100F300000F6110B702A000008574845454C5354E1
:100F40004545525F000000000000F72F0B702A009B
:100F50000008524C4C325352565F00000000000013
:100F6000000000F1050A702A00000850544348327E
:100F70005352565F0000000000000000F2230A7088
:100F80002A0000085957325352565F0000000000F3
:100F90000000000000F4410A702A000008434F4D91
:100FA000504153535F00000000000000000085C165
:100FB0000BD5260000085352305F000000000000EF
:100FC000000000000000006E990CCB0300000853E5
:100FD00052335F000000000000000000000000002D
:100FE0006F210DCB03000008494E535F0000000045
:100FF000000000000000000000212606B6270000C7
:1010000008414852535F000000000000000000004B
:1010100000008C7506762900000841525350445F49
:1010200000000000000000000000008EF4074B2CC0
:101030000000084E41564C315F00000000000000E7
:1010400000000000EBA90D35390000084D4E545F3B
:1010500000000000000000000000000000A50808DB
:10106000A32F0000000000000000000000000000AE
:101070000000000000000000000000000073657424
:101080007570007265736574000000000000000058
:10109000002546726164696F0000000000000000D6
:1010A00000A6606D6F646573000000000000000022
:1010B000001B606C6576656C00000000000000009D
:1010C00000F46D616363656C0000000000000000C7
:1010D00000A945636F6D706173730000000000002C
:1010E000002C456465636C696E6174696F6E000005
:1010F000001A456261747465727900000000000096
:10110000007B4373686F7700000000000000000060
:1011100000B9447365740000000000000000000086
:1011200000AD4365726173650000000000000000BF
:1011300000B13241726475506C616E652056322E7A
:1011400037332D7870312075706461746564206266
:1011500079204A4C4E006C6F67730000000000005D
:10116000000000000B2E7365747570000000000015
:101170000000000058437465737400000000000014
:101180000000000035437265626F6F74000000005C
:10119000000000000E3468656C7000000000000064
:1011A00000000000EF33746573740070776D000009
:1011B0000000000000000000009A5F726164696F27
:1011C000000000000000000000BA677061737374D3
:1011D000687275000000000000B4426661696C73BB
:1011E000616665000000000000675E6261747465FE
:1011F000727900000000000000056772656C61797B
:101200000000000000000000000E40776179706F60
:10121000696E74730000000000153F786265650018
:101220000000000000000000002236656564756D56
:101230007000000000000000002F3C6D6F646573BB
:10124000776974636800000000CA3D67707300002E
:10125000000000000000000000243D696E730000E3
:101260000000000000000000006537636F6D7061D2
:10127000737300000000000000AD396C6F67676990
:101280006E67000000000000007F36736176696EB3
:1012900067206F66667365747300636F6D7061734A
:1012A00073206E6F74206865616C7468790048659E
:1012B0006164696E673A20256C642C2058595A3A4B
:1012C0002025642C2025642C2025642C0958595A8B
:1012D0006F66663A2025362E32662C2025362E3251
:1012E000662C2025362E32660A00436F6D706173BE
:1012F0007320696E697469616C69736174696F6E7A
:10130000206661696C65642100436F6D7061737361
:101310003A200061626C65640A0064697300656E5E
:10132000004D6167206F6666736574733A202534DB
:101330002E34662C2025342E34662C2025342E3471
:10134000660A004D6167204465636C696E6174696B
:101350006F6E3A2025342E34660A003F3F0048491C
:101360004C00484D433538343300484D4335383808
:10137000334C00436F6D706173733A20002D004849
:10138000697420456E74657220746F206578697485
:101390002E0A0A00723A2534642020703A253464FB
:1013A0002020793A2533642020673D2825352E31C9
:1013B000662025352E31662025352E3166292020E0
:1013C000613D2825352E31662025352E31662025B4
:1013D000352E3166290A002E004C61743A20256CA6
:1013E000642C204C6F6E20256C642C20416C743A68
:1013F00020256C646D2C2023736174733A2025645E
:101400000A00506F736974696F6E2025640A004387
:101410006F6E74726F6C2043482000202530327844
:1014200000253034783A00426567696E205842657D
:101430006520582D4354552052616E676520616EBA
:1014400064205253534920546573743A0A004C6F18
:1014500069746572207261646975733A2025640A43
:101460000A00486974207261646975733A202564C2
:101470000A00256420776179706F696E74730A00C1
:10148000486F6C6420616C746974756465206F6664
:101490002025646D0A00486F6C6420637572726564
:1014A0006E7420616C7469747564650A00636F6D95
:1014B0006D616E6420233A2025642069643A2564B6
:1014C000206F7074696F6E733A25642070313A250D
:1014D000642070323A256C642070333A256C6420A5
:1014E00070343A256C64200A0052656C6179206F73
:1014F00066660A0052656C6179206F6E0A004E6F55
:101500007420656E61626C65640A00563A20253469
:101510002E34662C20413A2025342E34662C206D42
:1015200041683A2025342E34660A00563A20253484
:101530002E34660A004D5347204653204F4646201E
:101540002575004D5347204653204F4E20257500EA
:10155000547269676765726564204155544F2078FD
:10156000616363656C3D252E3166004C4F532063EB
:101570006175736564206E6F206368616E676520B6
:10158000696E2041504D2E0A005448524F54544C1D
:1015900045204641494C5341464520414354495614
:1015A000415445443A2025642C2000434F4E545268
:1015B0004F4C204D4F4445204348414E4745443A07
:1015C00020005448524F54544C45204348414E4704
:1015D0004544202564200A00556E706C75672062B2
:1015E0006174746572792C207468726F74746C65A0
:1015F00020696E206E65757472616C2C2074757232
:101600006E206F666620726164696F2E0A004D6FEE
:10161000646528257529004C6F6974657200525401
:101620004C004155544F004642575F4200464257D6
:101630005F4100547261696E696E67005374616244
:10164000696C697A6500436972636C65004D616E0F
:1016500075616C0043483A002C00494E20313A2015
:10166000256409323A20256409333A202564093477
:101670003A20256409353A20256409363A20256444
:1016800009373A20256409383A2025640A00494E72
:101690003A09313A20256409323A20256409333A5F
:1016A00020256409343A20256409353A2025640947
:1016B000363A20256409373A20256409383A20252E
:1016C000640A00436F6D6D616E64733A0A20206C8A
:1016D0006F677320202020202020206C6F672072ED
:1016E0006561646261636B2F7365747570206D6FE3
:1016F00064650A20207365747570202020202020E6
:10170000207365747570206D6F64650A20207465A0
:101710007374202020202020202074657374206D95
:101720006F64650A20207265626F6F74202020202C
:1017300020207265626F6F7420746F20666C696719
:101740006874206D6F64650A0A0054657374204DD7
:101750006F64650A0A005365747570204D6F646587
:101760000A0A494D504F5254414E543A206966205E
:10177000796F752068617665206E6F742070726570
:1017800076696F75736C79207365742074686973FA
:101790002073797374656D2075702C2075736520C6
:1017A0007468650A2772657365742720636F6D6DB1
:1017B000616E6420746F20696E697469616C697A06
:1017C000652074686520454550524F4D20746F2048
:1017D00073656E7369626C652064656661756C74AF
:1017E0002076616C7565730A616E64207468656E3D
:1017F000207468652027726164696F2720636F6DAC
:101800006D616E6420746F20636F6E6669677572B8
:101810006520666F7220796F757220726164696FDE
:101820002E0A0A000A547970652027592720616E14
:10183000642068697420456E74657220746F206539
:101840007261736520616C6C20776179706F696E6D
:101850007420616E6420706172616D6574657220C0
:10186000646174612C20616E79206F7468657220E8
:101870006B657920746F2061626F72743A20006426
:101880006F6E650A000A45726173696E672045458F
:1018900050524F4D0A0043616E6E6F742073657431
:1018A00020706172616D65746572206F6620747955
:1018B00070652025642E0A0056616C7565206F7571
:1018C00074206F662072616E676520666F72207487
:1018D00079706520494E5431360A0056616C756541
:1018E000206F7574206F662072616E676520666F69
:1018F00072207479706520494E54380A0050617224
:10190000616D206E6F7420666F756E643A2025736A
:101910000A00496E76616C696420636F6D6D616E5B
:10192000642E2055736167653A20736574203C6EA0
:10193000616D653E203C76616C75653E0A005061C4
:1019400072616D65746572206E6F7420666F756E5E
:10195000643A20272573270A000A4F7074696F6E56
:10196000733A20332D34004D6F6E69746F72696E57
:101970006720766F6C747320616E64206375727279
:10198000656E74004D6F6E69746F72696E67206268
:1019900061747420766F6C74730042617474206D8E
:1019A0006F6E69746F72696E672064697361626CCF
:1019B00065640042617474204D6F696E746F720AC1
:1019C000000A4F7074696F6E733A5B6F6E2C6F66AE
:1019D000662C72657365745D0A00726573657400C8
:1019E0006F666600436F6D7061737320696E697412
:1019F00069616C69736174696F6E206661696C6599
:101A00006421006F6E00496E697469616C69736965
:101A10006E67206779726F7300494E530A004779E9
:101A2000726F206F6666736574733A2025342E32A8
:101A3000662C2025342E32662C2025342E32660A60
:101A400000416363656C206F6666736574733A204A
:101A500025342E32662C2025342E32662C20253457
:101A60002E3266097363616C653A2025342E326626
:101A70002C2025342E32662C2025342E32660A0086
:101A80004E4F2061697273706565640042656769D5
:101A90006E6E696E6720494E532063616C69627295
:101AA0006174696F6E3B20646F206E6F74206D6F80
:101AB000766520706C616E65005761726D696E6746
:101AC000207570204144432E2E2E005761697469A1
:101AD0006E6720666F722066697273742048494C85
:101AE0005F5354415445206D6573736167650044CD
:101AF000656D6F20536572766F7321006261726F3E
:101B00006D657465722063616C6962726174696F7E
:101B10006E20636F6D706C6574650043616C696203
:101B2000726174696E67206261726F6D657465724F
:101B3000007A65726F2061697273706565642063F5
:101B4000616C69627261746564000A4D6F7665202C
:101B5000524320746F67676C65207377697463689C
:101B600020746F206561636820706F736974696F9A
:101B70006E20746F20656469742C206D6F7665200B
:101B800061696C65726F6E20737469636B20746F2A
:101B90002073656C656374206D6F6465732E0050EF
:101BA0006F732025643A2000466C69676874206D65
:101BB0006F6465730A000A53617665642053657427
:101BC00074696E67730A0A000A4D6F766520616C4E
:101BD0006C20636F6E74726F6C7320746F2065611C
:101BE00063682065787472656D652E20486974207D
:101BF000456E74657220746F20736176653A200AB1
:101C0000000A4E6F20726164696F3B204368656310
:101C10006B20636F6E6E6563746F72732E000A0AB9
:101C2000526164696F2053657475703A0A0052619D
:101C300064696F0A004348383A202564207C2025D7
:101C400064207C2025640A004348373A202564201C
:101C50007C202564207C2025640A004348363A20F5
:101C60002564207C202564207C2025640A004348CC
:101C7000353A202564207C202564207C2025640AB8
:101C8000004348343A202564207C202564207C20B1
:101C900025640A004348333A202564207C202564CB
:101CA000207C2025640A004348323A202564207CA9
:101CB000202564207C2025640A004348313A2025F1
:101CC00064207C202564207C2025640A000A46418B
:101CD00043544F525920524553455420636F6D7001
:101CE0006C657465202D20706C656173652072656C
:101CF0007365742041504D20746F20636F6E74695A
:101D00006E7565000A547970652027592720616E29
:101D1000642068697420456E74657220746F207049
:101D20006572666F726D20666163746F727920727E
:101D3000657365742C20616E79206F7468657220FC
:101D40006B657920746F2061626F72743A20005263
:101D50006563656976656420526571756573742085
:101D60002D206A756D7020746F20636F6D6D616ECC
:101D700064202325690043616E6E6F74206368617F
:101D80006E676520746F206E6F6E2D4E61762063D6
:101D90006D6420257500526563656976656420521F
:101DA000657175657374202D207265736574206D7F
:101DB000697373696F6E00283229204E6F6E2D4E45
:101DC000617620636F6D6D616E642049442075708B
:101DD000646174656420746F2023256920696478C8
:101DE0003D2575004E6F6E2D4E617620636F6D6DD3
:101DF000616E642049442075706461746564207468
:101E00006F20232569206964783D2575006F7574FE
:101E1000206F6620636F6D6D616E647321004E618B
:101E20007620636F6D6D616E6420696E64657820E5
:101E30007570646174656420746F20232569005295
:101E4000657475726E696E6720746F20486F6D657A
:101E500000457865637574696E67206E61762063EE
:101E60006F6D6D616E6420494420232569005265C1
:101E700073657474696E6720707265765F57500081
:101E8000457865637574696E6720636F6D6D616E0B
:101E9000642049442023256900444F5F5345545F23
:101EA000524F49206E6F7420737570706F72746535
:101EB0006400457865637574696E6720636F6D6D46
:101EC000616E642049442023256900736574746938
:101ED0006E6720636F6D6D616E6420696E646578F6
:101EE0003A202569004A756D7020746F2057502084
:101EF00025752E204A756D7073206C6566743A20C6
:101F0000256400536B697070696E6720696E766135
:101F10006C6964206A756D7020746F202569004AB1
:101F2000756D7073206C6566743A2030202D2073B7
:101F30006B697070696E6700536574207468726FA6
:101F400074746C65202575005365742067726F7515
:101F50006E64737065656420257500536574206137
:101F600069727370656564202575206D2F73006735
:101F7000707320616C743A20256C7500696E697409
:101F800020686F6D65006261642066656E63652020
:101F9000706F696E74006261642066656E636520AF
:101FA000706F696E740066656E63696E67206D752B
:101FB00073742062652064697361626C6564006695
:101FC0006C6967687420706C616E20726563656906
:101FD00076656400666C6967687420706C616E2059
:101FE0007570646174652072656A65637465640008
:101FF000556E6B6E6F776E20706172616D65746582
:102000007220252E31367300556E6B6E6F776E2001
:10201000706172616D6574657220696E64657820A7
:10202000256400636F6D6D616E6420726563656920
:102030007665643A2000666C69676874206D6F6429
:1020400065203D202575004661696C7361666520D9
:102050002D2053686F7274206576656E74206F6EE4
:102060002C20004661696C73616665202D205368E1
:102070006F7274206576656E74206F6666006765A2
:102080006F2D66656E63652074726967676572653A
:10209000640067656F2D66656E6365204F4B006752
:1020A000656F2D66656E6365207365747570206558
:1020B00072726F720067656F2D66656E6365206C66
:1020C0006F61646564007665726966795F6E6176DA
:1020D0003A20496E76616C6964206F72206E6F20C1
:1020E00063757272656E74204E617620636D640054
:1020F000486F6C64696E6720636F75727365202525
:102100006C64004C616E6420436F6D706C65746527
:10211000202D20486F6C6420636F757273652025D5
:102120006C640050617373656420576179706F69E6
:102130006E742023256920646973742025756D00F1
:102140005265616368656420576179706F696E7468
:102150002023256920646973742025756D005265FC
:10216000616368656420576179706F696E742023BC
:10217000256920646973742025756D007665726920
:1021800066795F6E61763A204C4F49544552206F14
:10219000726269747320636F6D706C65746500762C
:1021A00065726966795F6E61763A204C4F49544595
:1021B000522074696D6520636F6D706C6574650085
:1021C0005265616368656420686F6D65007665724D
:1021D0006966795F636F6E6469746F6E3A20496EE9
:1021E00076616C6964206F72206E6F206375727205
:1021F000656E7420436F6E646974696F6E20636DE1
:102200006400666C69676874206D6F6465203D20AA
:102210002575004661696C73616665202D204C6FE1
:102220006E67206576656E74206F6E2C20000A50F4
:102230007265737320454E54455220332074696D86
:10224000657320746F20737461727420696E746595
:10225000726163746976652073657475700A0043F2
:102260006F6D7061737320696E697469616C6973F5
:102270006174696F6E206661696C656421000A0A89
:10228000496E69742041726475506C616E652056A8
:10229000322E37332D787031207570646174656427
:1022A000206279204A4C4E0A0A46726565205241E6
:1022B0004D3A2025750A006C6F61645F616C6C207B
:1022C000746F6F6B20256C7575730A00646F6E6593
:1022D0002E004669726D77617265206368616E6772
:1022E000653A2065726173696E6720454550524FAB
:1022F0004D2E2E2E0A00496E76616C69642053457E
:102300005249414C335F42415544000A0A2052650C
:1023100061647920746F20464C592E003C737461BF
:10232000727475705F67726F756E643E2047524FAE
:10233000554E4420535441525400496E69746961AA
:102340006C6973696E672041504D2E2E2E0020203F
:1023500025530A00436F6D6D616E64733A00496ED8
:1023600076616C696420636F6D6D616E642C20749E
:10237000797065202768656C70270065786974003E
:1023800068656C700025535D200025733A20256632
:102390000A0025733A20256C640A0025733A20252B
:1023A000640A0025733A2025640A0004024142535E
:1023B0005F505245535300000000000000000C0025
:1023C00000000000040354454D50000000000000D0
:1023D0000000000000000008000000000000FF00F6
:1023E00000000000000000000000000000000000ED
:1023F00000000000000050414E49433A2041505F28
:102400004261726F3A3A7265616420756E737563EA
:102410006365737366756C20666F72206D6F72658D
:10242000207468616E203530306D7320696E2041F4
:10243000505F4261726F3A3A63616C6962726174B3
:1024400065205B335D0D0A0050414E49433A2041FF
:10245000505F4261726F3A3A7265616420756E73C3
:1024600075636365737366756C20666F72206D6F3C
:102470007265207468616E203530306D7320696E2E
:102480002041505F4261726F3A3A63616C696272D7
:10249000617465205B325D0D0A0050414E49433A3C
:1024A0002041505F4261726F3A3A726561642075F3
:1024B0006E7375636365737366756C20666F7220E7
:1024C0006D6F7265207468616E203530306D7320D9
:1024D000696E2041505F4261726F3A3A63616C6984
:1024E0006272617465205B315D0D0A0050414E4996
:1024F000433A2041505F4261726F5F4D5335363130
:102500003120746F6F6B206D6F7265207468616E1F
:1025100020313030306D7320746F20696E697469BA
:10252000616C697A650050414E49433A2041505FE1
:102530004261726F5F4D53353631313A20666169C1
:102540006C656420746F2074616B652073657269BB
:10255000616C2073656D6170686F726520666F7263
:1025600020696E69740050414E49433A2041505FE2
:102570004261726F5F4D53353631313A204E554CC2
:102580004C2073657269616C2064726976657200B3
:1025900050414E49433A206661696C656420746F0E
:1025A0002074616B65205F6932635F73656D2031F4
:1025B00030302074696D657320696E206120726F00
:1025C000772C20696E2041505F4261726F5F4D53DE
:1025D000353631313A3A5F75706461746500504147
:1025E0004E49433A2041505F4261726F5F4D53350F
:1025F00036313120646964206E6F74206765742001
:1026000076616C6964204932432073656D6170683E
:10261000726F65210050414E49433A206661696CF2
:10262000656420746F2074616B65205F7370695FEF
:1026300073656D203130302074696D657320696E6B
:10264000206120726F772C20696E2041505F4261BB
:10265000726F5F4D53353631313A3A5F7570646150
:1026600074650050414E49433A2041505F426172C7
:102670006F5F4D533536313120646964206E6F745D
:10268000206765742076616C69642053504920731B
:10269000656D617068726F65210050414E49433A23
:1026A0002041505F4261726F5F4D533536313120AA
:1026B000646964206E6F74206765742076616C694C
:1026C00064205350492064657669636520647269AB
:1026D000766572210005014F46530000000000009E
:1026E00000000000000000001100000000000402D3
:1026F000444543000000000000000000000000000E
:10270000001D000000000001034C4541524E000036
:10271000000000000000000000000F000000803FEB
:1027200001045553450000000000000000000000B7
:1027300000000021000000803F01054155544F4436
:1027400045430000000000000000000022000000DF
:10275000803F01064D4F544354000000000000002C
:1027600000000000009D000000000005074D4F54D0
:1027700000000000000000000000000000009E00BB
:102780000000000001084F5249454E54000000006F
:102790000000000000000010000000000000FF002A
:1027A0000000000000000000000000000000000029
:1027B000000000000000020050524F445543545F97
:1027C0004944000000000000001A0000000000055D
:1027D000014143435343414C00000000000000000E
:1027E00000001C000000000005024143434F464624
:1027F000530000000000000000000028000000005E
:102800000005034759524F464653000000000000A0
:102810000000000034000000000001044D50553657
:102820004B5F46494C5445520000000000400000F8
:1028300000000000FF000000000000000000000099
:1028400000000000000000000000000043616C690F
:1028500062726174696F6E204641494C45440A00BA
:1028600043616C6962726174696F6E207375636332
:1028700065737366756C0A005363616C696E673AC1
:1028800020252E326620252E326620252E32660A1D
:10289000004F6666736574733A20252E32662025D4
:1028A0002E326620252E32660A00506C6163652048
:1028B00041504D20255320616E6420707265737302
:1028C00020616E79206B65792E0A006F6E20697425
:1028D00073204241434B006E6F7365205550006E6C
:1028E0006F736520444F574E006F6E2069747320DC
:1028F00052494748542073696465006F6E206974BB
:1029000073204C4546542073696465006C65766598
:102910006C0020002A00496E697420416363656C75
:10292000000A6779726F20646964206E6F74206397
:102930006F6E76657267653A20646966663D2566E6
:10294000206470730A002A00496E69742047797206
:102950006F0054696D6564206F75742077616974C8
:10296000696E6720666F7220757365722072657379
:10297000706F6E73650004024750535F4741494EC4
:1029800000000000000000000028000000803F015F
:10299000034750535F5553450000000000000000FE
:1029A00000002C000000803F04045941575F500094
:1029B000000000000000000000000020009A99992B
:1029C0003E040552505F500000000000000000006F
:1029D0000000000024009A99993E010657494E4490
:1029E0005F4D41580000000000000000002D000075
:1029F00000000005085452494D000000000000008E
:102A00000000000000003D000000000001094F52DE
:102A100049454E544154494F4E0000000000002EDD
:102A20000000000000040A434F4D505F42455441EE
:102A300000000000000000001C00CDCCCC3D010BCC
:102A40004750535F4D494E5341545300000000001E
:102A5000002F000000C04000FF0000000000000048
:102A60000000000000000000000000000000000066
:102A70000400500000000000000000000000000002
:102A800000000000000000000004014900000000F8
:102A90000000000000000000000000000400000032
:102AA00000000402440000000000000000000000DC
:102AB00000000000000800000000000203494D4132
:102AC00058000000000000000000000000000C00A2
:102AD0000000000000FF00000000000000000000F7
:102AE0000000000000000000000000000002004D97
:102AF000494E00000000000000000000000000003F
:102B00000A000080894402015452494D000000002F
:102B10000000000000000000000C000080BB440228
:102B2000024D4158000000000000000000000000BD
:102B300000000E000080ED440103524556000000E5
:102B400000000000000000000000001000000080F5
:102B50003F0204445A000000000000000000000092
:102B60000000000011000000000000FF0000000055
:102B70000000000000000000000000000000000055
:102B8000000000080000000000000000000000003D
:102B90000000000000000000ED2A00000101465581
:102BA0004E4354494F4E0000000000000000001D3D
:102BB000000000000000FF00000000000000000016
:102BC0000000000000000000000000000000010004
:102BD00054524947475F54595045000000000000D7
:102BE0000000000000000001014455524154494FCB
:102BF0004E00000000000000000001000000204125
:102C00000202534552564F5F4F4E00000000000035
:102C100000000002000080A2440203534552564FB8
:102C20005F4F4646000000000000000004000080E6
:102C3000894400FF000000000000000000000000C8
:102C400000000000000000000000000100454E41AF
:102C5000424C4500000000000000000000000B0096
:102C60000000803F010155534500000000000000B6
:102C7000000000000000000A000000000004024FF5
:102C800046465345540000000000000000000000CC
:102C90000200000000000403524154494F000000AC
:102CA0000000000000000000000600492EFF3F0069
:102CB000FF00000000000000000000000000000015
:102CC000000000000000000004004F4D4547410097
:102CD0000000000000000000000000000000008074
:102CE0003F04014B5F5000000000000000000000A6
:102CF000000000000400CDCCCC3E04024B5F440039
:102D000000000000000000000000000000080000BB
:102D100000000004034B5F490000000000000000B9
:102D20000000000000000C00000000000204524DF2
:102D300041585F5500000000000000000000001036
:102D400000000000000205524D41585F44000000A1
:102D50000000000000000000120000000000040657
:102D60004B5F524C4C0000000000000000000000CF
:102D70000014000000803F00FF0000000000000081
:102D80000000000000000000000000000000000043
:102D900004004F4D454741000000000000000000C6
:102DA00000000000000000803F04014B5F50000065
:102DB0000000000000000000000000000400CDCC76
:102DC000CC3E04024B5F4400000000000000000005
:102DD000000000000008000000000004034B5F49F1
:102DE00000000000000000000000000000000C00D7
:102DF000000000000204524D415800000000000095
:102E00000000000000000010000000704200FF0001
:102E100000000000000000000000000000000000B2
:102E200000000000000004004B5F410000000000B3
:102E3000000000000000000000000000000000048E
:102E4000014B5F490000000000000000000000008E
:102E5000000004000000000004024B5F440000007A
:102E6000000000000000000000000008000000005A
:102E70000004034B5F524C4C0000000000000000B7
:102E8000000000000C000000803F00FF0000000078
:102E90000000000000000000000000000000000032
:102EA000000000327C8900EDD968770000005900ED
:102EB00000000000000000D69FDCA81817AA90436D
:102EC0007327F6B968EDF4DED409FEE61C1C84DD38
:102ED000E80B992927D6DF8D210F036418EFEE1E2A
:102EE000F0B7828200941500F37C00000014009873
:102EF0008F00007F6A00000000000000E7B73F3647
:102F000000000000000000AF669ED0385D000000A9
:102F100000EB5D7C000000000000000000000000ED
:102F200000000000000000000000000000000000A1
:102F30000000000000002AF10F86DBD0BC541613FD
:102F40001586004E44BD7F6F15159001EA49B516F0
:102F5000530000000000000000000000000000001E
:102F60000000000000000000000000000000000061
:102F70000000000000000000000000000000000051
:102F80000000000000000000000000000000000041
:102F9000000000000000000000000000CC31AA2C5E
:102FA000532E0001004D4F4445000000000000007A
:102FB000000000000000360000000000050152453E
:102FC000545241435400000000000000000000473C
:102FD000000000000005024E45555452414C0000CF
:102FE0000000000000000000530000000000050386
:102FF000434F4E54524F4C000000000000000000B0
:10300000005F00000000000104535441425F524F32
:103010004C4C0000000000000000330000000000E5
:103020000105535441425F54494C540000000000D4
:103030000000003400000000000106535441425FCC
:1030400050414E000000000000000000350000006C
:103050000000010752435F494E5F524F4C4C000045
:1030600000000000003700000000000208414E4749
:103070004D494E5F524F4C000000000000003A00E6
:1030800000A08CC50209414E474D41585F524F4C3C
:10309000000000000000003C0000A08C45010A5226
:1030A000435F494E5F54494C54000000000000004B
:1030B000380000000000020B414E474D494E5F545E
:1030C000494C000000000000003E0000A08CC5023A
:1030D0000C414E474D41585F54494C0000000000E0
:1030E0000000400000A08C45010D52435F494E5F37
:1030F00050414E00000000000000003900000000B8
:1031000000020E414E474D494E5F50414E000000B7
:1031100000000000420000A08CC5020F414E474D48
:1031200041585F50414E0000000000000044000084
:10313000A08C4501104A535449434B5F53504400FF
:1031400000000000000046000000000000FF00003A
:10315000000000000000000000000000000000006F
:10316000000000000096918C87827D78736E696400
:103170005F5A55504B46413C37322D28231E1914B7
:103180000F0A050004090E13181D22272C31363BA7
:1031900040454A4F54595E63686D72777C81868BD7
:1031A00090959A9FA4A9AEB3AFAAA5A09B968F892C
:1031B000837E78736E69645F5A55504B47423E393F
:1031C00035302C27231F1B16120E09050103070B90
:1031D0001014191D22262B2F34393D42474C5156CD
:1031E0005B60656B70757B80868C92979DA3A9AFA1
:1031F000B2ACA6A09A948F827C76706B65605C57A7
:10320000524E4A46413D3936322E2A26221F1B177E
:1032100013100C08040102060A0E12161A1E2226AA
:103220002B2F33383D41464B4F54595E64696F74C0
:103230007A80878D949BA2AAB1AEA69F979089822F
:103240006F68635E5955514D4946423F3C383532AF
:103250002E2B2824211E1A1714100D0A0603000312
:1032600006090D1014181C2024282C3034393D4137
:10327000464A4F54585D62676D737980878F98A274
:10328000ACB0A59A90867D766F55514D4A47444122
:103290003F3C3A383533312E2B292623201D1A176F
:1032A00013100D0A070401010306090D1013171A64
:1032B0001E22262A2E32363A3E42464A4E53575B4B
:1032C0005F64696E757C85909FB2A08D7D7067602C
:1032D0005A553E3C3A393736343332302F2E2C2A69
:1032E000292724221F1C191613100D0A0704020097
:1032F0000305080A0D1013161A1D2125292D313535
:10330000383C4043464A4D505356595B5E616569AF
:103310006F826D544D4A474442403E2E2E2D2C2C38
:103320002B2A2A2929282726252423211F1C1A175E
:1033300014100D0A07040101030507090C0E1013F0
:10334000161A1D2124282C3033373A3D4042444779
:10335000484A4A4B4A48443D3019021621282B2D31
:103360002E2F2E2E06090C0F121517191B1C1B18B9
:1033700011040E2231383C3C3C3A3835322F2B2890
:1033800024201C1915110D09050102060A0E11153C
:10339000181C1F222527292A2B2B29262119110821
:1033A0000004080A0A0A0807040200030616181A8D
:1033B0001C1E20211F1712516063625F5D59565217
:1033C0004E4A46423E3935312C2824201B17130E15
:1033D0000A060102060A0F13171B1F23262A2D3186
:1033E0003437393C3D3F3F3E3D39352F28211C17AE
:1033F000151313131416A8ADB2B0ABA6A19C9792E7
:103400008D88837E79746F6A65605B56514C474244
:103410003D38332E29241F1A15100B060103080D01
:1034200012171C21262B30353A3F44494E53585D24
:1034300062676C71767B80858A8F94999EA3A800C1
:10344000000001FFFFE000000000000001FFFFF0AE
:1034500000000000000001FFFFF800000000000075
:1034600001FFFFFE00000000000003FFFFFF00005F
:103470000000000003FFFFFFF000000000000FFF4E
:10348000FFFFFE00000003FFFFFC000007FC000040
:103490007FFFFFFC000000000000001FFFFE000097
:1034A000000000241E191512100E0C0B0A09090940
:1034B00008080807060605040404030404040000C1
:1034C00000000000000000002726212325232524DA
:1034D0002722292A2A1C27282B33322725222C335E
:1034E0003130370000000000000000000080114073
:1034F000114071327334333213121132111293347A
:1035000013145352310021030406080B2D0A090736
:1035100005040241C011C0511253547312111251CB
:10352000527314733231002102040506070809089A
:103530000607062403020102000120012011C00138
:1035400011003132137413143312F112D3125100DB
:1035500001022325060746442342210001E0A03151
:103560003213B4331112110011201100523312130F
:103570003211200122248504230402034241000168
:10358000E0A05112141315131534133251400120C9
:1035900011521332310001222304050405042301D2
:1035A0000382612001E0118011321354151433326B
:1035B00031402102010031723141022344230201D2
:1035C0002201220102614001A01180511214133422
:1035D000151433123140010201030201205211126D
:1035E00020212243042241022102A10001E02011F6
:1035F00040515374133211402102030203020100AF
:103600001112113200114122232221004102A18016
:103610000160116011001132337413121140016204
:1036200003020321311211121140010201020302AF
:1036300001000100E121E0A01120121173343331A7
:1036400020016203624012111211001101000102F7
:1036500001220001200100E1C001001180110012CF
:10366000111312141334522001E2022120311211DD
:10367000001100010021020100014021000241006F
:1036800001E06011401112111312141314133211BE
:103690000021220342010221000100110012110049
:1036A0001120010041600100C100014011200160B2
:1036B000114051121312131433123100014203222C
:1036C0000102210001401100310011000100010040
:1036D00001A0E10001A001801120315293121100DC
:1036E00021C221002140310011201100010001E020
:1036F000E16001E0110011727312310021420301F7
:1037000002010220214011001120116001401160CE
:10371000010001022102000120014001A0513213E9
:1037200012533211200102018221002100010011F7
:103730000031E000110011602100010201020101CD
:1037400000212001000160110011521312141352C4
:1037500011004182010200010021401100110011FD
:10376000A01100310011208122010100020100217D
:1037700000016011005213121314133231010002C0
:10378000012201420100210001000111201100115C
:1037900020114071001140010221020102010021AB
:1037A0000221000100010011001211123312341322
:1037B0003211200102014201220100410001601189
:1037C000201100110011005112312061020122026A
:1037D0000002010281201100121173341332110012
:1037E000410201820100610001801100110091324B
:1037F000314021420102020062614011521413540F
:103800003331004182012200010200410001609138
:1038100012115251200122010301020200826100B3
:103820005133541514333100210201220342410265
:10383000A1803192133231004122030201030022A0
:10384000032201020140111233953331010022019C
:1038500003420322212201026100011100115213CF
:1038600012531231004122032203002302030201FA
:103870000221203213141615171615331120016278
:1038800003020302032201A2414011125314131434
:10389000133211010002010203020302020002239B
:1038A00002032221203214163718171513121100A3
:1038B0002122030243024301030203822120111249
:1038C000131415341514321100016223020300434E
:1038D000020342012012131518193A17151311008B
:1038E000210203026304E302030203020102401205
:1038F000131415171516341220212243020300A3B6
:10390000220100111215181C1E1D19161311000298
:1039100001030203042304032403044304230403D4
:103920000203422011121415171836151331210203
:1039300003022302030400504552494F4400000093
:1039400000000000000000001D000000C84104014C
:1039500044414D50494E4700000000000000000067
:103960000021000000403F00FF00000000000000B8
:103970000000000000000000000000000000000047
:103980004572726F723A2041505F48414C5F415618
:10399000523A3A415652416E616C6F67496E206FE0
:1039A0007574206F66206368616E6E656C730D0AB6
:1039B00000474F494E4720444F574E20464F522014
:1039C00041205245424F4F540D0A0050414E494349
:1039D0003A207363686564756C65723A3A737973FB
:1039E00074656D5F696E697469616C697A6564207C
:1039F00063616C6C65646D6F7265207468616E20C4
:103A00006F6E63650050414E49433A204156525310
:103A1000656D6170686F72653A3A74616B652075A7
:103A20007365642066726F6D20696E7369646520CA
:103A300074696D65722070726F63657373005041B5
:103A40004E49433A205350493020777269746520BB
:103A5000636F6C6C6973696F6E0050414E49433AF5
:103A60002053504930207472616E73666572206312
:103A70006F6C6C6973696F6E0000407A10F35A00C6
:103A8000A0724E18090010A5D4E80000E876481787
:103A90000000E40B54020000CA9A3B000000E1F56C
:103AA00005000080969800000040420F000000A032
:103AB0008601000000102700000000E8030000005D
:103AC000006400000000000A000000000001000087
:103AD0000000002C76D888DC674F0823DFC1DFAEFA
:103AE00059E1B1B796E5E3E453C63AE651997696C3
:103AF000E8E6C28426EB898C9B62ED407C6FFCEF8C
:103B0000BC9C9F40F2BAA56FA5F490055A2AF75CB9
:103B1000936B6CF9676DC11BFCE0E40D47FEF5206B
:103B2000E6B500D0ED902E03009435770500808433
:103B30001E080000204E0A000000C80C3333333347
:103B40000F986E12831141EF8D2114893BE65516B3
:103B5000CFFEE6DB18D1844B381BF77C1D901DA4EB
:103B6000BBE424203284725E228100C9F124ECA1DE
:103B7000E53D2700002100240027002A002D003009
:103B800000330001010000040107010A01000022C6
:103B900000250028002B002E003100340002010017
:103BA00000050108010B0100002000230026002968
:103BB000002C002F00320000010000030106010963
:103BC0000105050505070508080808020202020AA2
:103BD0000A080804040404010101010101010103B0
:103BE00003030303030303040707070C0C0C0C0C6B
:103BF0000C0C0C0202020206060606060606060B5E
:103C00000B0B0B0B0B0B0B050102102020080810EF
:103C1000204010204080020102010804020101023C
:103C20000408102040808040201008040201800415
:103C30000201804020100804020108040201010270
:103C40000408102040800102040810204080400039
:103C500000090A02080B0C0D07060304010000000E
:103C60000000000000000000000000000000000054
:103C7000000000000000000000000011100F000014
:103C80000000000000000000000000000000000034
:103C90000000000000006E616E00696E6600494E13
:103CA00046494E4954594E414ECDCCCC3D0AD723BE
:103CB0003C17B7D13877CC2B329595E6241FB14FFE
:103CC0000A000020410000C84200401C4620BCBE43
:103CD0004CCA1B0E5AAEC59D74000D94B4290D94A8
:103CE0000A370D944E350D94690F0D94D10A0D9439
:103CF00037390D9420150D94B6350D94E3390D9494
:103D00005B300D94500E0D94BA290D94EE170D945E
:103D10008A3A0D94AC3D0D94B2200D941F220D945F
:103D2000B33B0D94B32F0D94CA110D94C7350D9468
:103D3000FF290D94F42B0D94F3040D94942C0D9401
:103D4000113D0D94312F0D9494360D9439380D9406
:103D5000FB350D947C300D94A73D0D9407080D9410
:103D60001D310D948E3E0D9473360D942A250D94BD
:103D70006A3F0D94D2360D943E370D9404380D945D
:103D800040300D94592B0D9485080D9415290D94F0
:103D9000EE0B0D9466200D9463360D9418320D943D
:103DA0008A390D9410370D94BE360D943B380D941E
:103DB00057370D94090C0D94F63D0D94030C0D949A
:103DC0000B2C0D94DD3C0D94F5350D9490390D942C
:103DD000E2200D9400150D943C300D94F92B0D94B8
:103DE000F50B0D94D3350D94F9110D9466300D94A7
:103DF00075350D941A2C0D94BF350D94E9350D943D
:103E0000602C0D944A360D94B63B0D947B350D9481
:103E1000A5360D94C8360D94D93A0D94A73E0D944D
:103E2000812D0D94D63C0D9437380D944B3E0D9456
:103E30004A2D0D94F90B0D941D130D94B13B0D9467
:103E40002E3B0D94743C0D946E310D94B13E0D9447
:103E5000CF350D945C400D94472C0D94BC390D94D6
:103E600035300D94F9370D94E53E0D94F62B0D94F5
:103E70004B120D94D9350D947E400D94CB3E0D948C
:103E8000DA360D94943D0D949C330D94AA180D943C
:103E90005B350D943E3C0D945B3C0D945C0C0D9495
:103EA0000A380D946B130D9471330D9481370D9472
:103EB000B4120D945F350D9454360D94D53C0D9489
:103EC00095070D9498400D9477200D94C3350D946B
:103ED000B7290D9459210D945F210D9481350D94CE
:103EE000662C0D94642D0D943D380D94C22C0D94C8
:103EF00068360D94BF3B0D9436400D9491170D9488
:103F0000E0360D94B93B0D94A0360D949E400D946F
:103F1000593E0D9439290D9468310D94E4340D9473
:103F2000B8320D94E3350D94A43D0D94E9100D9431
:103F3000CB350D940C110D94F0080D943B360D9477
:103F40004A0C0D94EE2C0D94A7290D94F3370D9483
:103F5000B73E0D946C300D943E100D9436360D9492
:103F6000253E0D94280F0D943C400D94AF360D94D2
:103F700011400D94713C0D946B350D94B4360D9435
:103F8000DD350D941E360D943B350D94F52B0D94B7
:103F9000542C0D944A210D9430250D94620C0D94EF
:103FA000B90B0D94292C0D94F4320D94ED040D945D
:103FB000F7320D9456410D9471350D94E6130D941E
:103FC00039300D94A13B0D947A2C0D944E3C0D94F8
:103FD0006D360D94992D0D94102D0D944F360D9432
:103FE00013400D94133B0D947D200D9490300D944F
:103FF0008A3B0D94AA360D9431370D94B9360D9441
:10400000EC3C0D94EF350D9437370D944A220D9406
:104010005E300D94FC2B0D943B370D948D350D9433
:1040200045360D9486120D9459360D94B1330D9486
:1040300093350D94F02B0D94073F0D947E3D0D9418
:10404000CC280D94AF370D94243C0D9478400D94FA
:10405000D23C0D9463350D940C3E0D94223D0D948D
:10406000382C0D945E360D94AA200D9444220D94A4
:10407000891E0D9487350D9450320D9436350D946C
:10408000402B0D945D1F0D945A2C0D94E0120D944D
:1040900044390D942E3D0D94AC3E0D94A7200D9403
:1040A00043370D9432370D9457350D94DC2B0D9416
:1040B000F9390D94FA330D94D1190D94343B0D94C4
:1040C000802C0D9440360D9462400D94760B0D9427
:1040D0007A050D94473D0D94322D0D94C4310D9405
:1040E000C4290D9426330D9410180D94CD360D94DB
:1040F00040350D94BA330D9431350D94C3360D947B
:10410000E72C0D9425350D94D13E0D94193B0D945B
:1041100067350D94643FA0469ABD22EB4BEB911E90
:104120008F1EB91F272011241FBECFEFD1E2DEBFA3
:10413000CDBF00E00CBF15E0A0E0B2E0EAEEF5E98B
:1041400002E00BBF02C007900D92AA3CB107D9F75D
:104150001BBE12E1AAECB5E001C01D92A236B10768
:10416000E1F711E4C6E2D1E404C02297FE010F9406
:10417000DC4AC631D107C9F70E94E4A50D94F34A81
:104180000C940000283008F027E03327DA01990F5B
:10419000311D87FD916000966105710539F432602B
:1041A0002E5F3D9330E32A95E1F708959F3F30F06D
:1041B00080387105610509F03C5F3C5F3D939130AB
:1041C00008F08068911DDF93CF931F930F93FF92A8
:1041D000EF92192F987F9695E92F96959695E90F6E
:1041E000FF27ED52F54C99273327EE24FF24A70132
:1041F000E70105900894079428F4360FE71EF81E8F
:10420000491F511D660F771F881F991F0694A1F73C
:104210000590079428F4E70EF81E491F561FC11D8C
:10422000770F881F991F661F0694A1F705900794C2
:1042300028F4F80E491F561FC71FD11D880F991F5C
:10424000661F771F0694A1F70590079420F4490F85
:10425000561FC71FD81F990F661F771F881F069408
:10426000A9F784911095177041F0D695C795579589
:104270004795F794E7941A95C1F7E9E7FAE368944C
:104280001590159135916591959105907FE2739503
:10429000E118F10A430B560BC90BD009C0F7E10C2A
:1042A000F11E431F561FC91FD01D7EF4703311F439
:1042B0008A95E6CFE894015030F0080F0AF4002701
:1042C000021708F4202F2395022F7A3328F079E380
:1042D0007D932A95E9F710C07D932A9589F6069477
:1042E00097956795379517951794E118F10A430B41
:1042F000560BC90BD00998F023957E9173957A33AC
:1043000008F070E37C932013B8F77E9170617D9381
:1043100030F0839571E37D9370E32A95E1F71124E2
:10432000EF90FF900F911F91CF91DF91992787FD1B
:1043300090950895FA01AA27283051F1203181F192
:10434000E8946F936E7F6E5F7F4F8F4F9F4FAF4F9D
:10435000B1E03ED0B4E03CD0670F781F891F9A1FB0
:10436000A11D680F791F8A1F911DA11D6A0F711D64
:10437000811D911DA11D20D009F468943F912AE070
:10438000269F11243019305D3193DEF6CF01089558
:10439000462F4770405D4193B3E00FD0C9F7F6CF89
:1043A000462F4F70405D4A3318F0495D31FD405251
:1043B000419302D0A9F7EACFB4E0A69597958795E7
:1043C00077956795BA95C9F70097610571050895C6
:1043D0009B01AC010A2E0694579547953795279572
:1043E000BA95C9F7620F731F841F951FA01D08950A
:1043F000A0E3B0E0EEEFF1E20D94A34AA8E04E0195
:104400000894811C911CF401BA2F1192BA95E9F716
:1044100029833A834B835C836D837E838F83988764
:10442000CE010996FC011192AA95E9F7A986BA86F0
:10443000CB86DC86ED86FE860F87188B29813A8134
:104440004B815C812DA73EA74FA758AB79018A010C
:104450008FEF9FEFA0E0B0E0E822F9220A231B23B0
:104460001A014424552429853A854B855C8529A762
:104470003AA74BA75CA759016A01A822B922CA2210
:10448000DB223A0188249924C601B501A8019701CD
:104490000F94144A6DA37EA38FA398A7C401B30100
:1044A0000F94144A69A37AA38BA39CA3C601B501F8
:1044B000A20191010F94144A7B018C01C401B30144
:1044C0000F94144A5B016C0189A19AA1ABA1BCA114
:1044D0008E0D9F1DA01FB11F89A39AA3ABA3BCA3E0
:1044E0002DA13EA14FA158A5CA01AA27BB2729A1EA
:1044F0003AA14BA15CA1280F391F4A1F5B1F29A3BA
:104500003AA34BA35CA32E153F054007510740F487
:1045100080E090E0A1E0B0E0A80EB91ECA1EDB1E4C
:1045200089A19AA1ABA1BCA19D01442755272A0DC1
:104530003B1D4C1D5D1D2D8F3E8F4F8F58A36C0171
:10454000BB24AA248DA19EA1AFA1B8A5A070B07074
:10455000A80EB91ECA1EDB1EA98EBA8ECB8EDC8EAB
:104560009A8C8B8C7C8C9E8D6F8D78A1FE017196C0
:1045700088E0DF011D928A95E9F72D8B9E8B6F8B6A
:10458000788F2D853E854F8558896DA57EA58FA591
:1045900098A90F94144A7B018C012D813E814F8193
:1045A000588569A57AA58BA59CA50F94144AE60E9B
:1045B000F71E081F191F6D897E898F89988D6E0DD2
:1045C0007F1D801F911F6D8B7E8B8F8B988FEE8947
:1045D0002A2D392D482D572D7E2F8F89988DE096C5
:1045E000E2E10D94BF4AEF92FF920F93DF93CF93D6
:1045F000CDB7DEB760970FB6F894DEBF0FBECDBF64
:10460000A82F002309F461C07E010894E11CF11C6D
:1046100088E0F70111928A95E9F729833A834B8361
:104620005C836D837E83AF83988780E2801BE82F55
:10463000FF27E7FDF09549815A816B817C8118162F
:1046400084F019861A861B861C86882799278E1B5C
:104650009F0B04C0440F551F661F771F8A95D2F722
:1046600028C0202F332727FD3095DB01CA01022EF9
:1046700004C0880F991FAA1FBB1F0A94D2F789870D
:104680009A87AB87BC8704C0769567955795479501
:10469000EA95D2F78D819E81AF81B88504C0880FDD
:1046A000991FAA1FBB1F2A95D2F7482B592B6A2B9B
:1046B0007B2B4D875E876F87788B29853A854B8565
:1046C0005C856D857E85AF8598898A2F60960FB64B
:1046D000F894DEBF0FBECDBFCF91DF910F91FF9059
:1046E000EF900895AEE5B0E0E8E7F3E20D94A34A59
:1046F000A8E04E010894811C911CF4016A2E1192CD
:104700006A94E9F729833A834B835C836D837E83C4
:104710008F839887CE010996FC011192AA95E9F73B
:10472000A986BA86CB86DC86ED86FE860F87188B37
:1047300029843A844B845C84ED84FE840F85188937
:1047400069807A808B809C806DA67EA68FA698AAB1
:104750006D807E808F809884E114F104010511053D
:1047600009F0B3C3621473048404950408F03DC1D6
:1047700000E0201600E0300601E0400600E05006B0
:1047800088F41FEF211631044104510439F030F050
:1047900048E0E42EF12C012D112D18C0EE24FF2449
:1047A000870114C020E0221620E0320620E04206F5
:1047B00021E0520630F038E1E32EF12C012D112DCD
:1047C00005C020E1E22EF12C012D112DD201C101F5
:1047D0000E2C04C0B695A795979587950A94D2F7A5
:1047E0008B5F9D4FDC012C9180E290E0A0E0B0E077
:1047F0008E199F09A00BB10B7C018D01E21AF10803
:1048000001091109E114F10401051105A1F10E2CB2
:1048100004C0220C331C441C551C0A94D2F7A4017A
:1048200093010E2C04C0220F331F441F551F0A94FE
:10483000D2F780E290E08E199F096DA47EA48FA428
:1048400098A804C096948794779467948A95D2F731
:10485000622A732A842A952AADA4BEA4CFA4D8A81C
:1048600004C0AA0CBB1CCC1CDD1CEA94D2F7ADA67C
:10487000BEA6CFA6D8AA6201EE24FF24CDAADEAA46
:10488000EFAAF8AE920181012070307009AF1AAF23
:104890002BAF3CAFC401B301A70196010F94664A48
:1048A0007B018C01C401B3012DA93EA94FA958ADCC
:1048B0000F94664AC901DA013C014D01C401B301FC
:1048C00029AD3AAD4BAD5CAD0F94144A9B01AC01E0
:1048D0008701FF24EE24ADA4BEA4CFA4D8A8C601AE
:1048E000AA27BB2757016801A82AB92ACA2ADB2AA6
:1048F000A216B306C406D506E0F408946108710850
:1049000081089108A20CB31CC41CD51CA214B304CA
:10491000C404D50470F0A216B306C406D50648F444
:1049200008946108710881089108A20CB31CC41C8A
:10493000D51CA21AB30AC40AD50AC601B5012DA90D
:104940003EA94FA958AD0F94664A7B018C01C60160
:10495000B5012DA93EA94FA958AD0F94664AC901CA
:10496000DA015C016D01C601B50129AD3AAD4BAD6F
:104970005CAD0F94144A9B01AC018701FF24EE2427
:104980008DA59EA5AFA5B8A9A070B070E82AF92A98
:104990000A2B1B2BE216F30604071507C0F4089434
:1049A000A108B108C108D108E20CF31C041D151DB3
:1049B000E214F3040405150550F0E216F3060407AB
:1049C000150728F40894A108B108C108D108D3013B
:1049D0009927882786017501E82AF92A0A2B1B2BBB
:1049E000E9AAFAAA0BAB1CABCFC4211431044104D1
:1049F000510471F461E070E080E090E020E030E08C
:104A000040E050E00F94664AC901DA011C012D0113
:104A100000E0201600E0300601E0400600E050060D
:104A200088F41FEF211631044104510431F028F0BD
:104A300048E050E060E070E017C040E050E060E027
:104A400070E012C020E0221620E0320620E042068C
:104A500021E0520628F048E150E060E070E004C038
:104A600040E150E060E070E0D201C101042E04C0DA
:104A7000B695A795979587950A94D2F78B5F9D4F2A
:104A8000DC012C91E0E2EE2EF12C012D112DD8014C
:104A9000C701841B950BA60BB70B821B9109A109BB
:104AA000B1090097A105B10561F464015301A21891
:104AB000B308C408D50831E0632E712C812C912CE9
:104AC0001EC16F968FAF6F97082E04C0220C331C47
:104AD000441C551C0A94D2F7EE2DE81B64015301C7
:104AE0000E2E04C0D694C794B794A7940A94D2F714
:104AF000A40193016F960FAC6F9704C0220F331F70
:104B0000441F551F0A94D2F76DA47EA48FA498A8C1
:104B10000E2E04C096948794779467940A94D2F7E3
:104B200084017301E22AF32A042B152BE9A6FAA6C5
:104B30000BA71CA7320188249924920181012070BF
:104B4000307021960CAF1DAF2EAF3FAF2197C6013D
:104B5000B501A40193010F94664A7B018C01C60143
:104B6000B501A40193010F94664AC901DA012596A3
:104B70008CAF9DAFAEAFBFAF2597BC01CD012196E5
:104B80002CAD3DAD4EAD5FAD21970F94144A9B0106
:104B9000AC018701FF24EE24A9A4BAA4CBA4DCA411
:104BA000C601AA27BB275C016D01AE28BF28C02A19
:104BB000D12AA216B306C406D50660F525966CADBB
:104BC0007DAD8EAD9FAD2597615070408040904087
:104BD00025966CAF7DAF8EAF9FAF2597A20CB31C0F
:104BE000C41CD51CA214B304C404D50498F0A216A6
:104BF000B306C406D50670F4615070408040904002
:104C000025966CAF7DAF8EAF9FAF2597A20CB31CDE
:104C1000C41CD51CA21AB30AC40AD50AC601B50120
:104C2000A40193010F94664A7B018C01C601B50172
:104C3000A40193010F94664AC901DA013C014D01B8
:104C4000C401B30121962CAD3DAD4EAD5FAD2197B2
:104C50000F94144A9B01AC018701FF24EE2489A51F
:104C60009AA5ABA5BCA5A070B07057016801A82A91
:104C7000B92ACA2ADB2AA216B306C406D506E0F46E
:104C800008946108710881089108A20CB31CC41C27
:104C9000D51CA214B304C404D50470F0A216B30644
:104CA000C406D50648F40894610871088108910883
:104CB000A20CB31CC41CD51C8DA59EA5AFA5B8A97C
:104CC0006F960FAC6F9704C0880F991FAA1FBB1F68
:104CD0000A94D2F78DA79EA7AFA7B8ABA21AB30AC2
:104CE000C40AD50A2596ECACFDAC0EAD1FAD2597D8
:104CF000D70199278827682A792A8A2A9B2A82013C
:104D00002227332729960CAF1DAF2EAF3FAF29972F
:104D1000A2019101407050702D962CAF3DAF4EAF67
:104D20005FAF2D97C601B50129962CAD3DAD4EADB7
:104D30005FAD29970F94664A7B018C01C601B501CE
:104D400029962CAD3DAD4EAD5FAD29970F94664AC7
:104D5000C901DA0161968CAF9DAFAEAFBFAF61976D
:104D6000BC01CD012D962CAD3DAD4EAD5FAD2D9767
:104D70000F94144A9B01AC018701FF24EE24ADA4DB
:104D8000BEA4CFA4D8A8C601AA27BB275701680193
:104D9000A82AB92ACA2ADB2AA216B306C406D5064F
:104DA00060F561966CAD7DAD8EAD9FAD6197615044
:104DB00070408040904061966CAF7DAF8EAF9FAFEA
:104DC0006197A20CB31CC41CD51CA214B304C40468
:104DD000D50498F0A216B306C406D50670F4615047
:104DE00070408040904061966CAF7DAF8EAF9FAFBA
:104DF0006197A20CB31CC41CD51CA21AB30AC40A26
:104E0000D50AC601B50129962CAD3DAD4EAD5FADBD
:104E100029970F94664A7B018C01C601B50129963A
:104E20002CAD3DAD4EAD5FAD29970F94664AC901DB
:104E3000DA015C016D01C601B5012D962CAD3DADC9
:104E40004EAD5FAD2D970F94144A9B01AC018701C5
:104E5000FF24EE248DA59EA5AFA5B8A9A070B070C3
:104E6000E82AF92A0A2B1B2BE216F306040715077A
:104E7000C0F40894A108B108C108D108E20CF31CE1
:104E8000041D151DE214F3040405150550F0E21687
:104E9000F3060407150728F40894A108B108C1080F
:104EA000D1086196ECACFDAC0EAD1FAD6197D7019A
:104EB0009927882796018501082B192B2A2B3B2B34
:104EC00009AB1AAB2BAB3CAB62C26E147F048006FD
:104ED000910608F451C220E0E21620E0F20621E03B
:104EE000020720E0120788F43FEFE316F104010502
:104EF000110531F028F048E050E060E070E017C0A4
:104F000040E050E060E070E012C040E0E41640E0B5
:104F1000F40640E0040741E0140728F048E150E0BF
:104F200060E070E004C040E150E060E070E0D80173
:104F3000C701042E04C0B695A795979587950A9446
:104F4000D2F78B5F9D4FDC012C9130E2A32EB12C68
:104F5000C12CD12CD601C501841B950BA60BB70B18
:104F6000821B9109A109B1090097A105B10589F436
:104F7000E614F7040805190508F4F2C16DA47EA42F
:104F80008FA498A8621473048404950408F0E8C1FF
:104F9000F3C16E968FAF6E97082E04C0EE0CFF1C07
:104FA000001F111F0A94D2F76A2D681BD201C1019C
:104FB000062E04C0B695A795979587950A94D2F7C3
:104FC0005C016D01AE28BF28C02AD12AADA2BEA2C5
:104FD000CFA2D8A6720161016E960FAC6E9704C085
:104FE000CC0CDD1CEE1CFF1C0A94D2F7C9A2DAA27D
:104FF000EBA2FCA264015301062E04C0D694C79410
:10500000B794A7940A94D2F7D401C3016E960FAC5B
:105010006E9704C0880F991FAA1FBB1F0A94D2F76E
:10502000EDA4FEA40FA518A904C016950795F79442
:10503000E7946A95D2F737014801682A792A8A2AC3
:105040009B2A6D8E7E8E8F8E98A2EDA0FEA00FA162
:1050500018A53801882499249801870120703070A0
:1050600065960CAF1DAF2EAF3FAF6597C601B5017A
:10507000A40193010F94664A7B018C01C601B5011E
:10508000A40193010F94664AC901DA011C012D01A4
:10509000C201B10165962CAD3DAD4EAD5FAD6597DA
:1050A0000F94144A9B01AC018701FF24EE24AD8CC0
:1050B000BE8CCF8CD8A0C601AA27BB275701680198
:1050C000A82AB92ACA2ADB2AA216B306C406D5061C
:1050D00000F508942108310841085108EDA0FEA010
:1050E0000FA118A5AE0CBF1CC01ED11EAE14BF046C
:1050F000C006D10670F0A216B306C406D50648F461
:1051000008942108310841085108AE0CBF1CC01E8C
:10511000D11EA21AB30AC40AD50AC601B501A40158
:1051200093010F94664A7B018C01C601B501A4016D
:1051300093010F94664AC901DA013C014D01C40193
:10514000B30165962CAD3DAD4EAD5FAD65970F9447
:10515000144A9B01AC018701FF24EE248D8D9E8DA6
:10516000AF8DB8A1A070B07057016801A82AB92A04
:10517000CA2ADB2AA216B306C406D50600F508948F
:1051800061087108810891086DA17EA18FA198A581
:10519000A60EB71EC81ED91EA616B706C806D90683
:1051A00070F0A216B306C406D50648F40894610848
:1051B000710881089108A60EB71EC81ED91ED60117
:1051C000C501821B930BA40BB50B898F9A8FAB8FF4
:1051D000BC8FD1019927882764015301A82AB92AD5
:1051E000CA2ADB2AA9AABAAACBAADCAA8601750117
:1051F0002FEF3FEF40E050E0E222F322042315239B
:10520000A601662777276D964CAF5DAF6EAF7FAF77
:105210006D97A9A0BAA0CBA0DCA06FEF7FEF80E0D4
:1052200090E0A622B722C822D92289A19AA1ABA1D7
:10523000BCA11D0144245524C801B701A601950154
:105240000F94144A69966CAF7DAF8EAF9FAF69978C
:10525000C801B701A20191010F94144A3B014C010E
:105260006D966CAD7DAD8EAD9FAD6D97A601950130
:105270000F94144A7B018C016D966CAD7DAD8EADA3
:105280009FAD6D97A20191010F94144A5B016C01CF
:10529000A8019701260D371D481D591D69966CAC54
:1052A0007DAC8EAC9FAC6997C401AA27BB27280FA1
:1052B000391F4A1F5B1F2E153F054007510748F451
:1052C000E12CF12C61E0062F112DAE0CBF1CC01E8D
:1052D000D11ECA01AA27BB27BC01CD016A0D7B1DC7
:1052E0008C1D9D1D698C7A8C8B8C9C8C6616770628
:1052F0008806990640F1661577058805990509F035
:1053000043C0D9019927882769962CAD3DAD4EAD94
:105310005FAD699740705070820F931FA41FB51F37
:105320002DA53EA54FA558A96E960FAC6E9704C04B
:10533000220F331F441F551F0A94D2F7281739072D
:105340004A075B0708F509A91AA92BA93CA901502E
:1053500010402040304009AB1AAB2BAB3CAB14C023
:1053600066247724430121E030E040E050E029AB9F
:105370003AAB4BAB5CAB0BC066247724430119AA54
:105380001AAA1BAA1CAA03C0662477244301FE01A3
:10539000719688E0DF011D928A95E9F7A9A8BAA85D
:1053A000CBA8DCA8A98ABA8ACB8ADC8A6D8A7E8AD5
:1053B0008F8A988E29A93A894B895C89662D7E89C6
:1053C0008F89988DC25ADF4FE2E10D94BF4A0F9347
:1053D0001F93CF93DF93689F8001699F100D789F83
:1053E000100D1124C8010DD0EC01009721F060E0F0
:1053F00070E0A80187D1CE01DF91CF911F910F916D
:105400000895CF93DF93BC018230910510F462E0E0
:1054100070E0A0915E12B0915F12ED01E0E0F0E06B
:1054200040E050E021C0888199818617970769F490
:105430008A819B81309719F09383828304C0909373
:105440005F1280935E12FE0134C06817790738F44A
:105450004115510519F08417950708F4AC01FE01B8
:105460008A819B819C01E9012097E9F6411551054C
:10547000A9F1CA01861B970B049708F4BA01E0E072
:10548000F0E02AC08D919C91119784179507F9F44B
:105490006417750781F412968D919C91139730973C
:1054A00019F09383828304C090935F1280935E12FD
:1054B000FD0132964CC0CA01861B970BFD01E80F17
:1054C000F91F6193719302978D939C9340C0FD01E6
:1054D000828193819C01D9011097A1F680915C1281
:1054E00090915D12892B41F48091070390910803FC
:1054F00090935D1280935C124091090350910A03CE
:105500004115510541F44DB75EB780910503909167
:105510000603481B590B20915C1230915D12CA01A1
:10552000821B930B8617970780F0AB014E5F5F4F8E
:105530008417950750F0420F531F50935D1240930C
:105540005C12F9016193719302C0E0E0F0E0CF01D9
:10555000DF91CF910895CF93DF93009709F450C066
:10556000EC0122971B821A82A0915E12B0915F1209
:10557000109709F140E050E0AC17BD0708F1BB837C
:10558000AA83FE0121913191E20FF31FAE17BF07ED
:1055900079F48D919C911197280F391F2E5F3F4F01
:1055A0003983288312968D919C9113979B838A83CC
:1055B0004115510571F4D0935F12C0935E1220C063
:1055C00012968D919C911397AD01009711F0DC011B
:1055D000D3CFFA01D383C28321913191E20FF31F1C
:1055E000CE17DF0769F488819981280F391F2E5F54
:1055F0003F4FFA01318320838A819B819383828389
:10560000DF91CF91089566277727EDC01F93FC01A6
:1056100099278827BC01E89411911032E9F31930D9
:1056200010F01E30C8F31B3249F01D3241F468946B
:1056300005C0C4D0610F711D811D911D11911053C2
:105640001A30B8F33EF490958095709561957F4F30
:105650008F4F9F4F1F910895FB01DC0102C0059001
:105660000D9241505040D8F70895FB01DC018D9117
:1056700081341CF08B350CF4805E659161341CF034
:105680006B350CF4605E861B611189F3990B0895EC
:10569000FB01DC018D91059080190110D9F3990B64
:1056A0000895FB01DC014150504030F08D91059090
:1056B000801919F40020B9F7881B990B0895FB0194
:1056C000DC014150504048F005900D920020C9F790
:1056D00001C01D9241505040E0F70895FC01059033
:1056E000615070400110D8F7809590958E0F9F1FE4
:1056F0000895FB01DC0102C001900D924150504021
:10570000D8F70895DC0101C06D9341505040E0F797
:105710000895FB01DC018D91019080190110D9F3EE
:10572000990B0895FB01DC014150504048F0019075
:105730000D920020C9F701C01D9241505040E0F782
:105740000895FC016150704001900110D8F78095D8
:1057500090958E0F9F1F0895009731F4DA018D9177
:105760009C91009709F40EC0DC01FB013D91219151
:10577000222319F03217C9F3FACF332331F4DA01B7
:105780001D921C928827992708951197AF93BF9374
:10579000FB013D912191321771F4332321F48827C5
:1057A0009927119702C01E921196FA01A193B08316
:1057B0009F918F910895222369F7EACF592F482F9F
:1057C000372F262F660F771F881F991F660F771FA9
:1057D000881F991F620F731F841F951F660F771F05
:1057E000881F991F0895A0E0B0E0E9EFFBE20D9457
:1057F000A94AEC015B016115710519F0FB01918368
:105800008083F9908F2D90E00F94EB4A892BC9F794
:10581000FDE2FF1621F4F990EE24E39405C02BE29B
:10582000F21609F4F990EE248E0101501040C801DF
:105830006EE97CE343E050E033D1892BF9F48E012B
:105840000E5F1F4FC80161EA7CE345E050E028D1BC
:10585000892B19F48E01095F1F4FA114B10419F0AF
:10586000F50111830083E0FC04C070E090E080E863
:1058700013C070E090E080E86FEF07C1C80166EAEE
:105880007CE343E050E00CD1892B69F4A114B1040E
:1058900029F470E090E080EC6FE7F7C02296F50104
:1058A000D183C083F6CF8824992440E050E060E0A3
:1058B00070E0EF2DE053EA30A0F5F2E0EF2A8E2DF4
:1058C00090E09C0128703070E2FE06C0232B79F531
:1058D0000894811C911C2BC0232B19F0089481087B
:1058E0009108DB01CA0112E0880F991FAA1FBB1F94
:1058F0001A95D1F7480F591F6A1F7B1F440F551F78
:10590000661F771F4E0F511D611D711D483929E912
:10591000520729E9620729E1720748F084E0E82A82
:1059200006C0EE3F31F4E3FC39C098E0E92AF99073
:10593000C0CFE53311F0E53189F529912D3219F405
:10594000E0E1EE2A05C02B3219F081E090E003C0BF
:10595000299182E090E0E22FE053EA3018F0C81B72
:10596000D90B1CC020E030E0FCE020383F075CF49D
:10597000C901880F991F880F991F280F391F220FFF
:10598000331F2E0F311DE991E053EA3068F3E4FE36
:1059900003C0309521953F4F820E931ECE2CDD24FF
:1059A000E1FE07C0A114B10421F02197F501D183D4
:1059B000C083CB01BA010F94FC467B018C01F3E05C
:1059C000CF22DD2423E0C216D10421F417FB109569
:1059D00017F9109557016801C801B70120E030E0C0
:1059E00040E050E00F942B46882309F44AC097FE0C
:1059F0000DC02DEBE22E2CE3F22E909481949108B1
:105A00009394C0E2D0E000E010E012C095EDE92EE2
:105A10009CE3F92EF6CFF7012591359145915491EC
:105A2000C601B5010F944F495B016C018C1A9D0AA8
:105A30008C169D0684F7D595C7950F5F1F4F0630CE
:105A4000110529F08CEF9FEFE80EF91EF1CFC5018B
:105A5000D6017C018D018C2D880F8D2D881F8F3FE5
:105A600051F0C601B50120E030E040E050E00F9475
:105A70002B46882331F482E290E090936112809368
:105A800060127E2D9F2D802F612F272F392F482FB9
:105A9000562FB901CA01CDB7DEB7ECE00D94C54A67
:105AA000FB01DC014150504088F08D9181341CF0A5
:105AB0008B350CF4805E659161341CF06B350CF411
:105AC000605E861B611171F3990B0895881BFCCFF2
:105AD0000895009719F00197B1F405C0E0913710CF
